:020000040800F2
:100000000000012089180108454200084942000803
:100010004D4200085142000855420008000000000F
:10002000000000000000000000000000594200082D
:100030005D420008000000006142000865420008BF
:10004000D9180108D9180108D918010879420008FF
:10005000D9180108D9180108D9180108D9180108B8
:10006000D9180108B5420008D9180108D9180108A3
:10007000C9420008D5420008D9180108D91801085A
:10008000E1420008ED420008D9180108D91801081A
:10009000D9180108D9180108D9180108D918010878
:1000A000D9180108D9180108D9180108D918010868
:1000B000D91801080000000000000000D91801084C
:1000C000D9180108F9420008D9180108D9180108FF
:1000D000D9180108D9180108D1590008D918010800
:1000E0002143000835430008000000000000000024
:1000F0000000000000000000000000000000000000
:1001000000000000D918010800000000D9180108FB
:100110000000000000000000D9180108D9180108EB
:10012000D9180108D9180108D9180108D9180108E7
:10013000D9180108000000000000000000000000C5
:10014000D9180108D9180108D918010800000000C1
:10015000D9180108D9180108D9180108D9180108B7
:10016000D9180108D9180108D918010800000000A1
:10017000D9180108D918010800000000000000008B
:10018000D9180108D9180108D91801080000000081
:1001900001230360704700BF014B0360704700BF3D
:1001A000000D010072B6BFF34F8FBFF36F8F0E4B80
:1001B00000211A68196062B6BFF34F8FBFF36F8FCB
:1001C00002F00103910748BF43F00203510748BF03
:1001D00043F00403110748BF43F00803D20648BFA9
:1001E00043F01003036070478000002072B6BFF335
:1001F0004F8FBFF36F8F044B5B6862B6BFF34F8FB7
:10020000BFF36F8F036070478000002072B6BFF3AA
:100210004F8FBFF36F8F044B9B6862B6BFF34F8F56
:10022000BFF36F8F03607047800000200E4A92F882
:10023000583192F85911B2F95CC103F00F034942E9
:1002400001F4807143EA0C430B4392F85A1192F87F
:100250008421494201F4007152420B4302F480624E
:1002600013430360704700BF80000020054B9FEDE3
:10027000067AD3ED427A67EE877AFCEEE77AC0ED34
:10028000007A70478000002000007A44054B9FED03
:10029000067AD3ED437A67EE877AFCEEE77AC0ED13
:1002A000007A70478000002000007A44054B9FEDE3
:1002B000067AD3ED447A67EE877AFCEEE77AC0EDF2
:1002C000007A70478000002000007A44054B9FEDC3
:1002D000067AD3ED457A67EE877AFCEEE77AC0EDD1
:1002E000007A70478000002000007A44054B9FEDA3
:1002F000067AD3ED467A67EE877AFCEEE77AC0EDB0
:10030000007A70478000002000007A44054B9FED82
:10031000067AD3ED477A67EE877AFCEEE77AC0ED8E
:10032000007A70478000002000007A44054B9FED62
:10033000067AD3ED487A67EE877AFCEEE77AC0ED6D
:10034000007A70478000002000007A44054B9FED42
:10035000067AD3ED497A67EE877AFCEEE77AC0ED4C
:10036000007A70478000002000007A44054B9FED22
:10037000067AD3ED4A7A67EE877AFCEEE77AC0ED2B
:10038000007A70478000002000007A44054B9FED02
:10039000067AD3ED4B7A67EE877AFCEEE77AC0ED0A
:1003A000007A70478000002000007A44054B9FEDE2
:1003B000067AD3ED4C7A67EE877AFDEEE77AC0EDE8
:1003C000007A70478000002000007A44054B9FEDC2
:1003D000067AD3ED4D7A67EE877AFDEEE77AC0EDC7
:1003E000007A70478000002000007A44054B9FEDA2
:1003F000067AD3ED4E7A67EE877AFDEEE77AC0EDA6
:10040000007A70478000002000007A44054B9FED81
:10041000067AD3ED4F7A67EE877AFDEEE77AC0ED84
:10042000007A70478000002000007A44054B9FED61
:10043000067AD3ED507A67EE877AFDEEE77AC0ED63
:10044000007A70478000002000007A44054B9FED41
:10045000067AD3ED517A67EE877AFDEEE77AC0ED42
:10046000007A70478000002000007A44054B9FED21
:10047000067AD3ED527A67EE877AFDEEE77AC0ED21
:10048000007A70478000002000007A44054B9FED01
:10049000067AD3ED537A67EE877AFDEEE77AC0ED00
:1004A000007A70478000002000007A44054B9FEDE1
:1004B000067AD3ED547A67EE877AFDEEE77AC0EDDF
:1004C000007A70478000002000007A44054B9FEDC1
:1004D000067AD3ED557A67EE877AFDEEE77AC0EDBE
:1004E000007A70478000002000007A440F4AD2F85A
:1004F000003110B504461BB10D491868884208D078
:10050000D2F898310B490C4A002098470023236009
:1005100010BDD3ED017A9FED097A67EE877AFCEE84
:10052000E77A17EE903A236010BD00BF80000020EC
:1005300050D1C0AC948F01087C8F010800007A4430
:1005400000B5114A83B0D2F800310190C3B10F4910
:100550001868884209D0D2F898310D490D4A002018
:100560009847012003B05DF804FBDDED017ADFED73
:100570000A6AF8EE677A87EEA67A83ED017AF0E7E9
:10058000184603B05DF804FB8000002050D1C0ACD9
:10059000948F01087C8F010800007A440F4AD2F83A
:1005A000003110B504461BB10D491868884208D0C7
:1005B000D2F898310B490C4A002098470023236059
:1005C00010BDD3ED027A9FED097A67EE877AFCEED3
:1005D000E77A17EE903A236010BD00BF800000203C
:1005E00050D1C0AC948F01087C8F010800007A4480
:1005F00000B5114A83B0D2F800310190C3B10F4960
:100600001868884209D0D2F898310D490D4A002067
:100610009847012003B05DF804FBDDED017ADFEDC2
:100620000A6AF8EE677A87EEA67A83ED027AF0E737
:10063000184603B05DF804FB8000002050D1C0AC28
:10064000948F01087C8F010800007A440A4AD2F88E
:10065000003110B504461BB108491868884208D01B
:10066000D2F898310649074A0020984700232360B2
:1006700010BD9B89236010BD8000002050D1C0AC0C
:10068000948F01087C8F01080A4AD2F800317BB1AF
:1006900010B509491C688C4207D0D2F89831074937
:1006A000074A00209847012010BD9881012010BD05
:1006B000184670478000002050D1C0AC948F0108CC
:1006C0007C8F01080B4AD2F8003110B504461BB1EB
:1006D00009491868884208D0D2F898310749084A71
:1006E000002098470123236010BD93F82830236031
:1006F00010BD00BF8000002050D1C0AC948F010815
:100700007C8F01080C4AD2F800319BB110B50B491F
:100710001C688C4207D0D2F898310949094A002058
:100720009847012010BD003818BF012083F8280029
:10073000012010BD184670478000002050D1C0AC89
:10074000948F01087C8F01080F4AD2F8003110B550
:1007500004461BB10D491868884208D0D2F8983178
:100760000B490C4A002098470023236010BDD3EDAD
:10077000047A9FED097A67EE877AFDEEE77A17EE45
:10078000903A236010BD00BF8000002050D1C0AC63
:10079000948F01087C8F010800007A4400B5114A4B
:1007A00083B0D2F800310190C3B10F491868884274
:1007B00009D0D2F898310D490D4A00209847012000
:1007C00003B05DF804FBDDED017ADFED0A6AF8EEB7
:1007D000E77A87EEA67A83ED047AF0E7184603B04D
:1007E0005DF804FB8000002050D1C0AC948F01085C
:1007F0007C8F010800007A440C4AD2F8003110B511
:1008000004461BB10A491868884208D0D2F89831CA
:100810000849094A002098470523236010BD9B7BA7
:100820005A1E042A88BF0023236010BD80000020C8
:1008300050D1C0AC948F01087C8F01080C4AD2F8CB
:10084000003113B1411E042901D90020704710B5B1
:1008500008491C688C4207D0D2F898310649074AEB
:1008600000209847012010BD9873012010BD00BFE3
:100870008000002050D1C0AC948F01087C8F01080B
:100880000D4AD2F8003110B504461BB10B49186867
:10089000884208D0D2F8983109490A4A002098477E
:1008A0000323236010BD1B7D032B96BF064A002344
:1008B00052F82330236010BD8000002050D1C0AC1E
:1008C000948F01087C8F0108004E01080D4AD2F870
:1008D000003113B10138032801D9002070470A49BB
:1008E000014410B5087C094C1968A14207D0D2F820
:1008F00098310749074A00209847012010BD187514
:10090000012010BD80000020004E010850D1C0AC75
:10091000948F01087C8F01080E4AD2F8003110B57F
:1009200004461BB10C491868884208D0D2F89831A7
:100930000A490B4A002098470123236010BD5B7DC4
:10094000002BF9D0A3F10103B3FA83F35B095B0039
:10095000236010BD8000002050D1C0AC948F0108EE
:100960007C8F0108104A08B5D2F800318BB10128FC
:1009700011D002280DD10D49186888424FF0010CA2
:100980000FD0D2F898310A490A4A0020984701202E
:1009900008BD002008BD0549186888424FF0000CCA
:1009A000EFD183F815C0F2E78000002050D1C0AC31
:1009B000948F01087C8F01080A4AD2F8003110B5E3
:1009C00004461BB108491868884208D0D2F898310B
:1009D0000649074A002098470023236010BD1B8B5F
:1009E000236010BD8000002050D1C0AC948F01085E
:1009F0007C8F01080A4AD2F800317BB110B5094951
:100A00001C688C4207D0D2F898310749074A002069
:100A10009847012010BD1883012010BD184670476B
:100A20008000002050D1C0AC948F01087C8F010859
:100A30000F4AD2F8003110B504461BB10D491868B1
:100A4000884208D0D2F898310B490C4A00209847C8
:100A50000023236010BDD3ED077A9FED097A67EE7E
:100A6000877AFCEEE77A17EE903A236010BD00BF5C
:100A70008000002050D1C0AC948F01087C8F010809
:100A800000007A4400B5114A83B0D2F800310190D9
:100A9000C3B10F491868884209D0D2F898310D497E
:100AA0000D4A00209847012003B05DF804FBDDEDFE
:100AB000017ADFED0A6AF8EE677A87EEA67A83EDAF
:100AC000077AF0E7184603B05DF804FB80000020C9
:100AD00050D1C0AC948F01087C8F010800007A448B
:100AE0000F4AD2F8003110B504461BB10D49186801
:100AF000884208D0D2F898310B490C4A0020984718
:100B00000023236010BDD3ED087A9FED097A67EECC
:100B1000877AFDEEE77A17EE903A236010BD00BFAA
:100B20008000002050D1C0AC948F01087C8F010858
:100B300000007A4400B5114A83B0D2F80031019028
:100B4000C3B10F491868884209D0D2F898310D49CD
:100B50000D4A00209847012003B05DF804FBDDED4D
:100B6000017ADFED0A6AF8EEE77A87EEA67A83ED7E
:100B7000087AF0E7184603B05DF804FB8000002017
:100B800050D1C0AC948F01087C8F010800007A44DA
:100B90000F4AD2F8003110B504461BB10D49186850
:100BA000884208D0D2F898310B490C4A0020984767
:100BB0000023236010BDD3ED097A9FED097A67EE1B
:100BC000877AFCEEE77A17EE903A236010BD00BFFB
:100BD0008000002050D1C0AC948F01087C8F0108A8
:100BE00000007A4400B5114A83B0D2F80031019078
:100BF000C3B10F491868884209D0D2F898310D491D
:100C00000D4A00209847012003B05DF804FBDDED9C
:100C1000017ADFED0A6AF8EE677A87EEA67A83ED4D
:100C2000097AF0E7184603B05DF804FB8000002065
:100C300050D1C0AC948F01087C8F010800007A4429
:100C40000E4AD2F8003110B504461BB10C491868A1
:100C5000884208D0D2F898310A490B4A00209847B8
:100C60000123236010BD9B7D002BF9D0A3F101036C
:100C7000B3FA83F35B095B00236010BD80000020A2
:100C800050D1C0AC948F01087C8F0108104A08B580
:100C9000D2F800318BB1012811D002280DD10D49B5
:100CA000186888424FF0010C0FD0D2F898310A49E9
:100CB0000A4A00209847012008BD002008BD0549C8
:100CC000186888424FF0000CEFD183F816C0F2E7A5
:100CD0008000002050D1C0AC948F01087C8F0108A7
:100CE00072B6BFF34F8FBFF36F8F054B93F8A031F0
:100CF00062B6BFF34F8FBFF36F8F0360704700BFC3
:100D00008000002072B6BFF34F8FBFF36F8F064B8A
:100D1000003818BF012083F8A00162B6BFF34F8FDF
:100D2000BFF36F8F012070478000002072B6BFF3C1
:100D30004F8FBFF36F8F0F4BD3F8A42132B1002038
:100D400062B6BFF34F8FBFF36F8F70479A680A493F
:100D500010B442F000424FF400748C62C3F8A40156
:100D60009A60012062B6BFF34F8FBFF36F8F5DF8BB
:100D7000044B7047800000200004004870B4436CAE
:100D8000066C056831682C6803F01C0304229A4045
:100D90000A420ED014F0040F0BD02B689B0603D42C
:100DA0002B6823F004032B60036B7260FBB170BCF3
:100DB000184702229A400A421BD014F0020F18D0A2
:100DC0002B68990606D42B68012123F00A032B60B7
:100DD00080F82510134B9D4296BF134BC3F8842314
:100DE0005A60C36A002280F82420002BDFD170BC37
:100DF000704708229A400A42F9D02207F7D52A689C
:100E0000416B22F00E022A60012202FA03F3002451
:100E10007360C26380F8244080F825200029E6D062
:100E200070BC0847800002400000024070B40224F9
:100E300080F825400024456CC4630468066C05F006
:100E40001C0C256825F001052560012505FA0CF527
:100E5000756063608368102B036B0BBFA260A16099
:100E6000E160E26053B1236843F00E03236023681E
:100E700043F001030020236070BC7047236823F017
:100E800004032360236843F00A032360EFE700BFF5
:100E9000F8B5894C002384F8A83194F80D32012B61
:100EA0000D46D4F8B41109D0B1F5827F74D1D8B20F
:100EB000D4F8B831002B6FD104286DD1002D6BD040
:100EC00092B2002A68D094F80C32012B64D094F8C6
:100ED0000D32D4F8B061C4F8E851042B1CBF0523CF
:100EE00084F80D3201210023C4F8103284F80C126A
:100EF000A4F8EE21A4F8F621C4E97F337368A4F8BE
:100F0000EC2123F4C043C4F8F051A4F8F421736039
:100F1000D4F8BC31D4F80802B3F5E06F3DD8D4F86A
:100F2000043299697368B1F5806F43F4805373603C
:100F300000F09F808369B3F5806F00F0868094F89D
:100F40000D325E4A5E49042B5E4B18BF13460363A5
:100F50005D4B43635D4B18BF0B4690F82410C36292
:100F6000B4F8F6310022012982639BB20BD090F8CD
:100F700025100127012980F82470CFB212D08023D8
:100F8000C36380F82420D4F81032002243F0100309
:100F9000C4F8103284F80C22F8BD736823F480532F
:100FA0007360CCE72A4606F10C01FFF73FFF0246CB
:100FB0000028E8D17368D4F8040243F00103736099
:100FC00090F824C0B4F8EE31BCF1010FC0E90B2257
:100FD000C0E90D229BB2D6D080F8247090F825701D
:100FE000012FCCD10A462946FFF720FF0028CAD19D
:100FF00033685B0603D4336843F040033360002357
:1010000084F80C32736843F020037360736843F014
:1010100002037360D4F8142294F8A831002BBBD1DA
:1010200041F287310BE072B694F8A83103B930BFB2
:1010300062B6BFF36F8F94F8A831002BACD1D4F80F
:1010400014329B1A8B42EED9F8BD736823F4805397
:101050007360B4F8F63113F0010F736816D123F4FE
:1010600000537360B4F8F631C3F34E03A4F8F631BD
:1010700065E7D207736814D423F480437360B4F82F
:10108000EE31C3F34E03A4F8EE3153E743F40053BB
:101090007360B4F8F631C3F34E030133A4F8F631AC
:1010A0004DE743F480437360B4F8EE31C3F34E036D
:1010B0000133A4F8EE313DE7800000203D15000823
:1010C000094000083915000841150008593F00087B
:1010D0002DE9F04F00233E4E4FF00F094FF0030A69
:1010E0004DE03C4FB84265D03B4FB84266D03B4FD5
:1010F000B84268D0DFF8E8B058450CBF4FF0040B99
:101100004FF0070B0BFA04F4A44513D1346824EA1A
:101110000E043460746824EA0E047460F46824EAEF
:101120000E04F460B46824EA0E04B460AC6824EAE7
:101130000804AC6004685D000AFA05F54FEAD30CB8
:101140002C4300EB8C0C046003F00704DCF820E077
:10115000A40009FA04F42EEA0404CCF820408468C0
:1011600024EA05048460446824EA02024260C268FA
:1011700022EA0502C260013331FA03F218D00122DB
:101180009A4012EA010EF6D023F0030505F18045DE
:1011900005F5803503F00304D5F808C0A40009FA6A
:1011A00004F8B0F1904F08EA0C0C9AD10024ABE798
:1011B000BDE8F08F012707FA04F4A5E74FF0020B12
:1011C0000BFA04F4A0E74FF0030B0BFA04F49BE7CF
:1011D000000401400004004800080048000C0048DA
:1011E00000100048002310B480F8423090F84120ED
:1011F000212A4FF0200118D1112280F841100263FA
:1012000090F84110046801F02801226843632829FE
:1012100014BF6FF0F2016FF042010A400023226018
:101220005DF8044B80F840307047122280F841107E
:10123000026390F84120016802F028020C684363C1
:10124000282A14BF6FF0F4026FF0440222400023FA
:101250000A605DF8044B80F840307047274A936875
:10126000D26813F00C0305D00C2B33D0042B3FD1E4
:1012700023487047214A1168090754BFD2F89410D7
:101280001168204A54BFC1F30321C1F3031102EBDB
:1012900081025069002BECD0184BDB6803F003038C
:1012A000022B23D0184A032B08BF1046134BD968D2
:1012B000DA68DB68C3F34163C2F30622C1F30211AB
:1012C000013300FB02F201315B00B2FBF1F2B2FB31
:1012D000F3F0704702F00302012ACBD0074BDB6822
:1012E00003F00303022B4FF00000DBD10448DDE7DD
:1012F000082B054818BF0020704700BF00100240AF
:101300000024F400004E010800127A0010B5FFF727
:10131000A5FF0B490B4A8B680B4CC3F30313134413
:1013200093F8443003F01F03D84020608B68C3F368
:1013300002231A4492F8543003F01F03D84010BD22
:1013400000100240004E01080000002010B5FFF719
:1013500085FF0B490B4A8B680B4CC3F303131344F3
:1013600093F8443003F01F03D84020608B68C3F328
:10137000C2231A4492F8543003F01F03D84010BD22
:1013800000100240004E01080000002021498B6D32
:10139000DB0082B01CD5204B1B6803F4C063B3F59F
:1013A000007F29D080282ED831D0A0F17002B2FA67
:1013B00082F2520919490B6823F0070313430B60AB
:1013C000086800F00700801A18BF012002B07047BB
:1013D0008B6D114A43F080538B658B6D03F0805306
:1013E0000193019B13688A6D03F4C06322F080525D
:1013F000B3F5007F8A65D5D1802806D9A0288CBF97
:1014000002220122D6E70322D4E70022D2E70222F9
:10141000D0E700BF001002400070004000200240F2
:10142000434A036830B4D468A40707D0D46804F0F2
:1014300003049C424AD0012030BC7047022B56D096
:10144000032B4DD0012BF6D112689207F3D5384CFF
:10145000E26822F0730213434268013A43EA02133E
:10146000E360334C334A236823F080632360D2F86F
:10147000145204E0D2F814325B1B022B3BD82368D1
:101480001B01F7D483681B02002936D12169C56886
:1014900021F0784121F4FE4143EAC5630B43236107
:1014A00023490B6843F080630B60D2F8144204E0D8
:1014B000D2F814321B1B022B1DD80B681B01F7D569
:1014C00082690B69134300200B61B5E7002CB2D091
:1014D000D3684268C3F3021301339342ABD1C0E730
:1014E0001468A403B3D412685203A4D5AFE71268FA
:1014F0005505A0D5ABE703209EE7012921690BD054
:1015000021F0C06121F4FE41194343695B08013BAE
:1015100041EA43612161C3E721F4C00121F4FE41A6
:101520000B4301694908013943EA41532361B7E795
:101530000010024080000020704700BF704700BFCD
:10154000836A19684A6822F003024A601A6E4FF0F3
:10155000010C42F010021A6683F85DC0704700BFAC
:10156000704700BF70B5114E114A3368A2FB0323C8
:101570009B09013BB3F1807F01D3012070BD4FF087
:10158000E0220C495361F02381F823300025072322
:101590000F28956104461361EFD801464FF0FF30E4
:1015A0000EF0D6F97460284670BD00BF0000002020
:1015B000D34D621000ED00E0F0B58D4B02689D68E0
:1015C000DE680446D00683B005F00C0506F003067D
:1015D00040F13481002D40F0FA80854B1B6899075B
:1015E00000F16681824B276A1A68120756BFD3F84A
:1015F00094301B681B0903F0F0039F4200F2E8815E
:101600007B4B1A6842F008021A601A6822F0F00256
:101610003A431A605A68E16922F47F4242EA0122A1
:101620005A60002D00F00B82FFF718FE704B9A688D
:10163000704BC2F3031213446F4A93F8443003F023
:101640001F0320FA03F350681360FFF78BFF002895
:1016500040F033812268D00700F1F48090071FD555
:101660000C2D00F0CD81E3686148002B00F08481EF
:10167000036843F480730360604BD3F8146205E0A1
:10168000D3F81412891B022900F24D810168490523
:10169000F6D54368216923F0F85343EA01634360B8
:1016A000160718D563695248002B00F01481D0F852
:1016B000943043F00103C0F89430504BD3F81462D7
:1016C00005E0D3F81412891B022900F22C81D0F80E
:1016D00094108907F5D550073ED5454B996DC90043
:1016E00000F14881996D41F0805199659B6D03F03F
:1016F00080530193019B0120414E3368DF0540F187
:1017000002813E4BA168012900F04781052900F0C4
:10171000AA81374ED6F8907027F00107C6F890706E
:10172000D6F8907027F00407C6F89070002940F0B2
:101730003B81D3F814C241F2883706E0D3F8141283
:10174000A1EB0C01B94200F2EE80D6F890108907A7
:10175000F4D4002840F06D81970618D5636A2449B7
:10176000002B00F05181D1F89820244B42F0010267
:10177000C1F89820D3F8140205E0D3F81422121A05
:10178000022A00F2D080D1F898209607F5D5A36AF6
:10179000DBB1022B00F075810C2D00F08D80144917
:1017A000164B0A6822F080720A60D3F8140205E032
:1017B000D3F81422121A022A00F2B5800A689201A4
:1017C000F6D4CA680F4B1340CB60002075E00C2D97
:1017D00000F09580A3690648002B00F0A7800168FF
:1017E000064B41F001010160D3F8147212E000BF12
:1017F00000100240004E0108000000208000002080
:1018000000700040FCFFEEFED3F81412C91B022941
:1018100000F2898001688907F6D5036843F0080360
:1018200003600368216A23F0F0030B4303604368FD
:10183000E16923F47F4343EA01234360D30722D5C0
:10184000082D3ED00C2D3AD06368B3F5803F7ED092
:10185000B3F5A02F00F0FA809548016821F480319B
:101860000160016821F480210160002B74D1914B4B
:10187000D3F8147204E0D3F81412C91B642952D8A7
:1018800001688903F7D497077FF50AAF042D7FF429
:10189000E7AE874B1B68580501D5E36863B18449FF
:1018A00020694B6823F0F85343EA00634B60F7E686
:1018B000A369002B7FF496AE012003B0F0BD032E88
:1018C000C2D17B4B1B689F037FF5C8AE6368002BBA
:1018D0007FF4C4AEF0E7D0F8943023F00103C0F8F1
:1018E0009430744BD3F8146204E0D3F81412891BBB
:1018F000022918D8D0F894108F07F6D4EBE6012E01
:101900007FF468AF69E6336843F480733360694BF2
:10191000D3F814723168C9053FF5F4AED3F8141248
:10192000C91B0229F6D9032003B0F0BD0168614B41
:1019300021F001010160D3F8147204E0D3F814120D
:10194000C91B0229EFD801688907F7D476E75849FF
:101950000B6843F480330B60564B5548D3F8147230
:1019600004E0D3F81412C91B6429DCD80168890388
:10197000F7D588E70020BFE6036823F4807303608F
:101980004C4BD3F8146204E0D3F81412891B0229DB
:10199000C9D801684F05F7D482E6454ED6F89010B5
:1019A00041F00101C6F89010D3F814C2404E41F244
:1019B000883705E0D3F81412A1EB0C01B942B2D874
:1019C000D6F890108907F5D500283FF4C5AE30E071
:1019D0003846FFF7DBFC00287FF46EAF344B1A6803
:1019E00042F008021A601A6822F0F0023A431A60C4
:1019F0005A68E16922F47F4242EA01225A6013E602
:101A0000022E7FF430AE44E7D1F89820294B22F023
:101A10000102C1F89820D3F8140205E0D3F814228B
:101A2000121A022A3FF67FAFD1F898209207F5D418
:101A3000ADE61F498B6D23F080538B658CE63846ED
:101A4000FFF7A4FC00283FF4EFAD35E703F1804336
:101A5000A3F53C33196841F480211960196841F4F9
:101A60008031196078E71249D1F8906046F0040699
:101A7000C1F89060D1F8906046F00106C1F890601E
:101A800092E70B4AE66AD36803F00301B1424BD0F8
:101A90000C2D3FF411AF06490B685F013FF50CAF09
:101AA0000A68044B22F080720A60D3F8140209E03D
:101AB0000010024080000020D3F81422121A022ADB
:101AC0003FF631AF0A689501F6D4C868354A02403E
:101AD000606B324342EA0022A06B42EAC062206B94
:101AE000013842EA0012D4E90F506C08013C40086A
:101AF000013842EA445242EA4062CA600A682A480F
:101B000042F080720A60CA6842F08072CA60D3F8FC
:101B1000141205E0D3F81422521A022A3FF603AF3A
:101B200002689401F6D550E6216B03F0700001398C
:101B3000B0EB011FACD1606B03F4FE41B1EB002FA1
:101B4000A6D1A06B03F07841B1EBC06FA0D1E16BDF
:101B50004908013903F4C000B0EB415F98D1216C12
:101B6000490803F0C0630139B3EB416F90D11368AA
:101B700098013FF52AAE11680C4B41F0807111605D
:101B8000D16841F08071D160D3F8140205E0D3F838
:101B90001412091A02293FF6C6AE11688901F6D55A
:101BA00013E600BF8C809D010010024080000020E1
:101BB000514AF8B5136803F007038B420BD2136840
:101BC00023F007030B431360136803F007038B42F2
:101BD00001D00120F8BD046814F0020E04F00103E6
:101BE00069D0464E8568B26802F0F002954204D989
:101BF000B26822F0F0022A43B260002B66D042683D
:101C0000032A5DD03D4B022A1B686BD0002A6ED19F
:101C10009E07DED5394D3A4EAB6823F003031343DC
:101C2000AB60D6F81472920041F2883C04E0D6F81A
:101C30001432DB1B634558D8AB6803F00C039342A6
:101C4000F5D1BEF1000F40D12B4A136803F0070312
:101C50008B4209D9136823F007030B431360136801
:101C600003F007038B42B4D1620706D5234AC1684B
:101C7000936823F4E0630B439360230707D51F4A5F
:101C80000169936823F4605343EAC1039360FFF74B
:101C9000E5FA1A491B4A89681B4CC1F303110A442F
:101CA000034692F84420606802F01F02D34023608C
:101CB000BDE8F84056E4002BC6D04268032AA1D103
:101CC0000E4B1B689B01A5D483E785680B4A93687C
:101CD00003F0F0039D42B7D2936823F0F0032B4347
:101CE0009360B1E79F0395D473E70320F8BD5D05CA
:101CF0007FF56FAF8EE700BF00200240001002406A
:101D000080000020004E0108000000200CB4F0B557
:101D1000ADB032AB06AE53F8042B059304460D4626
:101D20003046962112F014F89528C4BF1C4BCDF80C
:101D3000AA301C4B1C49D3F81472A1FB07311B4B72
:101D4000A3FB0723980B1A4BA3FB07234FEA931C13
:101D5000184B4FF47A7202FB1C77A3FB00E2520986
:101D6000042CC2EB0212A0EB8202A3FB0CE398BF8F
:101D7000114800974FEA531394BF005D3F20C3EB17
:101D800003130190CDE90256490DACEB83030B48D8
:101D900011F0B8FF2DB0BDE8F04002B0704700BFB1
:101DA0002E2E2E0080000020B17C219573B2E745D5
:101DB000D34D621089888888CC8F0108A88F0108CC
:101DC0000FB400B50F4A9BB01CAB92F8181253F831
:101DD000042B009321B91BB05DF804EB04B07047ED
:101DE000642101A811F0B4FF6328C8BF064B07485F
:101DF000C8BF199301A911F085FF1BB05DF804EB72
:101E000004B07047800000202E2E2E002497010879
:101E100072B6BFF34F8FBFF36F8F064B9A6840EADD
:101E20000201996062B6BFF34F8FBFF36F8F024814
:101E3000C6E700BF80000020D48F01082DE9F04FD5
:101E40002DED0E8B431EADF2944D212B23D8DFE8F0
:101E500013F02C0044005301C0018900220022002D
:101E60002200220022002200220022002200220062
:101E70002200220022002200220022002200220052
:101E80002200220022002200220022002200220042
:101E9000E601D301DB01014688480DF2944DBDEC0B
:101EA0000E8BBDE8F04F11F02DBF72B6BFF34F8F10
:101EB000BFF36F8F824B07939B6803F0800362B67A
:101EC000BFF34F8FBFF36F8F002B00F09E860DF294
:101ED000944DBDEC0E8BBDE8F08F794F07976422CF
:101EE000002107F5847011F09DFD72B6BFF34F8F8E
:101EF000BFF36F8F7B6801337B6062B6BFF34F8F98
:101F0000BFF36F8F6F4B4FF480529A610DF06AFDF3
:101F1000D7F80411F868D7E95B2331B1DFF8D4B101
:101F20000C68694DAC4200F06B82079B674AD3F89E
:101F30009831674900209847664811F0D1FE614BFF
:101F40004FF480529A620DF04DFD634811F0C8FEC7
:101F5000079A012382F884310DF2944DBDEC0E8B6B
:101F6000BDE8F08F72B6BFF34F8FBFF36F8F544B46
:101F700007939B6803F0800362B6BFF34F8FBFF3F4
:101F80006F8F002BA3D0012309934E4B4FF4805247
:101F90009A610DF027FD72B6BFF34F8FBFF36F8FBD
:101FA000079EB16821F00121B16062B6BFF34F8F87
:101FB000BFF36F8F49484A4DFFF702FFF468D6E937
:101FC0005B121CB12368AB4200F04981079B454A74
:101FD000D3F8983144490020984772B6BFF34F8F29
:101FE000BFF36F8F079B996841F08071996062B66B
:101FF000BFF34F8FBFF36F8F3848FFF7E1FE3B48C9
:1020000011F06EFE2F4C4FF48055A5620DF0EAFCE6
:10201000A5610DF0E7FC72B6BFF34F8FBFF36F8F72
:10202000079CA16821F00221A16062B6BFF34F8F27
:10203000BFF36F8F2948DFF89080FFF7C1FE099F3B
:10204000A346DBF86C31DBF80C60DBF80441DBF80D
:1020500070510893002F00F0EE800020CDE984003D
:1020600086901CB12368434500F02881079B174ADE
:10207000D3F898311649002098471D4811F030FEDA
:1020800072B6BFF34F8FBFF36F8F079B996841F014
:102090000071996062B6BFF34F8FBFF36F8F0F4827
:1020A000FFF78EFE074B4FF480529A620DF2944D6B
:1020B000BDEC0E8BBDE8F04F0DF094BC7C92010896
:1020C000800000200004004830D1C0ACF08F01082F
:1020D000948F01080890010830920108D48F0108FC
:1020E0000EB037137093010888930108909301088C
:1020F000909401082083B8ED72B6BFF34F8FBFF301
:102100006F8FB04B07939C6804F0800462B6BFF3F6
:102110004F8FBFF36F8F002C7FF4D9AE079DD5F89A
:10212000000108F0F3FEC5F80401002800F08D83DB
:1021300072B6BFF34F8FBFF36F8FA96841F00801EC
:10214000A96062B6BFF34F8FBFF36F8F9E48FFF752
:1021500037FED5F8043123B19C4A1968914200F04A
:10216000EF82079D9A4AD5F898319A4900209847FE
:1021700072B6BFF34F8FBFF36F8FA96841F08051E4
:1021800041F48011A96062B6BFF34F8FBFF36F8F28
:102190008D48FFF715FE904811F0A2FD8F4811F011
:1021A0009FFD72B6BFF34F8FBFF36F8F079B996888
:1021B00041F08451996062B6BFF34F8FBFF36F8FC8
:1021C0008148FFF7FDFD002C3FF481AE0023099309
:1021D000DBE672B6BFF34F8FBFF36F8F794B079378
:1021E0009B6803F0800362B6BFF34F8FBFF36F8F1E
:1021F000002B3FF46CAEE9E77948FFF7E1FD714B46
:10220000002283F8182262E66E4BD3E940100DF2EB
:10221000944DBDEC0E8BBDE8F04F08F00BBA694B46
:102220007048012283F818220DF2944DBDEC0E8BFC
:10223000BDE8F04FC4E5DBE95DA2CDE947774997FA
:1022400014B1236843451FD0079B614AD3F89831E6
:10225000604900209847644811F042FD10E704F1FE
:102260000D0300293FF4B9AEA0680BF02BFC002849
:102270003FF4B3AE637B0A2B00F0F7800DF092FBC6
:1022800000287FF49BAEA8E62169A3680B449D4219
:10229000616B81F0EC81079B0998D3F89831154662
:1022A0000E46524A4B499847B542D4D2079B504AF2
:1022B000D3F89831474900209847CCE7A3682269B2
:1022C0001344AB4206D9079B484AD3F89831414999
:1022D0009847D2E6237D052B01F21086DFE803F054
:1022E000102B03030310079A92F82032002B3FF4BF
:1022F000C4AED2F8983137493E4A01209847BCE62F
:10230000089A616C2B4630460DF0B6F800283FF471
:10231000B4AE304605F070FC00283FF4AEAE0123A9
:1023200023750DF03FFB00287FF48BAE099B002B3B
:102330007FF4A3AE8FE7DDF820A02A463046514651
:1023400005F0EEFC00283FF498AEA06D84AA51463B
:1023500005F016FBD4F808311BB104F16C0184A818
:102360009847E1688698244D268F51440AF02CFD49
:10237000638F05EB860686ED000A05EB83079A005E
:1023800093B1013D1D48AE184FF0FF3215F8013FE3
:1023900008215A4042F300030340013983EA520204
:1023A000F8D1B542F2D1D24305233A60237572B613
:1023B000BFF34F8FBFF36F8F079B996841F4007194
:1023C00067E600BF80000020D48F010830D1C0AC88
:1023D000F08F0108948F0108989201084C9301082E
:1023E0006892010854920108CC940108B89301083E
:1023F00014940108D0930108FC0100202083B8ED5B
:1024000091F84040002C40F05B81096D0DF034F8EC
:1024100000283FF491ADF86805F0EEFB002800F0CD
:1024200069860DF0BFFA002800F06186D7E95B12DB
:10243000F86805F075FC1090002800F05E86D7F86B
:102440006C31D7F804411193D7F874310E931CB155
:102450002368B04A93421BD0079BAF4AD3F8983108
:10246000AE4900209847AE4867E572B6BFF34F8F7C
:10247000BFF36F8F079B996841F48071996062B6D2
:10248000BFF34F8FBFF36F8FA648FFF799FCB9E5F5
:102490000E9B002B00F01981226B0E998B589AB17C
:1024A0000A44551E481E4FF0FF3210F8011F08263F
:1024B0004A4042F3000101EA0B01013E81EA520267
:1024C000F7D18542F1D1D243934240F0FE80628F32
:1024D0009300002A00F0338693484FF0FF32C5186E
:1024E00010F8011F08264A4042F3000101EA0B01DF
:1024F000013E81EA5202F7D18542F1D1D2433B44F9
:10250000D3F87C31934240F08D83204608F0FEFAE8
:1025100094F840608146002E40F080810DF5B67A37
:10252000C4F8F860C4F8FC60C4F800613146A42225
:10253000B9F10106504618BF012611F073FA606E1A
:1025400004F1F80511992A4605F01AFAC7F8605106
:1025500094F840E0D4F80831BEF1000F40F04F810C
:10256000226DC7F8682104F1C001C7F864111BB1DE
:102570002846984794F840E094F8FA30B4F9FCC043
:10258000002B40F0398194F80431002B00F0B88220
:10259000109B84F80431E3681493E36B0C93D4F834
:1025A00000311293BEF1000F40F02481A269238F05
:1025B0000E9907EB830393ED5FBAA36ACB5E159385
:1025C000E36A1693129B002B00F09B800C9BB3F8E0
:1025D0004430002B00F087800E9B109DCDF8649056
:1025E000134413930C9BCDF83CE004330993002370
:1025F000CDE91746CDE91AAC0A93B84612E0D8F8EF
:1026000098314A4A4A49002098470F9A002393423A
:1026100016D00A9B0C9A0133B2F844200A939BB25D
:102620009A425AD9099B53F8044F0993002CE6D0DB
:102630002368404A9342E2D163790F9A9342E8D1EA
:1026400000255022294633A884AFCDF88A50CDF812
:102650008E50CDF89250CDF89650CDF89A50CDF8D6
:102660009E50ADF8A25011F0DDF95022294647A83E
:1026700011F0D8F950222946384611F0D3F947AB6A
:10268000259333AB23931423ADF88830099B279708
:102690005A699B6A24B121682648814200F0ED8086
:1026A000D8F89831214A22490020984700250A9BF2
:1026B000002BAED10C9A9DF8A23082F8CA32A8E75E
:1026C000012C0CBF496D0021A0E6079B1A4AD3F8E4
:1026D0009831124900209847C5E6DDE91746DDE943
:1026E000199A47466DB1002E40F00B8384F8409054
:1026F000D7F80411F868D7E95B2300297FF410AC00
:1027000013E4079B0D4AD3F89831044900209847F9
:10271000A9E600BF30D1C0ACF08F0108948F01084A
:10272000F4910108D48F0108FB010020EC9001080E
:1027300008910108E1AFA10F9C900108D891010810
:102740009A681969079D0A44C5F870215B6BC5F842
:10275000783172B6BFF34F8FBFF36F8FA96841F026
:102760001001A96062B6BFF34F8FBFF36F8FBC48F3
:10277000FFF726FBD5F8700111F08EFAC5F86C0151
:10278000002800F0798472B6BFF34F8FBFF36F8FCC
:10279000079DA96841F02001A96062B6BFF34F8F81
:1027A000BFF36F8FAE48FFF70BFBD5F8780111F040
:1027B00073FAC5F87401002800F0778472B6BFF38D
:1027C0004F8FBFF36F8F079DA96841F04001A9604B
:1027D00062B6BFF34F8FBFF36F8FA148FFF7F0FAD8
:1027E00072B6BFF34F8FBFF36F8FA9682B4641F0CE
:1027F0008001DFE4226ADAE6A4F806C1C8E6BEF189
:10280000010F40F00882626DC7F8682104F1DC0115
:10281000C7F86411002B7FF4ABAEADE64FF00008B3
:102820000DF5B67AC4F8F880C4F8FC80C4F80081CD
:10283000A4224146504611F0F5F8012E04F1F805A6
:1028400040F0E681A06E109E7CE672B6BFF34F8F1B
:10285000BFF36F8F079B996841F0805141F40021CD
:10286000996062B6BFF34F8FBFF36F8F7C48FFF75D
:10287000A7FA7C4811F034FA90E414990A441199AB
:102880000A4416990B440E990B44A16E1144E1665B
:10289000616F1144A167D4F880100A44C4F8842001
:1028A0002279022A00F0D1816279002A00F0C281E7
:1028B00028220021002629A811F0B4F833461299E5
:1028C000009629AA20460AF07DFC238F1D46002B86
:1028D00000F01386109A15990D921B9ADFED62AAEB
:1028E0009FED62AADFED668ADFED619A9FED619A46
:1028F0000B97521AB14608921F46C2462379B5007B
:10290000032B01F20A83DFE803F083BF2A02637915
:10291000002B00F02E81617F002900F0EC8101394D
:1029200089B204F13E0EDFED567A0EEB410104F15F
:102930003C0304F11902A44633F8020B814508D385
:102940001888484505D91078139C04EB8000D0ED19
:10295000007A994202F10102EED164460CE1A37FB4
:10296000BDF92020013BDBB2042B08EE102A97BFF3
:10297000414ADFED427A02EB8303D3ED1C7AB8EED5
:10298000C88AB0EE000AC8EE270AF1EE600A0EF01F
:10299000F7FFD4F89430628F617F2B4493ED007A77
:1029A000637968EE2A7A4A4477EE8A7A20EE077ACB
:1029B00092B2002B00F0A780002900F0978104F16B
:1029C0003C030139CDE91C631FFA81F804F13E0E86
:1029D000DFED2B5A0EEB4808184604F1190C30F8BD
:1029E000026BB24209D30688964206D99CF8006071
:1029F000139B03EB8606D6ED005A80450CF1010CC3
:102A0000EDD1DDE91C6365EEA55AD4F8A00089E09C
:102A1000D4ED037AE16EA06F0D4495ED007A720952
:102A200009F01F0950F822300125B4EEE77A01368B
:102A300005FA09F5F1EE10FA1FFA86F9CCBF2B431F
:102A4000AB43B94540F822303D46FFF457AF0D9BEC
:102A50000B9FD0468A46002B40F00C81109D26E645
:102A6000D48F0108C8920108583934BB8E407C3F8E
:102A7000F902154FC2F38E4D004E01080000AC4222
:102A800000000000FFFF7F7FDAED877AB8EE678AEB
:102A900021AF89EE880A0FF07FF8238D626B1399BE
:102AA00013FB09F312FA83F30DF1800862792046D3
:102AB00068EE007AB3EE087A67EE877AB7EE006ABE
:102AC00086EE277A08EE103A67EE097AF6EE006A8B
:102AD00067EEA67AB8EEC88AD4ED04BACDF80080C5
:102AE00028EE278A3B46B0EE480A0AF05DFD0D90BD
:102AF000002840F0F181F0EE687AE16E278F8AE7D6
:102B0000A4F806C145E5139BD3ED005A65EEA55A1E
:102B1000002900F0F380D4F8A000013904F13C034F
:102B200004F13E0E89B20EEB4101F0EE686A33F813
:102B300002CB624505D3B3F800C0944588BFD0ED01
:102B4000006A994200F10400F1D126EEA66A67EE10
:102B5000076A67EEA57A66EE866A94ED156AE16EFD
:102B600076EEA76AF1EEE67A67EE867A77EE877AF6
:102B700051E7139BD3ED007AB4F85A20B4F858000B
:102B8000E16E13189BB299453CD3A7EB030C1FFAD7
:102B90008CFCE14536D2B4F85EC094440132A9EB16
:102BA00003034A449BB292B28444002800F0CA82D4
:102BB00000EB020E1FED4E7A01EB830301EB820264
:102BC00001EB8E0EB445DCBFD3ED006A37EE267AFA
:102BD000F2EC016A964537EE267A03F10403F1D14F
:102BE000400080B2002800F0AD8206EE900AF8EEB8
:102BF000666A87EE266A94ED157A67EE877A77EE35
:102C0000867A08E75FED617A05E70124FFF786BA67
:102C1000109E404696E40021C7E95911002B7FF42D
:102C2000A7ACA9E4079BA44AD3F89831A349002094
:102C3000984718E4D4F8A8201A44C4F8AC20D4F873
:102C4000B4201344C4F8B83032E6D4F890201A44C3
:102C5000C4F89420D4F89C201A44C4F8A020D4F8D6
:102C6000C0201A44C4F8C420D4F8CC201A44C4F8B4
:102C7000D02019E6D4F884301E93012DB4F88830A2
:102C80001F9340F23F8400231C936FF040490123BF
:102C9000691E2246AE461CE05C0903F01F0550F891
:102CA0002440EC40E40740F1048103EB09040AEB03
:102CB000840494ED007AD4ED017AB4EEE77A5C1CDA
:102CC000F1EE10FAA4B2C0F2868123469E4540F28E
:102CD00003825C1E650904F01F0450F8255025FA94
:102CE00004F4E507D8D401339BB2EFE79FED746A93
:102CF000F0EE465A2BE7DFED727A3DE79FED706A02
:102D000025E7DDF83080CDF82090B8F8C892CDF8EE
:102D100024A098F80470A246B9F1000F2CD008F155
:102D2000480600224946304609F0F8FFB9F1010F84
:102D300000F06C84002509F1FF3B28462C462B4609
:102D400006EB0312D2ED036AD2ED077A92ED006A28
:102D500092ED047AF4EE676AF1EE10FA37EE467AF5
:102D6000C8BFF0EE667AB4EEE77A0134F1EE10FAFD
:102D7000A4B244D4272D33D9089A98F8CA62002304
:102D8000A8F8C8328AF84020079A82F85831079D7F
:102D90009AF804214B4BBAF8061185F85A21002401
:102DA0004FF48052A5F85C1185F859618AF8044106
:102DB000AAF806419A620CF015FE434895F858119E
:102DC000FEF7FEFF95F85831002B40F099813F48FF
:102DD000FEF7F6FF079A002382F88431FFF777B8F1
:102DE000211A84AB89B203EB05130029C4D0324603
:102DF00009F042FF0028BFD00135ADB220465C4546
:102E000023469DD3484580F00684272DB4D8A9EBEE
:102E1000000984AC1FFA89F904EB051332464946D0
:102E200009F02AFF0028A7D06E1C012FB6B204D1EA
:102E30003A463146204609F071FF142E28BF142669
:102E4000099B0A2EA3F8A060334628BF0A23DAB2F2
:102E500009980021256840F8045B0131A568C56424
:102E60008DB2B54204F11004F4D3002B03F1FF340A
:102E70004FF00003A8F8C832089B98F8CA628AF895
:102E80004030079B124883F85821A4B2099B04F1F3
:102E900001044FEA840408BF04241946224683F83B
:102EA000A26010F0EBFE22466FA90A4810F0E6FE81
:102EB0006DE702339BB209E7C4900108948F0108C3
:102EC0000000000000040048C09101083C96010881
:102ED00088010020B0010020A27FA3791C92228DDE
:102EE0001D92002B00F03881012B00F03281DAF8BE
:102EF0009831C64AC6499FEDC7CA0020984798ED49
:102F000000DADDE91C81404607F006FFB5EEC08A15
:102F1000F1EE10FAD7ED00DA7FF7EDADB5EEC0DADD
:102F2000F1EE10FA7FF7E7ADF7EE000A0FF0C4F903
:102F3000F7EE000AF0EE40CAB0EE6D0A0FF0BCF9F1
:102F4000B0EE40EAB0EE6C0A0EF0EAFCF2EE047A63
:102F5000F0EE40CAB0EE4D0A6CEEA7CA0EF0E0FCEF
:102F600008F1FF33DBB2042B94BFAB4ADFEDA9DAE3
:102F7000F3EE047A20EE27DA98BF02EB8303B0EE7B
:102F80004E0A98BFD3ED17DA0EF0CAFCF0EE407A85
:102F9000B0EE480AB0EE678A0EF0C2FCF2EE046AA8
:102FA00068EE267A2CEE267A7CEE8DCA77EEAD7A24
:102FB00027EE007A77EEAC7AF3EE040A77EEC77A62
:102FC000B0EE660A77EEAB7AC7EEA00A0EF0D8FC38
:102FD000F0EE407A91E51D46002623466409AC4692
:102FE0000B960894089C0B9EA500002E7FF46EAEF5
:102FF0008B42BFF46BAE455903F01F06F54015F048
:1030000001053FF463AE0AEB830696ED007A0AEB06
:103010008C06D6ED007AB4EEE77AF1EE10FA0BDD0D
:103020005D1C9C46C5F34A130893089C0B9EABB2EB
:10303000A500002EDCD049E618D50CF10106740974
:1030400006F01F061D9650F824601D9CE64016F001
:10305000010628D01F9D1C9CA54276D91E9D0B966B
:1030600025F814C0651CACB21C94BBE75C1CA3B271
:10307000C4F34A140894B5E772B6BFF34F8FBFF399
:103080006F8F079B996841F08151996062B6BFF3D9
:103090004F8FBFF36F8F6148FEF792FE604810F0CC
:1030A0001FFEFFF77BB80B959CE772B6BFF34F8FFF
:1030B000BFF36F8F079B996841F08251996062B6A8
:1030C000BFF34F8FBFF36F8F5448FEF779FE55481B
:1030D00010F006FEFFF762B80D9B1446002B3ED1A0
:1030E0000D98D8F89831504A50499847B6E450485E
:1030F000FEF723BF4F48FEF720BF4F48FEF71DBF26
:103100004E48FEF75DFE079F97F85831002B3FF4BD
:103110005EAE4B4D9FED4B8A4B4EF5EC017A67EE60
:10312000887A3046FCEEE77A013417EE901AFEF703
:1031300047FE97F85821E3B29A42EED847E61A467E
:10314000FFF7DDB99FED336A55E50B9C0D940B96A7
:1031500048E7B0EE00CAD2E6B1EE00CACFE61C9B4B
:10316000158F142B28BF14230893D8ED877A9FED71
:10317000370AB8EE678A80EE080A0EF00DFD47ABFD
:10318000049333AB039314230293238D01932946B5
:10319000089DB4F93430009368EE007AB3EE087AF3
:1031A00067EE877AF7EE006A86EEA77A2B461E9ABC
:1031B0005046DFED277A67EE277AB6EE000A27EE53
:1031C000800A07F019FD1C9BADF89050ADF898509F
:1031D000ADF8A050002B00F0E68021AA47AB0D927D
:1031E00020AACDF87080DFED0BAA9FED1AAADFEDC3
:1031F0001A9A9FED1A9ADFED1A8ADDF854800B9225
:1032000033AE012599461E974BE000BF249101087B
:103210003C91010800000000004E0108D48F010815
:10322000F8920108209301087091010808910108A3
:103230005C900108389001087C90010824920108F4
:103240008801002000007A4428920108F902154FF5
:10325000C2F38E4D053C023CB0597B3FA54A943BDE
:103260000DFB863FDBB2032B00F28D80A84A02EBF8
:103270008303D3ED217AD3ED256A16ED017A089AFE
:103280006BEE277AABB277EEA67A9A4277EE677A40
:1032900046ED017A40F2848001350437BAF1000F1F
:1032A0007ED0F6EC01BA0B9BB9EC018A62791399D6
:1032B0000093B0EE6B0A0D9B20460AF075F982462A
:1032C00098B9A37F18F1190F03F1FF33CADBB8F1E6
:1032D0002C0F3DDCDBB2032B5DD88D4A02EB830360
:1032E000D3ED297AD3ED2D6AC7E7A27FA3791D928A
:1032F000228D1F92002B00F0FD80012B00F0F78043
:103300001C9B844AD3F8983183499FED84CA0020DE
:1033100098470B9B1F991D98D3ED00DA07F0FCFC32
:103320000D9BF5EEC0BAF1EE10FA93ED00DA2FDD49
:10333000B5EEC08AF1EE10FA05DDF5EEC0DAF1EE79
:1033400010FA00F30981DFED757AC7ED007AB8E76E
:10335000032B00F2DC85DFE803F0110C0702DFED40
:10336000706ADFED707A88E7DFED6F6ADFED6F7A04
:1033700083E7DFED6F6ADFED6F7A7EE7DFED6E6A80
:10338000DFED6E7A79E7F0EE496AF0EE687A74E77D
:10339000F0EE6A7AD9E7F0EE4A6AF0EE697A6CE705
:1033A0001E9FDDF870802379032B00F02A81002115
:1033B0000A460B46208F411A052940F2A780A16FCB
:1033C000520951F8222003F01F01CA4012F00102F5
:1033D00023D0E26E9FED517A02F10C05990005EBC6
:1033E000830502EB8300F0EC017A854237EE277A01
:1033F000F9D1033302EB8303DFED487A18320A4434
:10340000F3EC016A9A4277EEA67AF9D1B4EEE77A44
:10341000F1EE10FAACBF01220022089B8DF8A22029
:10342000002B3FF41BAB089B0C9AD7ED007A0B9452
:10343000013B9BB234AD05EB830385AE0D93DDF804
:10344000CCE04798B2F8C8323D4FDFED348A9FEDAB
:103450003D8A08960DF5907914461CE0D8F898310D
:103460009847B4F8C83218EE102A03F1050C04EBA3
:103470000C1C0133CCF804200D9A9BB29542A4F8A1
:10348000C8323FF4EBAA089A55F804EBF2EC017A43
:1034900059F8040B0892272B2B4A03F1050C04EB77
:1034A00003111CD80B9EC1F848E0D6F800E0C864B0
:1034B00004EB0C1ABE452549CAED007A4FF0000016
:1034C000CCD10B9A927F013AD2B2042A9BBF104909
:1034D00001EB820218EE902AD2F8C420C7E7D8F890
:1034E00098311B4A1B4900209847FFF7DFB8B0EE20
:1034F00000CA0EE7B1EE00CA0BE7D4F88430D4F866
:103500006CA01E93002308931C932EE6002284E7F0
:10351000004E0108249101083C91010800000000C0
:10352000B6DF333CAB61E43E087D003C2409083F34
:103530001EB0A03C2A99FE3E61FE083CE6BF0C3F4F
:10354000E1AFA10F0AD7233DEC90010808910108D3
:1035500088910108A0910108F7EE000A0EF0ACFE78
:10356000F7EE000AF0EE40CAB0EE4D0A0EF0A4FEEF
:10357000B0EE40EAB0EE6C0A0EF0D2F9F2EE047A48
:10358000F0EE40CAB0EE480A6CEEA7CA0EF0C8F9D9
:10359000B0EE408AB0EE6D0A0EF0C2F91D9B013B01
:1035A000DBB2042B94BF774ADFED77DAB3EE04DAAF
:1035B00098BF02EB830328EE0D8A20EE0DDAB0EE01
:1035C0004E0A98BFD3ED17DA0EF0AAF9F0EE407A62
:1035D000B0EE6B0AF0EE67BA0EF0A2F9F2EE046AF2
:1035E0002BEEA67A78EE4D7A37EE2D7A2CEE26CA9F
:1035F00077EEC77A2CEE00CA77EE8C7A77EEEC7A0B
:10360000A3E6B4F85C301A465900D3E684AC002532
:103610002346284602E4012F1AD0142D2E46099B7A
:1036200028BF14260A2EA3F8A060334628BF0A2319
:10363000DAB20DB184AC0BE4089B98F8CA62A8F822
:10364000C8528AF84030079B83F85851FFF79FBB58
:10365000002D3FF491AB84AC29463A46204609F050
:103660005DFB142D28BF14252E46FFF7E9BB8A42C7
:10367000FEF41CAE237D052B00F23784DFE813F047
:1036800006004B011601A9013E001700089A616C63
:103690002B4630460BF0F0FE00283EF4DCAD304601
:1036A00004F0AAFA00287EF43AAEFEF7D4BD9BF8E7
:1036B00020324BB1DBF89831344A35490120984724
:1036C000237D052B7EF42DAE5046226B811892B1DE
:1036D000441E30484D1E4FF0FF3214F8013F0826BB
:1036E0005A4042F300030340013E83EA5202F8D1FC
:1036F000AC42F2D1D2430A60FEF759BE08992A467D
:10370000304604F00DFB0C9000283EF4A4AD94F874
:103710004030002B40F0E281606E089947AA04F027
:103720002FF9D4F8083143B194F84020002A40F032
:10373000DA8104F1C00147A89847E2681392E26B6E
:1037400094F840301146499A0B929C46002B40F069
:10375000C381A36953440F93B1F844300A46E16A28
:103760001491002B00F08D81111D0020CDE91A4726
:1037700018961995E1460E46CDF848A0054617461D
:1037800017E000BF004E010800000000509401083F
:10379000948F01082083B8EDDBF89831A94AAA4933
:1037A00000209847B7F844300135AAB2934240F25E
:1037B0005F8156F8042F0A92002AEDD01268A349BF
:1037C0008A42E9D10A9A1279022AEDD10A9A92F82C
:1037D00005A0D145E8D17369139A0A981499D0F8D5
:1037E000C040D0F8CCC00E941344089A1344B26A77
:1037F00001EB020E826ED0F890101A44C266426F3E
:103800001A448267D0F880201344129AC0F884309A
:103810007244D0F89C301144C0F89410014613440F
:10382000C0F8A03010190B7EC1F8C40002EB0C04E4
:10383000C1F8D0400D93B9F1000F00F076810D9BD7
:10384000002B40F03B830A9C94F866A028228AF063
:10385000010A002184A810F0E5F80B99CDF800A02A
:1038600084AA0023204609F0ADFCBAF1000F40F015
:10387000D0819BF82032012B05D9DBF89831744AAE
:103880007149022098470A9B597929B90A9B93F8F4
:103890006730002B40F07A810A9B1B79022B00F0E5
:1038A00075810022B7F844300C927DE708992A46CA
:1038B000304604F035FA00283EF4CDACE06D0899AE
:1038C00047AA04F05DF8D4F808311BB104F188016F
:1038D00047A898470899A369E26849980A4453445D
:1038E000216D09F0E5FA00283EF4B5AC594B226889
:1038F0009A4200F0C482DBF89831574A57490020B9
:103900009847E06B07F032F9002840F088800523E3
:1039100050462375D9E608992A46304604F000FA45
:1039200000283EF498ACA06D089947AA04F028F846
:10393000D4F808311BB104F16C0147A89847089BE3
:10394000E168DFF820A149981944238F0AEB830925
:1039500009F03AFA638F89ED000A9A000AEB8309AD
:10396000A3B10AF1FF3C3E480CEB020E4FF0FF32D0
:103970001CF8013F08215A4042F30003034001397B
:1039800083EA5202F8D1F445F2D1D243C9F80020BB
:103990002368DFF8C0904B4500F0AB80DBF898312E
:1039A0002D4A2E490020984723684B457EF44CACA5
:1039B000636D002B3EF44FAC089AE16C2B46304609
:1039C0000BF000FE00283EF446AC03232375FEF7FF
:1039D000A8BC08992A46304604F0A2F900283EF413
:1039E0003AAC206E089947AA03F0CAFFD4F8083110
:1039F0001BB104F1A40147A898470899236AE2681B
:103A000049980A445344616D09F052FA00283EF483
:103A100022ACE06B07F0AAF8002800F0278294F8A7
:103A20004030002B40F00682216D089A2B4630462C
:103A30000BF0C8FD00283EF40EAC04232375FEF7FE
:103A400070BC00BFEC90010808910108E1AFA10F24
:103A50003894010830D1C0ACF08F0108948F010870
:103A60002083B8EDFC01002000000000ACC5273722
:103A7000DDE9195494F84030189EDDF848A01B9FEA
:103A80009C46634623440C9A83F84120204607F065
:103A90003DF8221892F841200AB984F8400094F8C1
:103AA000413023B194F84230002B40F0C88194F8A3
:103AB0004030002B34D1216D089A2B4630460BF054
:103AC000DBFC00283EF4C7AB304604F095F8002834
:103AD0007FF4F6ADFEF7BFBB236A3BE6012B0CBFBC
:103AE000A06E002019E6012A0CBF04F1DC010021C0
:103AF00021E6236D002B3FF45BAF089AA16C2B46A7
:103B000030460BF0B9FC00283EF4A5AB304604F07B
:103B100073F800283EF49FAB02232375FEF701BC27
:103B2000012B0CBF616D0021C6E70B46D1F8A81030
:103B30001144C3F8AC10D3F8B4100A44C3F8B82049
:103B40000D9B63BB0A9B93F867A0BAF1000F7FF44B
:103B50007AAE2822514684A80FF064FFDDE90A41BD
:103B6000012384AA2046CDF800A009F02BFBB4F86D
:103B7000BC20D4F8B80084A9920010F07FF801238B
:103B800084F867306379002B7FF486AE0A9B93F844
:103B90006630002B3FF485AEB7F8443004E60A9B4C
:103BA0001A8F83F86790002A00F06E810E99F44412
:103BB00071440CEB820E71454FEA820203DA114424
:103BC0008C45C0F2888100210D920FF02BFF0D9AD9
:103BD000204600210FF026FF0A9A002382F8663063
:103BE00013760123A2F86430BAF1000FAAD00A9C20
:103BF00094F866A0282200218AF0010A84A80FF018
:103C000011FF0B99CDF800A084AA0023204609F0EB
:103C1000D9FA0A98417900225BABC3E90022C3E9D3
:103C20000222427F002900F00081A2B10A9C501EAE
:103C300004F1190C1CFA80F09A4604F1180C9E4607
:103C40001CF8014F0F9B03EB8404604524684AF87D
:103C5000044BF5D173460A98048FB0F864E00E94D3
:103C6000002C00F022810446C16ED4F8D040D0F878
:103C7000C4000D940E9CDDF834A0159100EB840473
:103C8000119484460C46109394ED007ADCED007A92
:103C9000119B77EE877AECEC017AF4EC017A9AEDDD
:103CA000007A67EEA77A9C4577EE877AEAEC017A8C
:103CB000EAD1BEF1010F109B40F2A38007EE90EA1B
:103CC0000EF1FF3C1FFA8CFCF8EE676A07EE90CA13
:103CD000F8EE677A0A9CDDF834A0D4F8944010948A
:103CE00086EEA76AA446159C0D93119BB0EC017A51
:103CF000C7EE267A8342ECEC017AFAEC015A27EE01
:103D0000A77AC5EEA67A77EEC77AF0EEE77A67EE85
:103D1000867AB1EEE77AA4EC017AE6D10D9B0A9897
:103D2000448F1194D0F8A000002A6AD00D900A9810
:103D30001FEDB35A5FEDB35A1C95013A92B29A4601
:103D400000F13E0303EB420315930B1D00F13C0C05
:103D5000179307E00D9B04330D93159B63450AF100
:103D6000040A5ED03CF8025F119B0E9AEB1A9BB2DC
:103D70009A42EFD33CF8020C119C021B92B29A4279
:103D800080F09080241A013B2344179CDAED007ADE
:103D90009FED687A12FA83F304EB83031693109B6A
:103DA00001EB820467EEA76A03EB8202169BF4EC38
:103DB000017AB2EC016A67EEA77AF0EEC64A77EEB6
:103DC000E67AF5EEC07AF1EE10FAF4EEE54AD8BFE5
:103DD000F0EE457AF1EE10FA05DDF1EEE74AC4EEB9
:103DE000867A37EE277AA342E1D12B1A9BB207EEEF
:103DF000903AF8EE677A0D9BC7EE276AC3ED006A2A
:103E0000A8E70A9B59790A9A938AA3EB0E03B3FA9F
:103E100083F35B0982F866300EF10103A2F8643087
:103E200033E50A9B1C9D5979EDE70F9A12681A60D9
:103E3000012210E7012B0CBF616D0021F5E53E4B1F
:103E4000226805219A42217527D0DBF898313B4A38
:103E50003B4900209847002383F0010384F8403059
:103E6000A36ABDF920212AF8032029E4052323753C
:103E7000A36ABDF920212AF80320504625E4636D8A
:103E8000002B7FF499AD3CE51A4683F8669083F8E1
:103E900018900123A2F8643054E6236D003B18BF4C
:103EA0000123D9E79FED237A9FE7BEF1010FAAD93D
:103EB0000A99D1F894001090C96E30E70A9B1A8FC6
:103EC000002A7FF473AE194683F866201A76012320
:103ED000A1F864308BE623460244002140F8041B1D
:103EE000824243F8041BF9D176E6079B154AD3F8C2
:103EF0009831134900209847FEF7ADB9079B114A46
:103F0000D3F898310E4900209847FEF7B6B8DFED98
:103F10000E6ADFED0E7AFFF7B0B9DAF898310C4A85
:103F20000C49002098470023DFED027A0D93FEF73D
:103F3000E4BD00BF0000000030D1C0ACF08F01082C
:103F4000948F0108F4930108AA7A1E3AF964043F99
:103F5000549101080891010838B52A4A0368D2F83B
:103F600014521B689B061BD4846A2368A268586895
:103F7000616820F0200058609AB15868B1F5827FDE
:103F800020F00100586022D02946204609F0E4FBC9
:103F9000B0B901230022A4F8462084F85D30236ED6
:103FA00038BD5A68B1F5827F0CBF22F0030222F0BF
:103FB00001025A602946204609F0CEFB0028E8D0CD
:103FC000236E43F02003236620232366E1E7B2F546
:103FD000004F12D11A6822F0400229461A6020468A
:103FE00009F0BAFB0028EBD12A464FF4C061204605
:103FF00009F052FB0028CCD0E2E7B2F5806FE9D09F
:10400000C2E700BF80000020F8B51C4D0368D5F85A
:1040100014721B68846A9B062CD42668736823F08C
:10402000200373603A464FF4C051204609F034FB38
:1040300058B93946204609F08FFB30B93A464FF45B
:10404000C061204609F028FB38B1236E43F02003FD
:104050002366236E43F020032366736823F0030373
:10406000736000220123E287A4F8462084F85D30C3
:10407000236E13B9012385F8A831F8BD8000002014
:10408000BFF34F8F0549064BCA6802F4E062134341
:10409000CB60BFF34F8F00BFFDE700BF00ED00E036
:1040A0000400FA0510B590F84120104C10494FF06B
:1040B000000C02F0280284F821C2282A4FF6FF7C67
:1040C000A1F808C00FD1016890F841200A6822F0D9
:1040D000FC020A6090F84030012B04D0022109F064
:1040E00091FB00B910BDFFF7CBFF00BF800000209F
:1040F000000000201A4B10B50446406AC01A83B273
:10410000022B25D0042B27D0164B93F82132033BEA
:10411000012B04D82268536843F40043536094F899
:10412000413003F02803282B10D1226894F8413045
:10413000136823F0FC03136094F84030012B05D082
:104140000421204609F05EFB00B910BDFFF798FF7F
:10415000184609F0AFFBD7E780B209F0ABFBD3E715
:10416000A40200208000002008B50A4B01229A72A8
:1041700090F84130202B01D0FFF782FF02680649FA
:10418000282380F841301368416343F0B80313607B
:1041900008BD00BF00000020614E000810B40023DD
:1041A0002022174CC4624363036380F8412080F8E7
:1041B00042304B07026811D5436A526A1A70436A4B
:1041C000028D013343624AB1438D013B9BB243856B
:1041D000436C013A43F0040302854364036890F89A
:1041E000412090F841201A68102422F0FE0200219C
:1041F0001A60DC615DF8044B80F84010B4E700BF42
:104200000000FFFF08B5836A9A6B0AB10021916331
:10421000DA6B0AB10021916393F84120602A4FF0D4
:10422000000208D01A63596C83F84020042900D199
:1042300008BDFFF725FF202183F8411083F84020B7
:104240001A6308BDFEE700BFFEE700BFFEE700BF40
:10425000FEE700BFFEE700BF704700BF704700BF2A
:10426000704700BF034AD2F814320133C2F8143247
:10427000704700BF800000200C4B0D49D3F8282266
:104280004FF480104861D168490503D4012283F8B6
:1042900049227047D168C9B261F49061D1600120B0
:1042A000012283F84C0283F84922704780000020E5
:1042B00000040140034B5A69120744BF08225A61A7
:1042C000704700BF000401400148FCF757BD00BF24
:1042D000D00200200148FCF751BD00BF18030020A8
:1042E0000148FCF74BBD00BF600300200148FCF70C
:1042F00045BD00BFA8030020084810B4D0F87033B3
:10430000D0F8A44399691A682CB1234600F55C7073
:104310005DF8044B18475DF8044B7047800000209F
:10432000034B5A69120544BF4FF400625A6170474B
:104330000004014010B51A4C1A4AD4F828324FF440
:10434000802151619A68D20402D5DA68D00509D477
:104350009A68910402D5DA68920513D4012384F88F
:10436000493210BDDA68D2B262F4C0720121DA605B
:1043700084F8C41309F066FB80B9D4F8283284F8B5
:10438000C403E5E7DA68D2B262F42072DA60012190
:10439000012384F8C51384F8493210BDFFF770FE7D
:1043A0008000002000040140034AD2F8883043F422
:1043B0007003C2F88830704700ED00E090F82520C7
:1043C000022A03D00422C263012070470168426CB4
:1043D00010B50C6824F001040C600C6824F00E0485
:1043E0000C6002F01C02046C012101FA02F262600E
:1043F000826B80F82510002480F8244002B1904799
:10440000002010BD70B5584D95F821C20CF0FD0C80
:10441000BCF1010F82B0044645D02B6843F0010384
:104420002B6094F8413003F02803282B39D12368FE
:1044300094F841201A6822F0FA021A6094F8402099
:10444000012A2ED094F8412001212A2A84F8401014
:1044500068D029202021002284F8410084F84210ED
:1044600062645A684148042122F400425A6061851E
:104470004FF08072618DE2629D699A6921853C49A5
:104480006163D103606203D52A0744BF0822DA6161
:10449000002284F840201A6842F0FA021A6002B042
:1044A00070BDFFF7EDFD032385F821320023314E67
:1044B0000193D5F8C83330894BB3B5F8CC1361B349
:1044C00001EB410103EB810102E00C3399421ED064
:1044D0001A888242F9D15B6803B301A89847019A10
:1044E0003089110EC2F3074EC2F307235FFA82FC34
:1044F00085F826324FF6FF73984285F8241285F826
:1045000025E285F827C28CD00130308189E7EE237F
:104510004FF0000C9E461946EAE78C46EE239E4675
:104520001946E5E794F841101A6801F02801282996
:1045300014BF6FF0F4016FF044010A401A601A686A
:10454000100486D51A68E06B22F400421A60002835
:104550003FF47FAF084B8363FFF730FF10B1E06B90
:10456000836B9847236874E780000020A402002032
:10457000614E0008000000200542000801680B6839
:10458000002280F842205A040CD50B6823F48043A3
:104590000B6090F84130292B0ED090F841302A2B37
:1045A00020D070471B04F4D50B6823F400430B6044
:1045B00090F84130292BF0D12822212380F8412086
:1045C000036390F841300A6803F02803282B14BFD6
:1045D0006FF0F2036FF04203134000220B6080F88B
:1045E00040200FE72822222380F84120036390F81F
:1045F00041300A6803F02803282B14BF6FF0F4033E
:104600006FF04403134000220B6080F8402071E5F6
:1046100030B40468A169A569A368E268C268022A87
:10462000C1F300410ED1C3F3C21383EA154313F063
:10463000060307D1826C01328264826C022A0DD09B
:1046400030BC704723680B4D002223F0B803236071
:10465000AA7280F8402051B930BC23E50822836457
:10466000E261044A80F8403093720029F4D030BCF3
:10467000C8E600BF0000002010B50446544A94F874
:104680004130002084F84200E2626085626C114390
:10469000A3F12802022A2368616432D894F84110F9
:1046A00094F8412001F02801282902F0280214BFC3
:1046B000F6214621282A1A680CBFC9436FF0F6017B
:1046C0000A40282043491A6084F84100A06B226BFD
:1046D000616318B1112A3ED0212A3CD0E06B18B199
:1046E000122A4DD0222A4BD094F84130602B4FF043
:1046F000000363D02363626C84F84030042A64D1E1
:1047000010BD94F8412094F841201A6822F0FE026E
:104710001A609A69920748BF98629A69D10703D4D0
:104720009A6942F001029A6194F84120602A10D0FF
:10473000202284F841209A6992060AD59A69D00607
:1047400005D51022DA61626C42F004026264202214
:10475000DA610021BAE71A6851042AD490F82530AA
:10476000012BC1D01C4A8263002384F84030FFF73C
:1047700025FE0028C4D0A06BBDE81040836B18470D
:104780001A68120403D51A6822F400421A6090F8DD
:104790002530012BA8D0104A8263002384F84030D2
:1047A000FFF70CFE0028ABD0E06BBDE81040836B38
:1047B00018471A6822F480421A60CFE7202284F852
:1047C000412084F84030236310BDFFF759FC00BF3F
:1047D0000000FFFF614E00080542000830B4036886
:1047E000202282B0DA6190F84120212A90F84120FD
:1047F0004AD0222A56D05A68324C002522405A60AC
:10480000314C4563CD06C46205D51022DA61426C95
:1048100042F00402426490F84120602A2DD09A6947
:10482000910744BF00229A629A69D20703D49A6919
:1048300042F001029A61436C90F84120602A0BD04B
:1048400053B990F84120212A0AD090F84120222A19
:1048500006D002B030BC7047416C02B030BC0BE7F0
:10486000202280F84120036390F8422080F84030F5
:1048700080F8423002B030BC70474C07CFD55A6A3E
:10488000D2B20192019ACAE702F028021C68282AD3
:1048900014BF6FF0F2026FF04202224011241A603E
:1048A0000463A8E790F841201C6802F02802282A37
:1048B00014BF6FF0F4026FF04402224012241A6019
:1048C000046398E700E800FE0000FFFF38B590F8A9
:1048D0004030012B00F085800123CD06044680F88E
:1048E000403001D5D00659D40D063AD550064DD5E5
:1048F00023681A6822F040021A60628D92B2002A80
:1049000071D05868628D92B2FF2AC0F3090078D83E
:10491000618DE26A89B212F5803F218500F08280C4
:104920005FFA81FCE26A4FEA0C4C42EA0C02024355
:10493000404D586822F00042284002435A60628D80
:10494000521A92B2628594F84120222A1A680CBF4A
:1049500042F4004242F480421A60002084F8400091
:1049600038BD4D0612D5500610D5638D9BB2002B75
:1049700040D123685A689201EFD4E26A12F5803F71
:1049800034D15A6842F480425A60E6E78B06E4D597
:104990009306E2D52046FFF721FFDEE7236826488D
:1049A0001022DA61616C626B41F004018242616441
:1049B00025D022498A4222D021498A4214BF20228E
:1049C000602219680A431A609A69910744BF00225D
:1049D0009A629A69D207C0D49A6942F001029A6138
:1049E000BBE7022038BD5B689A0103D42046FCF780
:1049F000F9FBB2E740212046FFF73EFEADE760221B
:104A0000DFE79A69D10306D5012121854FF4803C67
:104A10004FF0807289E7FF2121854FF47F0C4FF022
:104A2000807282E75FFA81FC4FEA0C4C4FF0007213
:104A30007BE700BF009C00FCCD480008B14F000898
:104A4000454A000838B590F84030012B00F0D68078
:104A5000012380F84030CB06044602D5D00600F191
:104A6000A9808B070BD5900709D52268216D91622B
:104A70004FF0FF332365002084F8400038BD0B065B
:104A80003AD5550640F18C8094F84120236802F015
:104A900028021968282A14BF6FF0F2026FF0420250
:104AA0000A401A601A6842F090021A60628D92B24F
:104AB000002A00F0B880628D92B2FF2A40F2A280F4
:104AC0009869654DE16C5A68C0F3004000280CBF3E
:104AD0004FF47F004FF4803002EA0502C1F3090170
:104AE00042EA000242EA010242F080720CBFFF215A
:104AF000012121855A6040E04B0651D550064FD523
:104B000094F84110236855481A6801F028012829B3
:104B100014BF6FF0F2016FF042010A401A601A6888
:104B20004F4942F090021A6094F841C0628D92B2EF
:104B3000BCF1220F08BF0846FF2A79D99A69C2F34F
:104B40000042002AE26CC2F309020CBF4FF47F0559
:104B50004FF4803542EA000242EA05025868414DAE
:104B600022F0004200EA050042EA00020CBFFF21E9
:104B7000012142F0807221855A60628D521A92B2F0
:104B8000628594F84120222A1A684FF000000CBF79
:104B900042F4004242F480421A6084F840006DE71B
:104BA00088067FF568AF93067FF565AF2046FFF76F
:104BB00015FE60E723682C481022DA61616C626B95
:104BC00041F00401824261641AD028498A4217D018
:104BD00027498A4214BF2022602219680A431A60BA
:104BE0009A69910744BF00229A629A69D2073FF5F9
:104BF00042AF9A6942F001029A613CE7022038BD57
:104C00006022EAE7618D144DE26C586889B2284051
:104C1000C2F30902CDB242EA0542024342F00072F9
:104C200021855A60A9E740212046FFF725FD22E7AC
:104C3000618DE26C89B2CDB2C2F3090242EA05424B
:104C40000243084D5868218522F000422840024363
:104C500042F000725A6090E7009C00FC0020008047
:104C600000240080009800FCCD480008B14F0008E7
:104C7000454A000870B5036804460D461968C06AC5
:104C800094F841202026213ADE61092A0ED8DFE877
:104C900002F079050D0D0D0D0DAC790594F841204C
:104CA0001A6822F0FC021A60222222635A686A4EB5
:104CB00042F400425A605A6832405A609A69920738
:104CC00044BF00229A629A69D60703D49A6942F0D7
:104CD00001029A614A043CD51A6822F480421A60A3
:104CE000A26B1AB11268526892B262856A070AD53D
:104CF0005A6A636A1A70636A01336362238D25F00E
:104D00000405002B6AD1638D9BB21BB1636C43F029
:104D100004036364EB0601D5CE063CD4002384F87B
:104D20004230666C6363002E6AD1E36A4B4DAB423E
:104D300019D194F8413084F84060222B4FF02003C1
:104D400084F841302046266373D0BDE87040FFF7F9
:104D500059BB0E04CAD51A6822F400421A60E26BED
:104D6000002ABFD1C2E72046FFF708FC2023E562F6
:104D700084F8406084F8413020462663BDE87040E6
:104D8000FFF7F2B994F841201A6822F0FA021A608B
:104D9000212222638AE7638D9BB2002B39D194F8DC
:104DA0004130282B4FD094F841202368292A4FF016
:104DB0001002DA61B2D110F5803FAFD09A69910745
:104DC00044BF00229A629A69D20703D49A6942F0DA
:104DD00001029A612046FFF7D1FB9FE7013B238543
:104DE000638D013B9BB263858DE794F8412094F875
:104DF00041201A6822F0FE021A600022226355E761
:104E0000616C2046FFF738FC94F84130282B14D011
:104E100070BD23681022DA61636C43F0040363649D
:104E200030F080737FF47AAF616C2046FFF724FC8A
:104E300074E7BDE87040FFF75DB929462046BDE83C
:104E40007040FFF7ABB9B0F1007FACD129462046E6
:104E5000FFF7A4F962E700BF00E800FE0000FFFFD3
:104E600038B590F840C0C56ABCF1010F6DD04FF065
:104E7000010C11F0200F04460B4680F840C002D010
:104E800012F0200F51D1D80615D5D10613D5628D59
:104E900092B2002A5BD194F84120282A7ED094F85F
:104EA00041202368292A4FF01002DA6162D00020E5
:104EB00084F8400038BD590719D4190701D51007E7
:104EC00039D49907F3D59307F1D5638D9BB2002BA5
:104ED0004CD0616A236811F8012B9A62638D228D90
:104EE0006162013B9BB2013A63852285DFE750078F
:104EF000E3D5638D9BB26BB12268636A526A1A7004
:104F0000638D616A228D013B0131013A9BB261627E
:104F100022856385638D9BB2002BC8D115F5803F38
:104F2000C5D02046FFF72AFBC1E7FFF7A3FE00200C
:104F300084F84000BEE794F8413003F02803282BA2
:104F400028D023680822DA61B1E7022038BD23683F
:104F50001022DA61636C43F00403636435F08073FC
:104F6000A5D1616C2046FFF787FBA0E735F0807381
:104F70009DD1D6E715F5803F99D09A69950744BF32
:104F800000229A629A69D007CBD49A6942F0010252
:104F90009A61C6E72046FFF73BFB88E7B5F1007F43
:104FA0007FF47DAF19462046FFF7F8F87FE700BF92
:104FB00038B590F840C0C56ABCF1010F4CD04FF035
:104FC000010C11F0200F04460B4680F840C002D0BF
:104FD00012F0200F30D1D90626D5D00624D55104A1
:104FE000C2F380303AD5E16B09B112043BD4A26B15
:104FF0001AB112685268002A3DD023681022DA6183
:10500000636C43F00403636494F8413035F08072BC
:10501000DBB20DD1213B092B52D8DFE803F04F560C
:105020005151515151514F56190701D5130709D408
:10503000002084F8400038BDFFF71CFE002084F8F3
:105040004000F8E794F8413003F02803282B3FD0C4
:1050500023680822DA61EBE7022038BD110429D564
:10506000E16B0029C9D00A685268002A34D1A26BCA
:105070000AB100283ED194F84120282A32D094F871
:1050800041202368292A4FF01002DA61D0D115F5AA
:10509000803FCDD09A69950744BF00229A629A69F1
:1050A000D00703D49A6942F001029A612046FFF7C3
:1050B00065FABDE723681022DA61B9E7212323638B
:1050C000616C2046FFF7D8FAB2E722232363F7E7A3
:1050D0002046FFF79DFAABE7A26B002A8DD000288F
:1050E0008BD086E7B5F1007FC9D119462046FFF77E
:1050F00055F89DE712685268BDE700BFF0B5046837
:105100000546200583B000F1F6800026A10351D5A5
:10511000A54B9A6DD20040F1F8800027A349A44A1C
:105120000B6843F480730B60D2F8140205E0D2F8E8
:1051300014321B1A022B00F201810B68DB05F6D535
:10514000AEBB9949A86DD1F8903013F4407326D0C6
:10515000834224D0D1F890C0D1F8903043F480330A
:10516000C1F89030D1F8903023F48033C1F89030FA
:105170001CF0010F2CF44073C1F890300FD0D2F81E
:1051800014E241F2883C06E0D2F81432A3EB0E039D
:10519000634500F2D380D1F890309B07F4D5824A62
:1051A000D2F8903023F440730343C2F89030002FBC
:1051B00040F0C880E10708D57B4A296AD2F88830D8
:1051C00023F003030B43C2F88830A20708D5764AC0
:1051D000696AD2F8883023F00C030B43C2F8883098
:1051E000630708D5704AA96AD2F8883023F03003E3
:1051F0000B43C2F88830A70608D56B4AE96AD2F893
:10520000883023F440630B43C2F88830A00508D5EA
:10521000654AE96BD2F8883023F440230B43C2F887
:105220008830610508D5604A296CD2F8883023F4AB
:1052300040130B43C2F88830620608D55A4A296BDE
:10524000D2F8883023F440530B43C2F88830230649
:1052500008D5554A696BD2F8883023F440430B4394
:10526000C2F88830E70508D54F4AA96BD2F88830D4
:1052700023F440330B43C2F8883020030ED54A4A4A
:10528000A96CD2F8883023F040630B43B1F1006F72
:10529000C2F888305CD0B1F1806F74D061030ED554
:1052A000414AE96CD2F8883023F040630B43B1F1F6
:1052B000006FC2F8883050D0B1F1806F6BD06204BB
:1052C0000BD539492A6DD1F8883023F04053134368
:1052D000B2F1805FC1F888304DD0230408D5324A3E
:1052E000696DD2F8883023F080430B43C2F88830D0
:1052F000304603B0F0BD6F6CB7F5000F10D0B7F5B6
:10530000400F12D077B3012600E79A6D42F0805229
:105310009A659B6D03F080530193019B0127FDE685
:10532000214AD36843F48033D3601F4AD2F88830CF
:1053300023F440033B43C2F88830E6E60326002FFF
:105340003FF438AF184A936D23F08053936531E7EB
:10535000D36843F48013D360A0E7D36843F4801389
:10536000D360ACE73946281DFCF75AF806460028FA
:105370007FF4CCAED9E70221281DFCF751F80028B4
:1053800018BF0646A9E70121281DFCF749F80028A7
:1053900018BF064682E70121281DFCF741F80028C6
:1053A00018BF06468BE700BF0010024000700040A7
:1053B000800000202DE9F041C16F05689EB00446D1
:1053C000002947D02423E3672A68636A22F0010298
:1053D0002A60002B40F0AD80D4E90412A36828684D
:1053E0000B431343E169A64A0B43024013432B606E
:1053F0006B68E26823F440531343A24A6B60954202
:10540000A369AA6800F0DB80206A22F430620343BB
:1054100013439D4AAB60954200F046819B4B9D42F1
:1054200040F00A8103F5E633D3F8883003F00C032B
:105430000C2B00F25481DFE813F0C7015201520136
:1054400052010E01520152015201620152015201F8
:1054500052015B0180F878105C2207A80EF0E2FA96
:10546000894B9D4200F0D081884B9D42AAD10227F2
:1054700007A80797FFF742FE0646002840F0F08194
:10548000834B844D9A6D42F400329A659A6D02F412
:1054900000320492049ADA6C42F00102DA64DB6CA6
:1054A00003F00103039307220323CDE9003203999C
:1054B00003463A464FF090400F214FF080080AF023
:1054C000F3FBC5E9B976C5E9BB68C5E9BD66C5E9C1
:1054D000BF6605F53876704BC5F8E03230460AF005
:1054E00097F9002840F0BC816667102305F54A76DD
:1054F000C5E9CD08C5E9CF00C5E9D100C5F830330D
:105500003046664BC5F82C73C5F80843C5F82833F8
:105510000AF07EF90146002840F0A2812667262085
:10552000C5F850430AF014FA5D4B40225A602568D2
:1055300048E71E0705D56A68616B22F400420A43FA
:105540006A60D80705D56A68A16A22F400320A4366
:105550006A60990705D56A68E16A22F480320A43D5
:105560006A605A0705D56A68216B22F480220A43D3
:105570006A60DF0605D5AA68A16B22F480520A434F
:10558000AA609E0605D5AA68E16B22F400520A4380
:10559000AA60580609D56A68216C22F480120A4371
:1055A000B1F5801F6A6000F0F58019067FF514AF31
:1055B0006B68A26C23F4002313436B600CE722F4A6
:1055C000306213433249AB60D1F8883003F4406352
:1055D000B3F5006F7AD000F2D780002B00F03A814B
:1055E000FBF73CFE002872D16A682A49002322F4A6
:1055F0009042C4E91A336A60AA6822F02A02AA60BB
:105600002A6842F001022A60C4F88430D1F814629A
:105610002B681A0779D42B685B0700F1918000236F
:1056200020221846E26784F87830C4F88020236688
:1056300063661EB0BDE8F0811A4B9D424FD103F561
:10564000E433D3F8883003F03003202B57D04DD803
:10565000002B00F0B980B1F5004F00F00881FBF796
:10566000FDFD0028C0D0636800EB5300B0FBF3F0F1
:105670004FF6EF73A0F110029A4230D8E860B3E71A
:10568000F369FFEF00800040003801400044004013
:1056900000100240800000206C00024080000240A8
:1056A00000E100E000480040744BD3F8883003F07C
:1056B0000303022B23D0032B1AD0012BCBD0B1F53F
:1056C000004F00F08780FBF741FECAE76C48626834
:1056D00002EB4203834202D8B0EB023F61D90023C0
:1056E000C4E91A3301201EB0BDE8F081302BF6D199
:1056F000B1F5004F00F0B8804FF40040B3E7B1F5CA
:10570000004F00F0AF805E48ADE76FF07E43324659
:105710004FF4001120460AF0DDF800283FF47BAF7B
:10572000236853E8002F22F0800243E8002100297B
:10573000F7D12023E367002384F878300320D2E7F1
:105740006FF07E4332464FF4800120460AF0C2F8E3
:1057500000283FF464AF236853E8002F22F49072CE
:1057600043E800210029F7D103F1080252E8002F95
:1057700022F0010203F1080040E800210029F3D1E2
:105780002023C4F88030D6E7B3F5406FA7D14FF49B
:1057900000409CE76A68616C22F4C0020A436A60B8
:1057A00003E7510800230F464FF480761946E0FBCB
:1057B000067138460AF036FD324BA0F540729A4227
:1057C0008DD8314BD8600FE7B1F5004F52D0FBF7C1
:1057D0009DFD46E7FBF7BAFD00283FF405AF430007
:1057E000626803EB5203B3FBF2F34FF6EF72A3F1DF
:1057F000100191423FF673AF23F00F0292B2C3F350
:1058000042031343EB60EFE6012307A80793FFF77A
:1058100075FC034620BB194A116E41F480411166A4
:10582000116E01F4804106910699D16C41F001019D
:10583000D164D26C02F00102059207210322CDE966
:105840000021059802224FF4C0614FF090400AF009
:105850002BFAB7E5FBF75AFD00283FF4C5AE36E753
:10586000FEF70EFC094BBBE74FF48033B8E7FBF7BC
:10587000F5FCB1E7FBF74AFDAEE700BF00100240C0
:105880000024F400FFFC0F00008000400048E80105
:10589000F0B4C56F202D51D10C4601B112B90120D1
:1058A000F0BC7047194600252123C0F88450C36717
:1058B00083682E4FA0F85020B3F5805FD7F81462AC
:1058C000A0F852203DD0B0F85220036892B2DAB16D
:1058D000DA69120604D44A1C22D1DA691206FCD510
:1058E00034B314F8012B9A62C26F02F02102212A0C
:1058F000D5D1B0F85220013A92B2A0F85220B0F8B7
:10590000522092B2002AE3D1DA69520604D44C1C28
:1059100022D1DA695106FCD52023C3670020BFE7F6
:10592000D7F81422921B914211D381B11A68CFE7A4
:1059300035F8022BC2F308029A62D5E70220F0BCC8
:1059400070470369002BBED125461C46BBE72023C8
:10595000C367F0BC03207047D7F81422921B914212
:10596000F5D30029F3D01A68CEE700BF80000020ED
:10597000026852E8003F23F4907342E800310029A6
:10598000F7D102F1080353E8003F23F0010302F1CD
:10599000080C4CE800310029F3D1036E012B06D02E
:1059A00000232022C0F8802083660366704752E8F7
:1059B000003F23F0100342E800310029F0D052E804
:1059C000003F23F0100342E800310029EFD1E7E760
:1059D00070B5A34CD4F8D053EB692A68A96840F697
:1059E0000F00034240F08880980602D5960600F129
:1059F000F480D4F83004012816D0D80202D5490228
:105A000000F1F5801E0605D4590602D5530600F1B3
:105A10002F8170BD1006F7D5D4F83C34002BF8D098
:105A2000BDE870408F481847DE06E6D5D006E4D5BD
:105A300010232B62AB68B4F828245B0640F1448144
:105A4000D4F8443419684B689BB2002B00F07E8177
:105A5000934280F07B81A4F82A340B689E0645D4DB
:105A600055E8003F23F4807345E800324AB1D4F88A
:105A7000D02352E8003F23F4807342E8003100292C
:105A8000F5D1D4F8D02302F1080353E8003F23F006
:105A90000103083242E800310029F2D1D4F8D023C2
:105AA00002F1080353E8003F23F04003083242E8C4
:105AB00000310029F2D12023C4F85034C4F8301446
:105AC000D4F8D02352E8003F23F0100342E800311D
:105AD0000029F5D1D4F8443443B193F82520022AA3
