:020000040000FA
:20000000884600200B080000D9080000B90200000000000000000000000000000000000043
:20002000000000000000000000000000C90200000000000000000000D9020000E90200002F
:20004000090800000908000009080000090800000908000009080000090800000908000018
:20006000090800005112000065120000791200008D12000000000000000000005D0C000002
:20008000750C00008D0C000009080000090800000908000000000000000000000908000002
:2000A00009080000090800000908000009080000CA160000CE160000E616000044180000E0
:2000C0008A180000C6180000F8B5C046F8BC08BC9E467047ED20000065010000F8B5C046B4
:2000E000F8BC08BC9E46704739010000000000000448054B10B5834203D0044B002B00D070
:20010000984710BD00300000003000000000000006480749091A8B10C90FC91810B54910A0
:2001200003D0044B002B00D0984710BD00300000003000000000000010B5074C2378002BB8
:2001400009D1FFF7D5FF054B002B02D0044800E000BF0123237010BD4C00002000000000D3
:20016000B0000000054B10B5002B03D00449054800E000BFFFF7CCFF10BDC04600000000EF
:2001800050000020B0000000BFF34F8F034B044ADA60BFF34F8FC046FDE7C04600ED00E08C
:2001A0000400FA0510B501F005FE074B5B685A6872B6BFF35F8F196881F30888FF218B4371
:2001C00002498B609047FEE700FF030000ED00E010B500F09FF8002806D00C4B59689A68FA
:2001E000914210D001D9002010BD521A0120404200F00AFE064B1860044BDB68C01A4342C4
:200200005841C0B2F0E70020EEE7C04600FF03006800002010B501F0CDFDFFF7B5FFFEE768
:2002200010B5012000F076FD1D4C0023237101201C4A0021404200F0E7FDA0601A4B1B686F
:20024000984209D100F058F800F064F8002808D1134B02221A7110BD114B01221A71FFF783
:20026000DEFF00F057F8002803D001F0B7FD00280BD000F04FF80028EDD001F0AFFD0028DE
:20028000E9D0074B04221A71E5E7FFF7A1FF002803D1034B03221A71DDE7FFF783FFC04604
:2002A00068000020FC2F0000FC2F0000014B18797047C04668000020EFF30582014BDA604F
:2002C000FAE7C04668000020EFF30582014BDA60FAE7C04668000020EFF30582014BDA6062
:2002E000FAE7C04668000020EFF30582014BDA60FAE7C0466800002010B50120FC220349E1
:20030000404200F081FD024B186010BD00FF030078000020074B1B78012B01D00020704708
:20032000054B1A68054B1B689A4201D00020F6E70120F4E700FF030078000020FCFF0300DA
:200340000B4B032018709622D2015A6000221A725A72182199721739D972013119735A7373
:2003600019329A73D8731974E6325A749A7470477C00002002280AD005D8002809D00128FB
:2003800009D1143004E0032807D1143000E0162070471420FCE7FF20FAE7FF20F8E7022808
:2003A0000AD005D8002809D0012809D1073004E0032807D11D3000E0102070470420FCE749
:2003C0000020FAE70020F8E7004870470800002010B5FFF76BFF031E04D0013BDBB2022BE6
:2003E00001D9402010BD4120FCE7F0B5D6464F464646C0B5FFF78EFF00285FD0314B1B7F6B
:20040000032B19D82F4AD27F002A15D12D492320095C002910D12B482024005D1F280BD87D
:20042000284C2425645D1F2C06D8264D2226AE5DB51EEDB2012D06D9FFF782FFE0BCBA46BD
:20044000B146A846F0BD1F4D2627ED5DAA46023DEDB2012DF0D81B4D053FED5DAC46012D2D
:20046000EAD8184D0437ED5DA846032DE4D8154D6D7FA946002DDFD0182DDDD8124D2B70E9
:2004800096235B014F467B436B600E4B9F7F2F726A72A8726246EA722E736973AC734246F3
:2004A000EA7352462A742922995C0029C6D101329A5C1F2AC2D86974AA74BFE7FFF740FFC7
:2004C000BCE7C04600FF03007C00002070B586B0FFF78BFF274C227BA17A607A00F05EFAAD
:2004E000227CA17B607B00F059FA607C002803D1204B997C1F292ED91E4C2078FFF73AFF4C
:20050000032100F05DFC26783000FFF748FF1A4A136A03431362E37A6268184D291D029162
:20052000290010310191E17B00911549300000F097FD207800F0DEFD217A002001F011F8A8
:2005400029001C31002001F0F9F90121002001F0A5FB06B070BD00236A461375537505AA9A
:2005600000F008FA034B997C587C012200F080FAC2E7C0467C00002000040040080000200E
:2005800000127A0010B50B4B187800F0E9FD040009E0084B187800F0F7FD0100002001F088
:2005A00074F8013CE4B2002CF3D10121002001F018F810BD7C000020F0B585B015006A46C1
:2005C000D171961D93710F276F4445233B70114C207801226B46D91D00F099FD2078012226
:2005E000290000F094FD20780122390000F08FFD6B46DA79013AD2B2691C207800F087FD8D
:2006000020780122310000F082FD207800F098FD05B0F0BD7C00002010B501F0A9FA10BD3E
:2006200010B501F0B3F910BD10B501F0FBF910BD10B5002000F0BCFD10BD10B5012000F0E3
:20064000B7FD10BD10B5022000F0B2FD10BD10B5032000F0ADFD10BD044B00221A705A60C2
:200660001A72022159729A727047C0469001002010B52A4B1B78002B09D0284B1B7A402B42
:200680000AD0264B03225A72244B00221A70234B9B7A002B3BD110BD204B5868830603D1F4
:2006A000C0239B01984203D21C4B03225A72EBE7FF23034216D100F0F5FA00F001FB174B67
:2006C0005868020003E0131A1549CB5808C2134B1B7A1B189342F6D800F0FEFA0F4B0022D0
:2006E0005A72D1E700F0ECFA0C4B5868020003E0131A0B49CB5808C2084B1B7A1B18934246
:20070000F6D800F0E9FA054B00225A72BCE7FFF781FD024B00229A72BDE7C046900100200D
:200720009C01002010B50C4B01241C7058601972402901D940211972002305E0D05C06493A
:20074000C91808730133DBB20349097A9942F5D8014B02225A7210BD90010020014B587A2D
:200760007047C04690010020014B01229A7270479001002010B5FFF753FD002000F0BAFA59
:2007800000F094FB00F030FB00F0A6FB01220621032000F0F7FA08220621042000F0F2FA8F
:2007A000FFF794FEFFF758FF00F066FE04211A2000F006FB094A116A80235B000B43136231
:2007C000002000F026FAFA218900002000F0C4F9002000F013FA00F0D5FB10BD000400408A
:2007E00010B500F053FE10BD10B5FFF7C3FF00F054FE10B500F024FEFFF7C4FE10BD10B546
:20080000FFF736FF10BD0000FEE710B5124B134A934207D0114B104A01E002CA02C310494F
:200820008B42FAD30F4B01E0002204C30E4A9342FAD30E4BFF2293430D4A93600D4B002BE3
:2008400000D0984701F05EFC0B4B002B00D09847FFF7CAFFFEE7C046342200000800002046
:200860004C0000204C000020880600200000000000ED00E000000000000000000D4A137843
:2008800001210B43DBB213700A4B5B785BB2002BFADB084A302353608823DB039361137843
:2008A00002210B43DBB21370024B5B785BB2002BFADB70470018004001238340014AD36016
:2008C0007047C0460018004001238340014A93607047C04600180040014B0122DA70704759
:2008E0000018004030B501238B401278002A0DD11400012A0CD0022A10D0C0010A4A944624
:200900006044411840310C70436030BD0424F0E7C201054DAC4662449361EEE7C201024DD6
:20092000AC4662445361E8E70044004130B501238B401278002A0DD10224012A0CD0022A58
:2009400010D0C0010A4A94466044411840310C70436030BD0624F0E7C201054DAC466244A0
:200960009361EEE7C201024DAC4662445361E8E70044004110B501238B401278002A09D0BB
:200980000222C001044CA4466044411840310A70836010BD0022F4E70044004130B5CB0767
:2009A00018D44C08C301134DAC4663441B1930331C780F25AC432A4022431A70C0010D4B7A
:2009C0009C46604440184030037801221343DBB2037030BD4C08C301064DAC4663441B19B0
:2009E00030331C780F252C4012012243D2B21A70E4E7C04600440041C001054B9C466044ED
:200A00004018403003780122934303707047C04600440041C001024B9C466044006A704730
:200A200000440041C001054B9C466044026A012088401040431E9841C0B27047004400410D
:200A4000C001024B9C4660440161704700440041C001024B9C4660448161704700440041B2
:200A6000C001024B9C466044416170470044004110B5002A02D0012A06D010BD01238B4086
:200A80001900FFF7EDFFF8E701238B401900FFF7DFFFF2E7C001024B9C466044C16170475A
:200AA0000044004110B501238B401900FFF7F2FF10BDC04670B5002811DB8308134DC03313
:200AC0009B005C5903221040C000FC3216008640B44389010A40824022435A5170BD0F238B
:200AE0000340083B9B0806339B00094A944663445C6803221040C000FC3215008540AC4335
:200B000089010A40824022435A60E7E700E100E000ED00E0012805D0022805D0002805D1C9
:200B2000034802E0034800E0034870470020FCE7002000420024004200280042012805D028
:200B4000022805D0002805D10F3002E0102000E0112070471C20FCE770B504000D00FFF734
:200B6000D9FF0023036001338362094BC36205642000FFF7E3FF04000A21FFF79BFF002C39
:200B800005DB1F22224001239340024A136070BD0FF80F0000E100E0F8B50F001600FFF750
:200BA000B9FF80235B01036000234361002501E00133DBB2032B09D8DC0034192279002A90
:200BC000F6D001229A401543EDB2F1E72D04FF231B041D4085613F023F0A07640223C3638E
:200BE00033681B021B0A4364B3681B021B0A8364014BC362F8BDC0460FF80F0010B5FFF730
:200C000089FF036802221343036083689B07FCD410BD10B5FFF77EFF03680122134303605B
:200C20008368DB07FCD410BD10B50C00FFF772FFC46683685B03FCD410BD70B50C001500BC
:200C4000FFF768FF2D022D0A1C34A40025508268F023DB031A42FAD170BD704710B5FFF7C7
:200C6000BFFD024B024ADA6210BDC046002000420FF80F0010B5FFF7F0FF024B024ADA6219
:200C800010BDC046002400420FF80F0010B5FFF7E4FF024B024ADA6210BDC0460028004255
:200CA0000FF80F004008044BD861044A1A80024B1B7DDB07FBD570470040004102A5FFFFF2
:200CC000034B044A1A80024B1B7DDB07FBD570470040004144A5FFFF4008044BD861044A0A
:200CE0001A80024B1B7DDB07FBD570470040004104A5FFFF002805D0054A536880218B436E
:200D000053607047024A536880210B435360F8E700400041024A536801210B43536070477F
:200D200000400041044B9A68120C0723134003330120984080B2704700400041014B986861
:200D400080B2704700400041F8B505000E00170000240EE0A201D118521971589950043360
:200D60009BB23F2BF6D9A0014019FFF7B5FF0134A4B2BC4203D2FFF7A3FF0023F1E7012037
:200D8000F8BDC0460902F8235B0119400F231840014380235B020B4308494B60074B5B7880
:200DA0005BB2002BFADB12021043044B9860034B5B785BB2002BFADB7047C046000C004041
:200DC0003F2303400902F022120111400B438022D2011343034A5380024B5B785BB2002B5C
:200DE000FADB7047000C0040064B01221A70054B1B78DB0704D5034B5B785BB2002BF6DB55
:200E00007047C046000C004010B58223DB0502241C60890889000E4B596003218A439A60C6
:200E2000D8605A7801210A43D2B25A701A7804210A43D2B21A70064B5B78DB07FBD5044BB4
:200E4000D868C0438223DB0502225A6010BDC0460020004130B50C008D1809E041080123CC
:200E600018404042064B1840484001321F2AF5DDAC4203D208CC58400022F7E730BDC046F7
:200E80002083B8ED054B1868054B1B685840054B1B685840044B1B68584070470CA0800017
:200EA00040A0800044A0800048A08000074B5B689B091B04FE22D2031340054A1343054AF2
:200EC0009361044BDB685B07FBD57047206080000606000000080040054A136A05490B40EA
:200EE00002210B431362024BDB681B07FBD57047000800400000FFCF10B502001C4B02206D
:200F000098841B4BDB68DB06FBD550084018110000F076FF0004000C16490143144BD962E8
:200F2000134BDB68DB06FBD5134B1B689B0E3F2B1BD0124A12889205920D9B0213430C4A0B
:200F40009362D16200239384094BDB68DB06FBD5074A0B4B9384938C02210B439BB2938435
:200F6000034BDB685B06FBD510BD203BE1E7C046000800400000FF7D2460800028608000E9
:200F800004050000BFF35F8F62B6704770B5002811DB8308134DC0339B005C5903221040FD
:200FA000C000FC3216008640B44389010A40824022435A5170BD0F230340083B9B08063309
:200FC0009B00094A944663445C6803221040C000FC3215008540AC4389010A4082402243B7
:200FE0005A60E7E700E100E000ED00E010B5040000F0FAF8037E9B0601D520230376037EFB
:201000005B0700D410BD018DC9B2034BA400E05800F097F9F6E7C046DC01002070B5040011
:2010200000F0E2F805000D4BA2009B18186900F061F9002807D0094BA4001B19186900F0CD
:20104000BBF9288570BD200000F0CEF801230375024B202200219954F4E7C046DC01002015
:20106000F8B5CE46474680B50500884691461F0008AB1C7800F0B8F806001B4BAA00991876
:20108000099808610A99D1502405C0239B031C403B04C027BF023B401C43144B2343336063
:2010A0004346D8004B46D90000F0AAFEC308DB04DB0C400303439BB2B3817760280000F043
:2010C000B1F8002805DB1F22024001239340084A1360280000F0A6F80221FFF757FFC0BC7F
:2010E000B946B046F8BDC046DC0100200461004000E100E010B500F077F8036802221343D4
:201100000360C3699B07FCD42423837510BDF8B506000F001500094B20229B5C002BFAD168
:20112000002408E0395D054BB2009B18186900F008F90134E4B2AC42F4D3F8BDDC010020B4
:2011400070B50400054B012520229D5400F04CF885752000FFF762FF70BDC046DC010020E8
:2011600070B5050000F040F804260675054BAA00D05800F0BFF80400280000F035F886756B
:20118000E0B270BDDC01002070B5040000F02CF804260675054BA200D05800F00DF905009C
:2011A000200000F021F88675280070BDDC01002070B5050000F018F80400837DDB0702D5D2
:2011C000037EDB0707D4A27D24231A4202D0227E1A4204D170BD2800FFF720FFF3E7280000
:2011E000FFF704FFF6E7C04602280AD005D8002809D0012809D1074804E0032807D10648AA
:2012000000E0064870470648FCE70020FAE70020F8E7C046000C00420014004200100042BC
:201220000008004202280AD005D8002809D0012809D1093004E0032807D1093000E00B201B
:2012400070470920FCE71C20FAE71C20F8E7704710B5FFF7EDF9024BBF221A7610BDC046AA
:201260000008004210B5FFF7E8F9024BBF221A7610BDC046000C004210B5FFF7E3F9024BC5
:20128000BF221A7610BDC0460010004210B5FFF7DEF9024BBF221A7610BDC046001400423F
:2012A00010B5013000F01CFF88B210BD10B504000189C088FFF7F4FFA388C01A434258417F
:2012C000C0B210BD10B504000189C088FFF7E8FFA388C01A43425841C0B210BD10B504002C
:2012E0000189C088FFF7DCFFA388C01A43425841C0B210BDC3888288934202D3981A80B206
:2013000070470089181880B2801A80B2F8E7C3888288934202D3981A80B27047008918182D
:2013200080B2801A80B2F8E7C3888288934202D3981A80B270470089181880B2801A80B27F
:20134000F8E770B504000D00FFF7B0FF002801D0002070BD2268E388D5542189E088FFF767
:201360009FFFE0800120F4E770B504000D00FFF7A9FF002801D0002070BD2268E3885B0009
:20138000D5522189E088FFF78BFFE0800120F3E770B504000D00FFF7A1FF002801D0002054
:2013A00070BD2268E3889B00D5502189E088FFF777FFE0800120F3E770B504008088E388D6
:2013C000984207D023681D5C2189FFF769FFA080280070BD0025FBE770B504008088E38838
:2013E000984208D022684300D55A2189FFF758FFA080280070BD0025FBE770B5040080889B
:20140000E388984208D022688300D5582189FFF747FFA080280070BD0025FBE7064B1B782F
:201420001F2B06D804485A1C027004305B00C01870470020FCE7C0460002002001807047CF
:20144000002301E00133DBB21F2B0BD8064A590052189288002AF5D0034958000918013A7E
:201460008A80EFE77047C04600020020008843425841C0B27047C046034B00221A705A7014
:201480009A70DA701A71704744020020014B01221A70704744020020704710B5224B1B78BE
:2014A000002B19D1204B5B78DBB2092B1ED81E4B9B78DBB2092B23D81B4BDB78DBB2042B75
:2014C00028D8194B1B79DBB2012BE7D9FFF7E4FF154B00221A71E1E7FFF78BF9124B0022F4
:2014E0001A705A780132D2B25A70DBE7FFF787F90D4B00225A709A780132D2B29A70D6E703
:20150000FFF7CAFF084B00229A70DA780132D2B2DA70D1E7FFF7C0FF034B0022DA701A7980
:201520000132D2B21A71CCE74402002030B50300002103E001221A4051405B08002BF9D1FE
:2015400004000022002504E0012323405D40A4080132052AF8DD49000D43AD03284380B26F
:2015600030BD30B500280DD1074C43011B189B001A189200A21800255570956055601B18E9
:201580009B00195530BDC0464C020020704710B5041E09D1114A43011B189B001B189B002E
:2015A000D2185378002B00D010BD0800FFF7BEFF01002000FFF7EAFF084A63011B199B006E
:2015C0001B199B009B5C002BEED163011B199B001B199B00D21803235370E5E74C0200204C
:2015E000704710B500283AD1264A43011B189B001B189B00D3185A688A185A605B78591E99
:20160000C9B2012920D9033BDBB2022B27D81D4943011B189B001B189B00C9188B68D21A2F
:20162000052A1CD9174943011B189B001A1892008A180024547092891B189B00C918897BF8
:201640000023FFF7CDFF0AE00E4943011B189B001B189B00C9188B68D31A052B00D810BDEE
:20166000084943011B189B001A1892008A180024547092891B189B00C918897B0023FFF7D2
:20168000AFFFECE74C020020704770B582B0041E1BD1A84863011B199B001B199B00C31872
:2016A0005A689A605B78002B01D1552905D0052B0BD89B00A04AD3589F4663011B199B0070
:2016C0001B199B00C2180123537002B070BD0902984A63011B199B001819800010188181A0
:2016E00002234370F1E7934A63011B199B001B199B00D3189D890D439D81AE04B60C300038
:20170000FFF714FF85420FD08A4A63011B199B001B199B00D2180023537001332A000021F5
:201720002000FFF75DFFD0E7824D63011B199B001B199B00ED18AE813100200000F09AFAA6
:20174000A873002809D17B4A63011B199B001B199B00D21803235370B7E763011B199B0001
:201760001A1992001132FF3272495218951C01321B199B00C91889892B00200000F07EFAB2
:20178000002855D06B4A63011B199B001B199B00D2181232FF3211780B005D3BDBB2002607
:2017A0000DE0644A60010019800000198000121892191332FF321278D318DBB20136B14284
:2017C000EFDC5C4862011219920012199200125C002A08D1620112199200121992008018D7
:2017E000827B002A18D15348620112199200121992008018827B002A00D166E74D4862018C
:2018000012199200121992008018032242702A002000FEF7D1FE58E7464A8520800060433A
:201820001218002050702A002000FEF7C5FE4CE7404A63011B199B001B199B00D2180323CD
:20184000537042E73B4A63011B199B001B199B00D318D97300221A740A005D3A5A74002996
:2018600009D1344A63011B199B001B199B00D2180523537029E72F4A63011B199B001B1949
:201880009B00D218042353701FE72A4B620112199200121992009B181A7C98188174587CBF
:2018A000411859740132D2B21A74DB7B9A4200D20BE7204A63011B199B001B199B00D21871
:2018C0000523537001E71B4A63011B199B001B199B00D218537C8B4212D0164963011B196F
:2018E0009B001A1992008A180020507092891B199B00C918897B02232000FFF771FEE4E6C3
:201900000C4D63011B1999000A199200AA180023537008198000103040190230D37B92890B
:20192000091989006918897B0090200000F0AAF9CBE6C0464C020020B0000000014B800093
:20194000195070476004002030B5064B1D182C79C0000019C0001B181981DA6001342C7161
:2019600030BDC0466004002070B5074B48251E18745DC0000019C0001B184C2019521A65E3
:201980000134745570BDC04660040020F0B583B001910023002B02D0002003B0F0BD1E006A
:2019A0001F4A9C00A258002A02D01478844202D00133DBB2EEE75778019C210080229200B1
:2019C0003A43944224D0842292003A43944221D0882292003A4394421ED08C2292003A430A
:2019E00094421BD01D0001E00135EDB20C4A92194824125DAA42DBD9094AF4006419E4002F
:201A000012194C24125B3A439142EDD10120C4E70120C2E70120C0E70120BEE70120BCE7C8
:201A200060040020F0B585B00191029203930024002C02D0002005B0F0BD21004A4BA20090
:201A4000D358002B02D01B78834202D00134E4B2EEE7454B8200D2585778019E3500802312
:201A60009B003B439E4223D084239B003B439E4229D088239B003B439E4239D08C239B00EA
:201A80003B439E4245D0002FE0D00026364B5B1848229B5CB342D9DD334BCA009219D20009
:201AA0009B184C229B5A3B439D4246D00136EDE75369002B4CD098470123029A1370039BCF
:201AC00018700120B7E79369002B43D09847002842D00623029A13700378039A13704388BE
:201AE000537043881B0A93700379D3700120A2E7D369002B32D098470423029A1370039A9C
:201B00001070030A5370030C9370000ED070012091E7136A002B23D09847002822D00423C1
:201B2000029A13700378039A13704378537083789370C378D37001207DE70B4ACB009B1998
:201B4000DB00D218136D039A02990198984772E7002070E700206EE700206CE700206AE767
:201B6000002068E7002066E76004002001207047F0B5C64600B582B004000D00009201935E
:201B80000027002F03DD02B080BCB846F0BD384BBA00D358002B02D01A78A24201D0013792
:201BA000EFE75E78002D04D15B68002BF7D09847F5E78022520095421AD00222FF32954226
:201BC0001BD0F022520095421CD0002EE7D00021274BDB191B798B42E1DD254BFA00521894
:201BE000D2009B181B8933439D4236D00131EFE79B68002BD3D09847D1E7DB68002BCED0E5
:201C00009847CCE7009A052AC9D101980278417809020A43817809040A43C17809060A43C3
:201C20009046DB69002BBAD09847404509D0019B1B79B342B3D10E4BBA00D35800225A70C5
:201C4000ADE70B4BBA00D358019A117959701B69002BA4D030009847A1E7054BFA00521859
:201C6000D2009B18DB68019A00992800984796E76004002010B5FEF7D3FC10BD10B5FEF750
:201C8000D3FC10BD10B514001A00002900D010BD029B2100FEF7C0FCF9E7000010B50400D7
:201CA000002902D0012908D010BD114B1870114AE4310901FFF758FEF6E70D4B18700E4A9B
:201CC000E5310901FFF750FE0C4AE82109012000FFF73AFE0A4AEA2109012000FFF744FE28
:201CE000084AEF2109012000FFF72EFEDCE7C046EC040020131D00004F1D00006F1D000035
:201D0000951D0000AB1D00000123037000234360704730B583B00D0014006846FFF7F4FF65
:201D20006B461B78002B0CD104332B70019B23701A0A62701A0CA2701B0EE370012003B0D8
:201D400030BD01222A702370F8E70020704770B50D001400FFF7F9FF002805D001232B70A0
:201D600000232370012070BD0020FCE7704710B5107853781B02184393781B041843D37845
:201D80001B06184304320439C9B2FEF7CBFC10BD0120704770B50D001400FEF7DFFC01233E
:201DA0002B702070012070BD704710B5FEF7DCFC10BDC046024B0020002118605960704718
:201DC00000000020024B03480349186059607047000000207697458300006969054B1A687E
:201DE000054850405A68054B5340184343425841C0B27047000000207697458300006969F8
:201E0000002243088B4274D303098B425FD3030A8B4244D3030B8B4228D3030C8B420DD3B3
:201E2000FF22090212BA030C8B4202D31212090265D0030B8B4219D300E0090AC30B8B4240
:201E400001D3CB03C01A5241830B8B4201D38B03C01A5241430B8B4201D34B03C01A52419F
:201E6000030B8B4201D30B03C01A5241C30A8B4201D3CB02C01A5241830A8B4201D38B02D5
:201E8000C01A5241430A8B4201D34B02C01A5241030A8B4201D30B02C01A5241CDD2C3099A
:201EA0008B4201D3CB01C01A524183098B4201D38B01C01A524143098B4201D34B01C01A0F
:201EC000524103098B4201D30B01C01A5241C3088B4201D3CB00C01A524183088B4201D379
:201EE0008B00C01A524143088B4201D34B00C01A5241411A00D20146524110467047FFE74C
:201F000001B5002000F0F0F802BDC0460029F7D076E7704703460B437FD4002243088B4226
:201F200074D303098B425FD3030A8B4244D3030B8B4228D3030C8B420DD3FF22090212BAD4
:201F4000030C8B4202D31212090265D0030B8B4219D300E0090AC30B8B4201D3CB03C01A9B
:201F60005241830B8B4201D38B03C01A5241430B8B4201D34B03C01A5241030B8B4201D34B
:201F80000B03C01A5241C30A8B4201D3CB02C01A5241830A8B4201D38B02C01A5241430AA9
:201FA0008B4201D34B02C01A5241030A8B4201D30B02C01A5241CDD2C3098B4201D3CB01C6
:201FC000C01A524183098B4201D38B01C01A524143098B4201D34B01C01A524103098B42EF
:201FE00001D30B01C01A5241C3088B4201D3CB00C01A524183088B4201D38B00C01A5241CC
:2020000043088B4201D34B00C01A5241411A00D201465241104670475DE0CA0F00D0494297
:20202000031000D34042534000229C4603098B422DD3030A8B4212D3FC22890112BA030A88
:202040008B420CD3890192118B4208D3890192118B4204D389013AD0921100E08909C309B9
:202060008B4201D3CB01C01A524183098B4201D38B01C01A524143098B4201D34B01C01A4D
:20208000524103098B4201D30B01C01A5241C3088B4201D3CB00C01A524183088B4201D3B7
:2020A0008B00C01A5241D9D243088B4201D34B00C01A5241411A00D20146634652415B10BE
:2020C000104601D34042002B00D54942704763465B1000D3404201B5002000F005F802BD27
:2020E0000029F8D016E770477047C046034B10B5002B02D0024800F041F810BD000000002E
:202100004D21000070B50D4B0D4D5E1BB610AB4205D0002408CD01349847A642FAD8FDF7BE
:20212000D3FF084B084D5E1BB610AB4205D0002408CD01349847A642FAD870BDD40000005C
:20214000D4000000DC000000D400000070B5074C074D641BA41005D0013CA300EB58984725
:20216000002CF9D1FDF7BAFF70BDC046EC000000E80000007047C0467047C04610B5010075
:2021800000230022002000F001F810BDF0B5D6464F4646469846244BC0B5060018689A461A
:2021A0000F009146FFF7E6FF204B1D68002D32D053466C6818681F2C30DC002E0CD1631C71
:2021C0000234A4006B606751FFF7D6FF0020E0BCBA46B146A846F0BD49468822A300EB18AA
:2021E0009950C42149008C46AC446146873AA2400968914611436246116084214246490091
:202200005A50022EDBD129004A468D31FF310B6813430B60D3E7064D1D60C9E7FFF7ACFF82
:2022200001204042D3E7C04648000020F0040020F8040020000400009000002000000000EF
:2022400080000000100100200000000080000000000000000000000000000000000000004D
:2022600000000000D103000000000000850E0000C9030000F4040020FFFFFFFFFFFFFFFF1B
:20228000FFFFFFFFFFFFFFFFFFFFFFFFFFFFFFFFFFFFFFFFFFFFFFFFFFFFFFFFFFFFFFFF5E
:2022A000FFFFFFFFFFFFFFFFFFFFFFFFFFFFFFFFFFFFFFFFFFFFFFFFFFFFFFFFFFFFFFFF3E
:2022C000FFFFFFFFFFFFFFFFFFFFFFFFFFFFFFFFFFFFFFFFFFFFFFFFFFFFFFFFFFFFFFFF1E
:2022E000FFFFFFFFFFFFFFFFFFFFFFFFFFFFFFFFFFFFFFFFFFFFFFFFFFFFFFFFFFFFFFFFFE
:202FE000FFFFFFFFFFFFFFFFFFFFFFFFFFFFFFFFFFFFFFFFFFFFFFFFFFFFFFFF51252F2721
:040000050000080BE4
:00000001FF
