:020000040800F2
:1000000000000120F9CC0008CD590008D1590008A2
:10001000D5590008D9590008DD5900080000000032
:10002000000000000000000000000000E15900088E
:10003000E559000800000000E9590008ED590008E2
:1000400049CD000849CD000849CD0008015A0008F3
:1000500049CD000849CD000849CD000849CD000828
:1000600049CD00083D5A000849CD000849CD000897
:10007000515A00085D5A000849CD000849CD0008D2
:10008000695A0008755A000849CD000849CD000892
:1000900049CD000849CD000849CD000849CD0008E8
:1000A00049CD000849CD000849CD000849CD0008D8
:1000B00049CD0008000000000000000049CD000804
:1000C00049CD0008815A000849CD000849CD0008F3
:1000D00049CD000849CD00082960000849CD000835
:1000E000A95A0008BD5A00080000000000000000E6
:1000F0000000000000000000000000000000000000
:100100000000000049CD00080000000049CD0008B3
:10011000000000000000000049CD000849CD0008A3
:1001200049CD000849CD000849CD000849CD000857
:1001300049CD0008000000000000000000000000A1
:1001400049CD000849CD000849CD00080000000055
:1001500049CD000849CD000849CD000849CD000827
:1001600049CD000849CD000849CD00080000000035
:1001700049CD000849CD0008000000000000000043
:1001800049CD000849CD000849CD00080000000015
:1001900011F0CEBA0368816A1B6813F0200317D1EF
:1001A0000A68A1F8523002F1080353E8003F23F037
:1001B000800302F1080040E800310029F3D152E841
:1001C000003F43F0400342E800310029F7D1704777
:1001D000034B994204BF002381F88830704700BF69
:1001E00090030020014BD3F88C007047900300204F
:1001F00011F0A6BA70B4436C066C056831682C68BF
:1002000003F01C0304229A400A420ED014F0040F9B
:100210000BD02B689B0603D42B6823F004032B60C0
:10022000036B7260FBB170BC184702229A400A420D
:100230001BD014F0020F18D02B68990606D42B6837
:10024000012123F00A032B6080F82510134B9D42F7
:1002500096BF134BC3F884235A60C36A002280F808
:100260002420002BDFD170BC704708229A400A423C
:10027000F9D02207F7D52A68416B22F00E022A60D6
:10028000012202FA03F300247360C26380F8244061
:1002900080F825200029E6D070BC08478000024085
:1002A00000000240264A9368D26813F00C0305D080
:1002B0000C2B32D0042B3ED122487047204A1168C3
:1002C000090754BFD2F8942012681F4954BFC2F3E3
:1002D0000322C2F3031251F82200002BEDD0184B79
:1002E000DB6803F00303022B23D0184A032B08BF5B
:1002F0001046134BD968DA68DB68C3F34163C2F375
:100300000622C1F30211013300FB02F201315B004E
:10031000B2FBF1F2B2FBF3F0704702F00302012AE4
:10032000CCD0074BDB6803F00303022B4FF0000037
:10033000DBD10448DDE7082B044818BF00207047D4
:10034000001002400024F400383E010800127A0038
:1003500010B5FFF7A7FF0B490B4A8B680B4CC3F393
:100360000313134493F8303003F01F03D840206088
:100370008B68C3F302231A4492F8403003F01F0342
:10038000D84010BD00100240383E01080000002097
:1003900010B5FFF787FF0B490B4A8B680B4CC3F373
:1003A0000313134493F8303003F01F03D840206048
:1003B0008B68C3F3C2231A4492F8403003F01F0342
:1003C000D84010BD00100240383E01080000002057
:1003D000434A036830B4D468A40707D0D46804F053
:1003E00003049C424AD0012030BC7047022B56D0F7
:1003F000032B4DD0012BF6D112689207F3D5384C60
:10040000E26822F0730213434268013A43EA02139E
:10041000E360334C334A236823F080632360D2F8CF
:100420008C5004E0D2F88C305B1B022B3BD8236845
:100430001B01F7D483681B02002936D12169C568E6
:1004400021F0784121F4FE4143EAC5630B43236167
:1004500023490B6843F080630B60D2F88C4004E0C2
:10046000D2F88C301B1B022B1DD80B681B01F7D553
:1004700082690B69134300200B61B5E7002CB2D0F1
:10048000D3684268C3F3021301339342ABD1C0E790
:100490001468A403B3D412685203A4D5AFE712685A
:1004A0005505A0D5ABE703209EE7012921690BD0B4
:1004B00021F0C06121F4FE41194343695B08013B0F
:1004C00041EA43612161C3E721F4C00121F4FE4107
:1004D0000B4301694908013943EA41532361B7E7F6
:1004E0000010024090030020F0B504680546200586
:1004F00083B000F1F6800026A10351D5A54B9A6D7B
:10050000D20040F1F8800027A349A44A0B6843F4C5
:1005100080730B60D2F88C0005E0D2F88C301B1A87
:10052000022B00F201810B68DB05F6D5AEBB9949C1
:10053000A86DD1F8903013F4407326D0834224D0B4
:10054000D1F890C0D1F8903043F48033C1F89030A6
:10055000D1F8903023F48033C1F890301CF0010FB3
:100560002CF44073C1F890300FD0D2F88CE041F2F7
:10057000883C06E0D2F88C30A3EB0E03634500F212
:10058000D380D1F890309B07F4D5824AD2F89030CE
:1005900023F440730343C2F89030002F40F0C8802A
:1005A000E10708D57B4A296AD2F8883023F0030393
:1005B0000B43C2F88830A20708D5764A696AD2F898
:1005C000883023F00C030B43C2F88830630708D54A
:1005D000704AA96AD2F8883023F030030B43C2F87E
:1005E0008830A70608D56B4AE96AD2F8883023F428
:1005F00040630B43C2F88830A00508D5654AE96B13
:10060000D2F8883023F440230B43C2F888306105C8
:1006100008D5604A296CD2F8883023F440130B4384
:10062000C2F88830620608D55A4A296BD2F8883059
:1006300023F440530B43C2F88830230608D5554AAB
:10064000696BD2F8883023F440430B43C2F88830FA
:10065000E70508D54F4AA96BD2F8883023F4403318
:100660000B43C2F8883020030ED54A4AA96CD2F851
:10067000883023F040630B43B1F1006FC2F888303B
:100680005CD0B1F1806F74D061030ED5414AE96C42
:10069000D2F8883023F040630B43B1F1006FC2F809
:1006A000883050D0B1F1806F6BD062040BD53949DE
:1006B0002A6DD1F8883023F040531343B2F1805FA4
:1006C000C1F888304DD0230408D5324A696DD2F87C
:1006D000883023F080430B43C2F88830304603B0A3
:1006E000F0BD6F6CB7F5000F10D0B7F5400F12D00A
:1006F00077B3012600E79A6D42F080529A659B6DB0
:1007000003F080530193019B0127FDE6214AD36842
:1007100043F48033D3601F4AD2F8883023F4400377
:100720003B43C2F88830E6E60326002F3FF438AF9B
:10073000184A936D23F08053936531E7D36843F4EF
:100740008013D360A0E7D36843F48013D360ACE791
:100750003946281DFFF73CFE064600287FF4CCAE44
:10076000D9E70221281DFFF733FE002818BF0646EF
:10077000A9E70121281DFFF72BFE002818BF064618
:1007800082E70121281DFFF723FE002818BF064637
:100790008BE700BF00100240007000409003002073
:1007A000704700BF704700BF836A19684A6822F02B
:1007B00003024A601A6E4FF0010C42F010021A66F2
:1007C00083F85DC0704700BF704700BF10B4046875
:1007D000806A226812F0200228D10368A0F85A200B
:1007E00053E8002F22F4807243E800210029F7D15A
:1007F00003F1080252E8002F22F0010203F1080C75
:100800004CE800210029F3D103F1080252E8002F3F
:1008100022F0400203F1080C4CE800210029F3D13A
:100820002022C0F88020026E012A13D000234366E4
:10083000026E012A0BD1A0F85A306368B0F8582034
:100840009BB29A4288BFA0F85A30B0F85A305DF88F
:10085000044B704753E8002F22F0100243E80021B8
:100860000029E3D053E8002F22F0100243E80021D2
:100870000029EFD1DAE700BF836A01225A661A6EB7
:10088000012A0DD1B3F8581002684808A3F85A009D
:10089000526892B2914228BFA3F85A20B3F85A3056
:1008A000704700BFB1F804C093680A899A80BCF110
:1008B000000C18BF4FF0010CCA7983F800C091F802
:1008C00006C083F801C09A70986070470278142AB5
:1008D00001D001207047F8B51E461B685BB10F467A
:1008E00035460024696855F8083F3846984733680C
:1008F00001349C42F6D30120F8BD00BF58B32DE966
:10090000F041154F05464FF000082C462D68E2686F
:10091000D10516460ED4A06828B1FFF7EFFFE268B4
:10092000D305164606D4206998B1BB689847E66897
:10093000C4F8108016F4007604D1206A10B1BB68A8
:1009400098472662BB6820469847002DDDD1BDE858
:10095000F0811646EEE770470000002010B5421EF9
:10096000C11C002012F8013FA3F1300C5FFA8CFE8D
:10097000BEF1090FA3F1410404D860448A420AD0B1
:100980000001EFE7052CA3F1610CA3F1370403D8B4
:100990008A422044F4D110BDBCF1050F02D8573B68
:1009A0001844EBE7002010BD2DE9F0478B680D6877
:1009B0008846E95C5A1C2229814605EB020605EBB4
:1009C000030019D1D8F80470BA4215D23446002178
:1009D00003E00134621BBA420ED22378222B14D0DA
:1009E0005C2BF6D10134631B9F4205D90134621B95
:1009F000BA4201F10101F0D326B1D8F80030F31A60
:100A0000C8F808300020BDE8F0879742F4D9231ACF
:100A1000C1F101001844D8F81030984782460028E8
:100A2000EAD0B44240F29080574606E001367A1C84
:100A3000B4423B7040F28980174633785C2BF5D185
:100A40007378752B18D85B2B12D9A3F15C02192A85
:100A500012D8DFE802F07511111111117011111186
:100A60006B111111111111116611111161115C1627
:100A7000222B65D02F2B63D0D8F8143050469847DE
:100A8000BBE7A31B052BF7DDB01CFFF767FFA0F545
:100A90005C43B3F5806F0546EED3A0F55843B3F53C
:100AA000806F61D2B31DE31A052BE5DDB3795C2BB2
:100AB000E2D1F379752BDFD106F10800FFF74EFF85
:100AC000A0F55C42B2F5806FD6D2374AC0F3090375
:100AD00002EA8522134303F580350C214FF0F00E16
:100AE0000323042207EB030C05F03F00013B60F0F9
:100AF0007F0013F0FF030CF801094FEA9515F3D1BD
:100B00004EEA050E5FFA8EF33A440E4490E7022156
:100B10007A1C09230E448BE702217A1C0D230E4414
:100B200086E702217A1C0A230E4481E702217A1CFF
:100B30000C230E447CE702217A1C08230E4477E73D
:100B400002217A1C0E4473E75246002313701023CF
:100B5000C9F80C30D8F80030C9F810A0E31A0133F6
:100B6000C8F8083001204EE77F2804D80122C3B21C
:100B700006213A44C9E7B0F5006F05D206214FF0CF
:100B8000C00E01230222ADE7B0F5803F05D2062159
:100B90004FF0E00E02230322A4E7B0F5881FBFF454
:100BA0006BAF06219AE700BF00FC0F000146E8B1D9
:100BB0000068E0B110B4D1E90143A3420CD25A1E3F
:100BC000024403E001339C428B6009D012F8010F0C
:100BD0002028F7D99C4203D008465DF8044B7047A3
:100BE000013C8C6008465DF8044B704770477047C5
:100BF00018B1084A0168914206D0074B074AD3F85A
:100C0000A030074900201847034A0021D2F8982055
:100C1000016010470FB03713900300207C86010855
:100C2000748E010810B418B10C4B04689C4208D0B3
:100C30000B4B0C4AD3F8A0300B495DF8044B002055
:100C40001847042A02D1064B084AF3E702EB820256
:100C500000EB8200C1745DF8044B70470FB037138E
:100C6000900300207C860108748E01089486010898
:100C700038B50D461849864600F1FF3C00F1EB04FB
:100C80004FF0FF321CF8013F08205A4042F30003A6
:100C90000B40013883EA5202F8D1A445F2D1DEF8C4
:100CA000EC30D24393420CBF0124002407D00B4BFD
:100CB0000B4AD3F8A0300B499847204638BDBEF800
:100CC000003040F2E51202FB03F31B0CA3F589731D
:100CD0002B80204638BD00BF2083B8ED9003002054
:100CE000AC860108C886010838B568B10D4659B10F
:100CF00084682CB909E00BF035FA30B1246824B1CE
:100D0000216A28460029F6D10024204638BD00BFBC
:100D10002DE9F8430D469549DDF820900446174625
:100D20009846FFF7E1FF18B1037B082B00F00E8116
:100D300000268F492046FFF7D7FF88B1037B082B99
:100D40000ED1416925B18B4B2A689A4200F063812C
:100D5000894B8A4AD3F8A030894900209847012658
:100D600088492046FFF7C0FF88B1037B082B0ED1CE
:100D7000416925B17F4B2A689A4200F037817E4B4A
:100D80007E4AD3F8A0307E490020984701267E494C
:100D90002046FFF7A9FF88B1037B082B0ED14169DC
:100DA00025B1744B2A689A4200F02B81724B734A2A
:100DB000D3F8A03072490020984701267349204695
:100DC000FFF792FF88B1037B082B0ED1416925B153
:100DD000684B2A689A4200F0FF80674B674AD3F855
:100DE000A030674900209847012669492046FFF74F
:100DF0007BFF88B1037B082B0ED1416925B15D4B88
:100E00002A689A4200F030815B4B5C4AD3F8A030EC
:100E10005B490020984701265E492046FFF764FFA2
:100E200080B1C3689A070DD025B1524A2968914212
:100E300000F00681504B514AD3F8A03050490020B1
:100E40009847012654492046FFF74EFF80B1C368FA
:100E500098070DD025B1474A2968914200F0FA80E1
:100E6000454B464AD3F8A030454900209847012613
:100E70004A492046FFF738FF80B1C36899070DD073
:100E800025B13C4A2968914200F0D0803A4B3B4A58
:100E9000D3F8A0303A49002098470126404920461F
:100EA000FFF722FF80B1C3689A070DD025B1314A00
:100EB0002968914200F0E2802F4B304AD3F8A030ED
:100EC0002F4900209847012636492046FFF70CFF9E
:100ED000002839D0037B102B36D1046932492046D3
:100EE0000BF040F9002800F0DB80304920460BF081
:100EF00039F9002800F02A812D4920460BF032F9FB
:100F0000002800F0C5802B4920460BF02BF9002863
:100F100000F02A81284920460BF024F9002800F02F
:100F20002981264920460BF01DF9002800F0168182
:100F3000234BC8F8003000200126B9F1000F01D082
:100F400089F80060BDE8F8830120F6E741691DB12A
:100F5000084B2A689A4235D0074B084AD3F8A0308C
:100F60000749002098470126E3E600BFD086010824
:100F7000A89801080FB03713900300207C86010861
:100F8000748E01089498010884980108209801083B
:100F900074990108DC860108E8860108F8860108D2
:100FA0000C87010830990108288701083487010857
:100FB000408701084C870108548701085C870108B5
:100FC000803E0108042F71D16D4B6E4AD3F8A030DA
:100FD0006D4900209847C6E7042F78D1684B694ACD
:100FE000D3F8A030684900209847FDE6042F40F070
:100FF0009080634B634AD3F8A03063490020984740
:10100000C4E6042F74D15E4B5E4AD3F8A0305E492B
:1010100000209847D1E6042F40F08C80584B594A65
:10102000D3F8A03058490020984798E6042F54D1AF
:10103000534B544AD3F8A0305349002098472CE72B
:10104000042F6CD14E4B4F4AD3F8A0304E490020AC
:101050009847F6E6042F51D1494B4A4AD3F8A030BD
:1010600049490020984702E7042F69D1444B454A7B
:10107000D3F8A030444900209847CCE6042F1BD178
:101080003F4B404AD3F8A0303F49002098471AE729
:101090003A4602212846FFF7C5FD012006464CE7E7
:1010A00001463A462846FFF7BDFDF6E707EB870302
:1010B00005EB8303596056E7A3F1020307EB8702B0
:1010C000B3FA83F305EB82025B095374FBE607EB8B
:1010D000870305EB8303998186E6A3F1020307EBFF
:1010E0008702B3FA83F305EB82025B091374D4E63B
:1010F00007EB870305EB830319755EE6A3F1020393
:1011000007EB8702B3FA83F305EB82025B09937462
:10111000ADE607EB870305EB8303598136E6A3F1C0
:10112000020307EB8702B3FA83F305EB82025B0944
:10113000D37386E607EB870305EB830319810EE67D
:1011400007EB870305EB8303997364E628463A4669
:1011500001210126FFF766FD3046EEE63A460521FD
:101160002846FFF75FFD98E73A4603212846FFF738
:1011700059FD92E73A4604212846FFF753FD8CE7D4
:101180009003002094860108748E0108074B10B567
:101190005B6828209847044628B1282200210EF0D9
:1011A0002DFA2023E360204610BD00BF0000002080
:1011B00070B5114E114A3368A2FB03239B09013B12
:1011C000B3F1807F01D3012070BD4FF0E0220C49C4
:1011D0005361F02381F82330002507230F28956100
:1011E00004461361EFD801464FF0FF300AF0F2FBDE
:1011F0003461284670BD00BF00000020D34D62104E
:1012000000ED00E000283FD070B504460068E0B172
:101210006368BBB9002918DBA268013111448B4215
:1012200015D223698BB9B1F1804F12D2236A4D00D8
:10123000B3B129469847064600B3A068C4E90065E3
:10124000304470BDA2689342E4D8002070BD1044C1
:1012500070BD0029F9DB236A6FF00045002BE8D14F
:10126000A36928469847064640B1A2682168013222
:101270000EF098FBE36920689847DEE7E369206891
:101280009847C4E90066E0E70020704738B5084B8E
:10129000D3E92A4500212A4620460EF0AFF90AF08C
:1012A00049FCA9B22046BDE838400AF0BDBB00BFEA
:1012B0009003002038B52A4A0368D2F88C501B6886
:1012C0009B061BD4846A2368A2685868616820F072
:1012D000200058609AB15868B1F5827F20F0010073
:1012E000586022D02946204608F04AFCB0B90123B4
:1012F0000022A4F8462084F85D30236E38BD5A6879
:10130000B1F5827F0CBF22F0030222F001025A6085
:101310002946204608F034FC0028E8D0236E43F02C
:101320002003236620232366E1E7B2F5004F12D1A4
:101330001A6822F0400229461A60204608F020FC74
:101340000028EBD12A464FF4C061204608F0B8FBD4
:101350000028CCD0E2E7B2F5806FE9D0C2E700BF49
:1013600090030020F8B51C4D0368D5F88C701B68FD
:10137000846A9B062CD42668736823F0200373606C
:101380003A464FF4C051204608F09AFB58B9394606
:10139000204608F0F5FB30B93A464FF4C0612046CC
:1013A00008F08EFB38B1236E43F020032366236ED2
:1013B00043F020032366736823F003037360002265
:1013C0000123E287A4F8462084F85D30236E13B928
:1013D000012385F8B030F8BD90030020264B2DE99D
:1013E000F0415B680546282057EC106B884698470B
:1013F000044690B1282200210EF000F90823E36092
:10140000C4E906671AA3D3E90023304639460BF036
:1014100051FB60B16FF000436361284622464146AC
:101420000AF0E2F80546A0B12046BDE8F081134B72
:101430000022304639460BF033FB88B14FF00043B1
:1014400028466361224641460AF0CEF80546002848
:10145000EAD120462C46FFF751FA2046BDE8F0813C
:10146000304639460BF050FB6061D6E7AFF30080A1
:101470000000C0FFFFFFDF41000000200000E0C1CE
:101480000E4B70B55B68054628200E46984704460B
:1014900028B1282200210EF0B1F82023E36028466D
:1014A000224631460AF0A0F8054608B1204670BD34
:1014B00020462C46FFF722FA204670BD000000208F
:1014C000F8B50F4B06465B6828200F46154698472F
:1014D000044628B12822002101350EF08FF8E5607E
:1014E0002246394630460AF07FF8054618B1201EDC
:1014F00018BF0120F8BD2046FFF700FA2846F8BDC6
:10150000000000202DE9F843DFF880800646D8F877
:10151000043028200F461546984740B30446282239
:1015200000210EF06BF81023E360EDB128460AF0BD
:1015300077FE00F10109D8F8043048469847804604
:1015400088B129464A460EF02DFAC4F8108022468A
:10155000394630460AF048F8054688B1201E18BFC3
:101560000120BDE8F88320612046FFF7C7F9002479
:101570002246394630460AF037F805460028EDD1B4
:101580002046FFF7BBF92846BDE8F883000000209D
:10159000002849D02DE9F84384685CB3DFF88C90CB
:1015A0000F4616E0D9F80430D4F820809847282256
:1015B0000021064658B30EF021F8022D18BF012570
:1015C000F5603246414638460AF00EF840B32468CA
:1015D00084B1E568AA074FF02800EBB2E2D1102BE6
:1015E00038460AD12269216AFFF78CFFA8B1246826
:1015F000002CEED10120BDE8F883082B0DD194ED2D
:10160000060B216AFFF7EAFE0028E0D105E002465A
:101610004146384609F0E8FF10B10020BDE8F883E4
:101620003046FFF76BF9F8E7012070470000002013
:10163000002900F0AF802DE9F04705460846002D4F
:1016400000F087802C78002C00F08E80534F2A46C3
:10165000002607E0072C54D9DB0750D5013612F8D5
:10166000014F64B1A4F10803DBB2222C27FA03F383
:10167000F0D95C2CF2D012F8014F002CF2D1541B9F
:1016800004EB060A0AF10301FFF7BCFD0746002838
:101690005AD001300AF101088146002E7CD0222365
:1016A0003B702B78002B3BD05C240AE0222B0AD025
:1016B0005C2B08D089F8003015F8013F09F10109C9
:1016C00073B31F2BF2D8484600F8014B2A78222A20
:1016D00019D8072A19D9A2F108031A2B15D8DFE85F
:1016E00003F0362531142F2A14141414141414146E
:1016F00014141414141414141414141426001F2C89
:10170000ADD80536ABE75C2A11D0254910F096FA22
:1017100015F8013F09F1050909F10109002BD0D1A4
:10172000222327F808300120BDE8F087742289F8C9
:1017300001208146C0E7722289F801208146BBE77B
:101740006622F4E76E22F2E70020BDE8F08762220D
:10175000EDE70321FFF756FD0028F5D0114B1A885D
:101760009B7802808370DEE70321FFF74BFD07467D
:101770000028E9D04FF001080226A2464044222466
:10178000524629463C700EF00DF9002307F8084038
:10179000BB55C8E700207047A61CF0E737000004DF
:1017A0006887010864870108002800F0F7812DE9A7
:1017B000F0430C4689B000293AD0037B202B054624
:1017C00025DCABB3013B1F2B32D8DFE813F043001D
:1017D00035003100E7003100310031009E0031005A
:1017E0003100310031003100310031009900310009
:1017F0003100310031003100310031003100310061
:101800003100310031003100310031005000402BF7
:1018100000F0DF80802B0BD1006948B10AF000FD99
:10182000461C31462046FFF7EDFC002840F076814B
:10183000002009B0BDE8F08305212046FFF7E2FC57
:1018400003460028F4D0B14A1068127918601A7162
:101850000120EEE706212046FFF7D4FC03460028CE
:10186000E6D0AB4A1068928818609A80F0E70121B0
:101870002046AD68FFF7C6FC0028D9D05B23037073
:10188000D4E9022301320133C4E90223002D00F020
:1018900093802C274FF02008002608E001300670C6
:1018A000A3682D684B44A360002D00F0858021467D
:1018B0002846FFF779FF0028BAD0206830B1D4F865
:1018C000089048440AF0ACFC4844A0602B68002B08
:1018D00072D06369002B0CBF0221032120460CBF8C
:1018E0004FF001094FF00209FFF78CFC00289FD050
:1018F00007706369002BD1D080F801800230CEE7F9
:10190000006909B0BDE8F04392E6D0E9066700231C
:10191000CDE90133CDE90333CDE90533ADF81C3012
:1019200032463B46304639460BF0D8F8A8B927F086
:101930000049784B4FF0FF32304649460BF0CEF865
:10194000002840F0F080734B304649464FF0FF329C
:101950000BF0A6F8002840F0E6806F4B93E80300F8
:10196000042601908DF80810711C2046FFF74AFCF0
:1019700000283FF45DAF56B1751E01AB421E054411
:1019800013F8011B02F8011FAA42F9D130440023C9
:101990000370A36833440120A3604AE70521204671
:1019A000FFF730FC034600283FF442AF5A4A106864
:1019B000127918601A714BE702212046FFF722FCCA
:1019C00000283FF435AF5D230380E368013BE3600B
:1019D0003EE74B69AD68002B08460BBF022103218F
:1019E00001260226FFF70EFC00283FF421AF7B23DF
:1019F0000370E3680133E3606369002B40F0A58066
:101A0000A2683244A260002D00F0CA8009263A275D
:101A10004FF02C08002B40F0A280286A2146FFF7E7
:101A200007FE00283FF404AF206830B1D4F80890D6
:101A300048440AF0F5FB4844A0606369002B0CBFE2
:101A40004FF001094FF0020949462046FFF7DAFB43
:101A500000283FF4EDAE0770636903B14670A368D8
:101A60004B44A36021462846FFF79EFE00283FF422
:101A7000DFAE206830B1D4F8089048440AF0D0FBBB
:101A80004844A0606369B3F100092B6818BF4FF0A8
:101A90000109002B18BF09F1010909F101012046D4
:101AA000FFF7B0FB00283FF4C3AE2B680BB100F882
:101AB000018B636913B10A2300F8013B0023037013
:101AC000A3682D684B44A3606369002DA2D1002B4D
:101AD00066D0E16801312046FFF794FB00283FF40F
:101AE000A7AE63695BB1E368012B08D0002209212E
:101AF00000F8011BE3680132013B9A42F8D37D23D1
:101B00000380E368013BE360A2E600BF8087010831
:101B100078870108FFFFEF7F708701082969324647
:101B20000DF040FF94E66D6928460AF0D3FC0246AA
:101B30000B46304639460AF09FFF20B319492A4622
:101B400001A810F07BF806460EE70A234370A2684E
:101B500063693244A260002D7FF458AFB7E7E168B3
:101B60002046FFF74FFB00283FF462AEE26832B137
:101B7000002300F8016BE26801339342F9D3A368B4
:101B80001344A36049E7324607493B4601A810F0D9
:101B900055F8192806463FF64BAEE5E6002070479B
:101BA000022198E7288E0108888701082DE9F04175
:101BB0002F4D8AB02C4624220F460646002101A84C
:101BC0000DF01CFD54F8043F4FF4807098474FF41B
:101BD00080720292002203460190069294E8070068
:101BE0000AAC04E907004BB301A93846FFF7DCFD56
:101BF00000B3019F039C27B138190AF011FB04447C
:101C00000394D5F80C80611CB8F1000F1AD0384647
:101C1000C047044670B120460AF002FB0A23235451
:101C2000411C2046B0472046AB68984701200AB0C7
:101C3000BDE8F081019808B1AB68984700200AB070
:101C4000BDE8F0816B680846984704460028F1D04B
:101C5000039A029B019901329A4228BF1A460DF05D
:101C6000A1FE039B04F803800198AB689847D2E774
:101C7000000000200CB4F0B5A9B02EAB054653F817
:101C8000042B01930E4602A8962110F0ABF995287B
:101C9000C4BF314BCDF89A30304B28205B68984751
:101CA000044600B3282200210DF0A8FC4023E36085
:101CB000042D15D8DFE805F0221E1C032000284D56
:101CC000284B2949D3F88C709FED210B2046FFF754
:101CD00085FB28B1254A26492046FFF713FC78B931
:101CE0002046FEF70BFE29B0BDE8F04002B0704779
:101CF000204DE5E7204DE3E7204DE1E7204DDFE70C
:101D000038460AF0D7FB41EC100B1E492046FFF77E
:101D100065FB0028E4D01C492A462046FFF7F2FB69
:101D20000028DDD0194932462046FFF7EBFB00289A
:101D3000D6D00E4902AA2046FFF7E4FB0028CFD0F8
:101D400021461348FFF732FFCAE700BFAFF3008018
:101D500000000000000000002E2E2E0000000020D9
:101D6000A087010890030020B8870108C8870108F0
:101D7000CC8701089887010890870108A887010887
:101D8000B0870108D4870108E0870108E8870108C7
:101D9000FD5D000838B50C460546044A0449234653
:101DA0000220FFF767FF6C8238BD00BFF087010893
:101DB0002488010838B50C460546044A04492346E0
:101DC0000220FFF757FF2C8238BD00BF448801086E
:101DD0002488010838B50C460546044A04492346C0
:101DE0000220FFF747FFA5F86E4038BD788801084C
:101DF0002488010838B50C460546044A04492346A0
:101E00000220FFF737FFA5F8704038BDB4880108FD
:101E10002488010838B50C460546044A044923467F
:101E20000220FFF727FFA5F8504038BDEC880108D5
:101E30002488010838B50C460546044A044923465F
:101E40000220FFF717FFA5F84E4038BD2089010892
:101E5000248801082DE9F04F564A5749DFF8789158
:101E6000DFF87881554F83B00220FFF703FFA9F117
:101E7000BC05D5F8B830002B4BD04FF0000BDFF885
:101E800060A15E4627E0D5F8A0304D4952460020BB
:101E9000984700236360A06818B10FF051FC00233D
:101EA000A360A36953B11A68BA4223D0D5F8A03011
:101EB000444A4549002098470023A361206D18B18A
:101EC0000FF03EFC00232365D5F8B8300136B3424D
:101ED0000BF15C0B1DD9D9F800405C446068002808
:101EE000D9D003684345CED10022D5F8983002609E
:101EF0009847CEE7586828B1C26801939047019B84
:101F000000225A600021D5F89820196018469047A1
:101F1000D2E72E4B09F104099945AAD1D5F8B4307E
:101F2000002B43D00027DFF8BCA0DFF8BC90DFF81F
:101F3000BC803C463E46BB461FE0D5F8A0309847E3
:101F4000D5E93920171900234FF48051135187F830
:101F5000F43040F80B30C9F8281009F09BFA164904
:101F6000334642460220FFF785FED5F8B430B3422F
:101F700004F1F8040BF1040B18D9D5F8E4301F591B
:101F80000136002FF1D03B68114A124953454FF0FA
:101F90000000D2D1386900233B6010B1D5F89830E9
:101FA0009847D5F8983038469847C9E703B0BDE858
:101FB000F08F00BF54890108248801080DB0371341
:101FC000748E01086C890108888901087404002056
:101FD00094890108C88601084C0400200FB037130B
:101FE0007C8601080EB0371300040048AC89010854
:101FF000F8B52B4B07465B6828200D4616469847D8
:10200000044600B3282200210DF0F8FA40232549A8
:10201000E3602A462046FFF775FAF0B9224D234BBC
:10202000D5F8A070224A23490020B8472EB1224992
:1020300032462046FFF766FAF8B100252046FEF743
:102040005DFC2846F8BD184A1C4BD2F8A05019492F
:10205000174AA84725462846F8BD9FED0F0B18499B
:102060002046FFF7BBF90028D8D076B11249324696
:102070002046FFF747FA40B90B4DD5F8A0500B4B5F
:102080000B4A0C490020A847D7E721463846FFF7FE
:102090008DFD0546D2E700BF0000000000000000F3
:1020A00000000020CC87010890030020A83E010812
:1020B000B08F0108C8890108E0890108943E010831
:1020C000B88701080A46F8B51F4906461046FEF7CC
:1020D0000BFEF8B11D4B04465B6828209847054667
:1020E00028B1282200210DF089FA4023EB6029460F
:1020F0002046FFF74DFAA8B1154CD4F8F80008B106
:10210000FEF7FCFB3068C4F8F850124A1249BDE8EB
:10211000F8406DE70E4B114AD3F8A03010499847AC
:102120000020F8BD0A4A34680E4BD2F8A0700C4962
:102130000D4AB8470B4A0D492046FFF759FF28467C
:10214000FEF7DCFB0020F8BD908D010800000020A8
:1021500090030020188A01082C8A0108E8890108E8
:10216000C8890108BC3E0108F8890108B88D01083A
:10217000F8B51F4C94F8FC3005465BBB0E461D4F6E
:10218000C4F800311C490123304684F8FD303B750A
:10219000FEF7AAFD38B1037B082B04D1436923EA7B
:1021A000E373C4F8003115493046FEF79DFD40B198
:1021B000C3689A0705D0A3F10203B3FA83F35B095E
:1021C0003B750123286884F8FC300D4A0D49BDE8B1
:1021D000F8400DE7D4F8A06004680B4B0B4A0C499B
:1021E0000020B0472046084A0A49BDE8F840FFE60B
:1021F0009003002000000020308A01083C8A01087A
:10220000488A010838A101085C8A0108F889010898
:10221000C8890108B88D01080C4B93F8FC2010B553
:10222000044642B1002283F8FC202068084A09498C
:10223000BDE81040DCE693F80421012AF5D9D3F873
:10224000A030054A054902209847EEE79003002098
:10225000848A0108948A0108708A0108C8890108E3
:1022600070B51C4D95F8FC3004466BB10468D5F888
:10227000A050194A19491A4B0020A8472046184A6D
:102280001849BDE87040B3E608461749FEF72CFD33
:10229000034680B1027B2668082A0DD13046134AD6
:1022A00013495E69FFF7A4FEA36805460BB13046EB
:1022B0009847284670BD2668D5F8A040064A0749C9
:1022C0000C4B0020A04730460A4A0649BDE8704042
:1022D0008EE600BF90030020F8890108C889010834
:1022E0009C8A0108B88D0108E88A0108C48A01089F
:1022F0002C8A0108D48A010838B50E4B046893F87B
:10230000FC10D3F8A05051B908460B4B0B4A0C49AE
:10231000A8472046084A0B49BDE8384068E60A4B02
:10232000064A07490020A8472046074A0549BDE854
:1023300038405DE690030020248B0108F8890108ED
:10234000C8890108B88D0108F48A01082DE9F04117
:10235000694E05467368282098470446D0B1282264
:10236000002140270DF04AF9644A6549E76020469C
:10237000FFF7C8F8C8B9634A634BD2F8A050634965
:10238000634A0020A84700252046FEF7B7FA2846F2
:10239000BDE8F0815B4A5F4BD2F8A0505B495C4AD4
:1023A000A84725462846BDE8F0819FED510B5A49C4
:1023B0002046FFF713F80028DDD0736828209847DF
:1023C000064600283DD0282200210DF017F9534978
:1023D000F7603246204609F007F9514A5149304624
:1023E000FFF790F8002838D1DFF81881484AD8F86C
:1023F000A070484B45490020B847D8F8082142B39F
:1024000049493046FFF77EF818BB0020D8F8A07085
:10241000404B3F4A3D49B847E8680028B3D00AF02E
:1024200059F841EC100B41493046FEF7D7FF002820
:10243000A9D1D8F8A050374B354A34490020A847D5
:10244000A1E7304A334BD2F8A0503049304AA84770
:1024500099E7E868002896D0E1E7354A35493046E3
:10246000FFF750F80028BFD068690AF033F841EC54
:10247000100B31493046FEF7B1FF0028B4D0DFF829
:102480008480D8F8B4000AF025F841EC100B2B49F1
:102490003046FEF7A3FFD8F8082107462AB12249A3
:1024A0003046FFF72FF80028AFD0E868002FD1D0D2
:1024B00090B9D8F8F80048B13146FFF769F828B963
:1024C000D8F8A0301E4A114998475CE72868214691
:1024D000FFF76CFB054657E709F0FCFF41EC100BDA
:1024E00012493046FEF77AFF0028E2D1A1E700BF8B
:1024F0000000000000000000000000202C8A0108FD
:10250000CC87010890030020A83E0108C889010873
:10251000B08F0108943E0108B88701083093010884
:10252000CC3E01083C8B01086C8B0108848B0108B0
:102530002C9B0108C8860108488B01085C8B0108A8
:10254000708B01082DE9F04F514E83B0736805463A
:10255000282098470446D8B1282200210DF04EF8D3
:1025600040234C4A4C49E3602046FEF7CBFFD8B9E4
:102570004A4A4B4BD2F8A0504A494B4A0020A84740
:1025800000252046FEF7BAF9284603B0BDE8F08FD3
:10259000424A464BD2F8A0504249434AA8472546F2
:1025A000284603B0BDE8F08F9FED370B4049204629
:1025B000FEF714FF0028DBD0736828209847804678
:1025C000002849D0282200210DF018F8DFF8CCA00F
:1025D00038492023C8F80C304246204609F004F858
:1025E000DAF8B43001934FF00009002B43D0736840
:1025F0002820984707460028C2D0282200210CF046
:10260000FDFFDAF8B4202C4909F1010B934598BF7E
:10261000DAF8F0204FF0400398BF12F80920FB6071
:1026200088BF00223846FEF74BFFB84507D0D8F8E0
:102630000820CAB1516811B10F6079605760019BE1
:102640009B4516D000289BD0736828209847D94610
:1026500007460028D1D193E7104A144BD2F8A05076
:102660001049114AA8478BE7C8F80870C7E9002746
:10267000E5E7002884D028682146FFF797FA054649
:102680007FE700BFAFF30080000000000000000003
:10269000000000202C8A0108CC870108900300204C
:1026A000A83E0108948B0108B08F0108943E0108F0
:1026B000B887010820930108B08B01082DE9F04F7D
:1026C0002DED028B824B834F91B0CDE9041003F1C5
:1026D0000805AA46A3F1B4090A95D9F8B830002B29
:1026E00000F007824FF000084546DAF8003003EBAF
:1026F000080BDBF80400002800F0A280DBF80820BB
:1027000053F80830744E754CC6F86421002A08BF8F
:10271000002403F18042C6F85C41D9F8E810013A80
:102720000024C6F8604151F82220904200F05A81FE
:10273000C3EB4313DB00F83BD9F8E420DBF850107F
:10274000D458069102EB030CDBF85430079324B104
:102750002368634A934200F06E81D9F8A030614A41
:10276000614900209847DBF80030D9F8E810DBF821
:10277000040003F18042013A41F8220000228BF864
:102780001420D9F8E420C3EB431302EBC30252F840
:10279000F83C23B11A6852498A4200F07F81D9F887
:1027A000A030504A504900209847059B23B1D9F8E2
:1027B000B820002A00F08885DDF810804B4BC8F85F
:1027C0000030002011B0BDEC028BBDE8F08F0CF1A1
:1027D00004030893031D099343F21C03A0680D939F
:1027E000032201230DA9ADF8386006F087FCBDF87F
:1027F000383003F40063002B14BF0123002323733C
:1028000000F05281A0680999A61D0396261D029624
:1028100024690194069C0094DDE9073206F09AFDD4
:10282000DBF80030D9F8E810DBF8044003F180420F
:10283000013A41F8224000228BF814200028A0D051
:10284000D9F8B8300135AB4208F15C083FF64DAF1E
:10285000059A002A00F0FE82002B00F00582002479
:102860002646DAF8003003EB0408D8F80420002AE2
:1028700056D01B59D9F8E420C3EB431302EBC30233
:1028800052F8F85C25B12B68154A934200F0BD80E0
:10289000D9F8A030134A144900204646DDF81080CC
:1028A00098473368D9F8E420C3EB431302EBC30223
:1028B00052F8F83C23B10A4A1968914200F0E680C8
:1028C000D9F8A030074A08490020984776E700BFAA
:1028D000440400202083B8ED00000020CD0800084B
:1028E0000EB0371394890108C8860108443F0108D7
:1028F000D5F810B0A8689BF8C611012206F086FE34
:102900009BF8C531002B00F0CD809BF8C631022B1F
:102910000CBF012302238BF8C631002800F0BA80D7
:10292000D9F8B8300136B34204F15C0499D8002BD1
:1029300000F0E380DAF800204FF0000802EB080412
:10294000464663682046DBB109F0ECF9059B1B693C
:1029500005460BB198470346D9F8B820A365013660
:10296000B24240F29383002D3FF426AFDAF8002004
:1029700008F15C0802EB080420466368002BE3D1F1
:10298000D9F8B83001369E42F2D3002B00F06C81AA
:102990004FF0000BD846CDF81CA002EB0B04636887
:1029A000002B00F0078352F80B30D9F8E420C3EB7A
:1029B000431302EBC302236D52F8F85C0693626D79
:1029C00025B12B68AE498B4200F02483D9F8A030A2
:1029D000AC4AAD49DDF810800020A2469847DAF8ED
:1029E00000305FE79BF80C20002A3FF429AF9BF8EA
:1029F0001420002A7FF49CAED9F8B8300135AB42E0
:102A000008F15C083FF671AE22E72B7B002B7FF4C8
:102A10006FAFA868152106F0BDFD00283AD04FF031
:102A200001032B73D9F8B8300136B34204F15C04CA
:102A30003FF617AF7BE70CF103010CF1EF0E4FF0FF
:102A4000FF3211F8013F08265A4042F300033B4091
:102A5000013E83EA5202F8D18E45F2D1DCF8F03023
:102A6000D24393420BD10368884A93423FF4AFAEFE
:102A7000D9F8A030864A87493046984773E6D9F896
:102A8000A030854A8049304698476CE6986809F03E
:102A9000C9F893E64646DDF8108002E7986809F029
:102AA000C1F882E6012336E743F23103A0680D93B3
:102AB0000DA901230322ADF8386006F01FFB237B2C
:102AC000BDF83810002B7FF49DAE4AF6C04291420B
:102AD000A06823693FF497AEA61D01930434069BBA
:102AE000009309990396DDE90732029406F02CFF62
:102AF00096E6059B002B00F0B681684B534540F0ED
:102B0000B681DDE904820A9D002A00F0DB80644F73
:102B100016687B68282098470446002800F09581B5
:102B2000282200210CF06AFD4023E36028207B6806
:102B3000049498470446002800F0C8832822002106
:102B40000CF05CFD2023E36022465649049808F00F
:102B50004BFD00230B94AA462C460693B3464546EC
:102B6000D9F8B800002879D0266800EB4002C0EB05
:102B7000C2000436002201E090426FD056F82230A5
:102B80001732002BF8D07A68282090470790002849
:102B900000F01A81282200210CF030FD079B4249E9
:102BA0000B982022DA601A4608F01EFDD9F8B820EA
:102BB000002A53D0CDE908BA216805954FF00008E6
:102BC0005C2303FB08167368002B3ED07B6828202B
:102BD0009847054600287BD0282200210CF00EFDE6
:102BE0004023B06DEB6009F065FC41EC100B2F4900
:102BF0002846FEF7F3FB002876D14FF0000B337B1D
:102C0000002B40F0A880069AB38B02EB8303069357
:102C1000079BAB4208D09B68002B00F02B815A68C1
:102C200012B115606A605D60D9F8B83008F101082A
:102C3000984580F0BD80BBF1000F49D021685C232E
:102C400003FB08167368002BC0D1D9F8B83008F11F
:102C500001084345B4D8DDE908BA059D0F4BA342EE
:102C600000F0B48004347BE74FF0010B0B4B53456D
:102C70001ED00AF1040ABBF1000F7FF42EAD9BE5D4
:102C80000EB0371394890108C88601080FB03713B6
:102C90007C860108748E0108BC8B0108700400203A
:102CA00000000020C88C010874920108D48C01082F
:102CB000DDE904820A9DBBF1000F3FF47FAD002ADD
:102CC0007FF425AF012011B0BDEC028BBDE8F08F81
:102CD000DDF81480BD4ABE490020FEF7CBFF049802
:102CE000FDF70CFEBB4B6AE57B6896F838B02820F0
:102CF00098478246002800F02383282200210CF008
:102D00007DFC0BF10103B449CAF80C305246284649
:102D100008F06AFC002800F01B83B6F93C0009F0BB
:102D2000D9FB41EC100BAD492846FEF757FB0028B4
:102D30003FF463AF96F83A20A9492846FEF7C0FB56
:102D400000283FF45AAF96F83920A6492846FEF7E6
:102D5000B7FB834653E796F844207B680A92282005
:102D600098478246002800F0B682282200210CF005
:102D700045FC0A9B9C490133CAF80C305246284650
:102D800008F032FC002800F0AC82B37D002B3FF449
:102D90003AAFB06C09F0B0FB41EC100B93492846F8
:102DA000FEF71CFB002840F0D7824FF0000B2AE70B
:102DB0008F4A059DA2425B46DDE908BA00F0DF823A
:102DC0000434002B7FF4CCAEA84683E7A8465E46C9
:102DD0005546049C874A88492046FEF793FB002805
:102DE0003FF478AF069809F075FB41EC100B83496E
:102DF0002046FEF7F3FA00283FF46CAF2146304638
:102E0000FEF7D4FE00283FF46AAF7D4B03F1300794
:102E1000D9F8B8308BB10024A0462B6823445A68F7
:102E20001AB1998B186C8900B047D9F8B83008F1FD
:102E30000108984504F15C04EFD30435BD42E7D1A5
:102E40000498FDF75BFD01203DE7604A6049FEF70D
:102E500011FF47E7664A52453FF434AF0AF1040ACE
:102E6000002B7FF43FAC624B53453FF42BAF0AF18C
:102E7000040A32E4079A9560C5E90035D4E6BDF846
:102E800032302969069AC3F30013138091F8C431D4
:102E900033B191F8C631A3F10103B3FA83F35B09AF
:102EA000069E06947380B1F8C831B380B21D01F557
:102EB000E57301F5FD7AD3F800C05C689868D3F833
:102EC0000CE0C2F80CE010335345C2F800C0546067
:102ED000906002F11002EED1B1F8FA31F38606F1FA
:102EE000380201F5FE7301F50B7AD3F800C05C6877
:102EF0009868D3F80CE0C2F80CE010335345C2F8E0
:102F000000C05460906002F11002EED1B1F82C3292
:102F1000069CA6F8683006F16A0201F22E2301F23F
:102F20005E21D3F800E0D3F804C09868D3F80CA071
:102F3000C2F80CA010338B42C2F800E0C2F804C003
:102F4000906002F11002ECD1B5F806A02B69A868D8
:102F500093F8C631A9880696BAF5005F00F2DB80C7
:102F6000013B069A18BF012302EB41011A035346A5
:102F700006F002FF002800F07581BAF1000F00F0A2
:102F8000A280237BA569002B40F0B680266D25B179
:102F90002B681C4A934200F03181D9F8A0301A4ABC
:102FA0001A49002098472EB9D9F8A030184A174975
:102FB00000209847D9F8B83008F1010843450BF1D3
:102FC0005C0B6DD9079B1A68E7E400BF448D0108CC
:102FD00024880108243F0108DC8C01088C9001083A
:102FE000EC8C0108008D0108108D01081C8D010872
:102FF000700400202C8A0108CC870108B8870108DA
:10300000440400200DB037136C8901088889010839
:10301000B08C0108AB88E9880B44B2EB430F09D2AE
:10302000D9F8A030B24AB349DDF810800020A2469A
:103030009847D4E42B69A86808901E464FF0000C0E
:1030400096F8C6A1CDF830C043F2370E0322012313
:103050000DA9CDF834E0ADF838C006F04FF8BAF15C
:10306000010FBDF8382032D0BAF1020F0CBF802317
:10307000C02313EA02001FD1A246089BD9F8A04042
:103080009D4A9E49DDF81080A047A8E4AB46002A7F
:103090003FF4ECAD002D3FF48FABDAF8002077E47D
:1030A000DDF81CA0964A52453FF42BAD0AF1040A04
:1030B000002B7FF417AB20E596F8C61108980CAAF0
:1030C00006F0ECFA28B9DDF81080A24687E4402328
:1030D000CFE7BDF83030032B3FF4D1AEBDF832302E
:1030E0000093A246089BD9F8A040864A8349DDF8A0
:1030F00010800020A04772E4E889AB89D4F850A082
:103100000693C0B9D9F8A0307F4A8049DDF8108015
:10311000A246984763E4D9F8A0307D4A7D49DDF89E
:1031200010800020A2469847D9F8A0307A4A734907
:103130000020984753E4794B01228DF834201A6B14
:10314000002116460222CDE90E12069A0AEB420130
:1031500036B142005B6B08910DA8B047E889089929
:10316000012840F2AE80069B3AF91320831E9BB2E1
:103170008E1C06EB43060025134631F9022FD31AA5
:10318000002BB8BF5B428E421D44F5D107EE905A2A
:10319000F8EEE77A07EE100AB8EE470AB7EE007AC3
:1031A00030EE470A87EE800A0FF0EAFD637DF3EE0A
:1031B000047A20EE278A9FED5A7AD4ED047A38EE0D
:1031C000478A002B45D0B4EEE78AF1EE10FA4DDCC9
:1031D000012284F84420B4EEE78AF1EE10FA84F874
:1031E0004D30CCBF0123002384F84C3094BF012321
:1031F0000023A56984ED128A6375C7E6002E3FF4AB
:10320000D3AE69683834AC600868038F06EB4303BB
:103210004361B0F8943006EB4303C364B0F89630D2
:1032200006EB43030365D0F898304BB1B0F89C200F
:1032300006EB42021A61B0F89E2006EB42025A6188
:10324000B0F8E4204B6806EB4206C0F8B06098473F
:10325000B0E6B4EEE78AF1EE10FA1CD9002284F849
:103260004420B8E7DDF81080A2465DE701216268DE
:103270002175002184F844101AB12A4D1068A84223
:103280001DD0D9F8A030284A284900209847D4ED0D
:10329000047A637D9FE76268012121751AB1214D8F
:1032A0001068A84209D0D9F8A0301F4A1F49002051
:1032B0009847D4ED047A637DD0E7D173CEE7D1731C
:1032C00089E7DFED1B7A65E79346CFE4194A1A498F
:1032D000FEF7D0FC03E502461849284608F084F9B9
:1032E00010B95046FDF70AFB4FF0000B4DE500BF4B
:1032F000D08B0108C8860108E88B0108088C0108FA
:10330000700400201C8C0108A08C01088889010829
:10331000488C0108608C0108748C010800000020B2
:10332000000028420FB037137C860108748E010814
:1033300000000000448D010824880108108D010858
:1033400002461249284608F04FF900287FF455AC90
:103350005046FDF7D3FA50E496F84C200C49284625
:10336000FEF7AEF800283FF420AD96F84D2009494D
:103370002846FEF7A5F800283FF417AD43E4A84619
:103380005E465546002B7FF424ADA3E4DC8C010897
:10339000288D0108388D0108002955D02DE9F04FFE
:1033A000D1F8009093B00C46B9F1000F33D08D687E
:1033B000D1F804A02E1D5645074630D809EB050864
:1033C000B549042240460CF0B1FB00283ED005F17F
:1033D000050BDA4507D3B149052240460CF0A6FBA0
:1033E000002800F08B81AE49404604220CF09EFB81
:1033F00028B355450FD219F80530222B00F0F08084
:103400002D2B26D0A3F13002092A22D95B2B00F004
:10341000F1807B2B73D0002013B0BDE8F08F6E1DC0
:10342000B245E6D39D49052209EB05000CF07EFB71
:103430000028DED10123FB60A6600120ECE7022218
:103440000123FA607B61F7E7002070470423FB60EB
:10345000F2E7AAEB050A02AE013D0023DFF848E2DD
:1034600001934D4430464FF0010C15F8011FA1F1B6
:103470002B02D2B245290CFA02F200F2AD802A29C1
:103480000BD912EA0E0F01D12E2906D101333F2BA1
:1034900000F8011B01D09A45E7D148336B44002561
:1034A00001A9304603F8405C0BF06EFADDF804A089
:1034B000B24559EC108BAED075A3D3E9002340463A
:1034C000494609F0F7FA002840F09180754B002238
:1034D0004046494609F0E4FA002840F0D2804046D0
:1034E000494609F011FBA3687861AAEB060A082295
:1034F0005344C7E90689FA600120A3608CE7D4F839
:103500000C80B8F57A7F86D208F10103E36019F8E0
:1035100005307B2B7FF47FAF0135A5602046FDF79A
:1035200045FBA668B24540F2C38019F806307D2BF2
:1035300000F0DF800025013EA660A846A9463CE0D9
:10354000282200210CF05AF8B8F1000F00F0AE80EC
:1035500035606E60A36862680133934238D2A3601D
:103560002046FDF723FB21462846FDF71DFA78B3D8
:103570002046FDF71BFBD4E9012329692962934208
:10358000C5F8109024D22268D25C3A2A20D10133A7
:10359000A3602046FDF70AFB21462846FFF7FCFE04
:1035A000B0B12046FDF702FBD4E901369E420FD2AE
:1035B00023689B5D2C2B40F08A8023692820984744
:1035C0002E4605460028BBD1B8F1000F3FF423AFCB
:1035D0004046FDF793F91EE765297FF45EAF55E796
:1035E0002146384613B0BDE8F04FFDF7DDB96FF066
:1035F000004078E7D4F80C80B8F57A7FBFF40BAFC1
:1036000008F10103E36019F805305B2B7FF403AF89
:103610000135A5602046FDF7C9FAA668B24547D92D
:1036200019F806305D2B5FD0013E0025A660A84644
:103630001DE00BF0E3FFB8F1000F25D035606E60A0
:10364000A36801332046A360FDF7B0FA214628465F
:10365000FFF7A2FE0028BBD02046FDF7A7FAD4E969
:1036600001369E42B4D223689B5D2C2B23D1236963
:10367000282098472E462822002105460028D8D128
:10368000A2E74FF000402EE7A846D9E7AFF300804D
:103690000000C0FFFFFFDF41708701087887010845
:1036A000808701080000E0C1E57F0004A84651E7DB
:1036B000013EA660AFE65D2B8AD1E368013BE36083
:1036C000C8F804502023C7E902830136B4E67D2BF5
:1036D0007FF47EAFE368013BE360C8F80450402309
:1036E000C7E902830136A7E6C4F80C804FF0000852
:1036F000E8E7C4F80C804FF00008F0E75E4699E672
:1037000000285AD02DE9F041846882B024B30E68B5
:103710000D46002E4DD0D4F820802F46304603E0D1
:1037200057F8080F002845D0414608F01BFD002837
:10373000F6D13B79072B3CD8DFE803F0352E19048E
:10374000123B040B207BA0F11000B0FA80F040097E
:1037500080B32468002CDED1012002B0BDE8F081E6
:10376000207BA0F12000B0FA80F04009F0E7237B35
:10377000082B1ED1D4E9060141EC100BCDE9000164
:103780000FF0C8FDDDE9000153EC102B09F074F9CE
:10379000003818BF0120DBE7207BA0F10800B0FA59
:1037A00080F04009D4E7E06810F0030018BF012062
:1037B000CEE7002002B0BDE8F0810120704700BFD5
:1037C0002DE9F04F2DED028BDFF8F8B2C3B09BF876
:1037D000FC5006900024239495B10646DBF8A050D7
:1037E0009D4B9E4A9E4920463468A8479A4A9D4967
:1037F000204643B0BDEC028BBDE8F04FFEF7F8BBAE
:103800008A46FEF727FBDBF8E430974A0593974991
:10381000974BC2F898315046FDF766FA002847D119
:1038200094495046FDF760FA002877D0D0F8088018
:10383000B8F1000F00F03283434600221B680132CA
:10384000002BFBD1002A00F029838B4D8B4E0127E2
:103850004446237B402B40F0D98529462046FDF77E
:1038600043FA18B1037B082B00F01982844C854978
:103870002394002350468BF8F430FDF735FA20B13D
:10388000C3689A0740F00282239C0698DBF8A06088
:103890000568724A724923460020B04771492246A2
:1038A000284643B0BDEC028BBDE8F04FFEF7A0BB4D
:1038B000037B102BB4D104697349204608F052FCF5
:1038C000002800F046857149204608F04BFC00288E
:1038D00000F0D9826E49204608F044FC002800F030
:1038E000AE856C49204608F03DFC002801F0C880F8
:1038F0006949204608F036FC002801F0B1815D4995
:10390000664C23945046FDF7EFF95E498BF8F4506E
:103910005046FDF7E9F90028B2D1B6E78BF8F4007C
:1039200058495046FDF7E0F948B1C368990706D0F9
:10393000A3F10203B3FA83F35B098BF8F43058491F
:103940005046FDF7D1F9002800F03F858768002F29
:1039500000F03B85534C0126CDE90C4AB846A246FF
:10396000D8F80870002F8FD04FF0000ECDE908680E
:10397000CDF80CE0CDF808E044E03F493846FDF7CB
:10398000B3F9002851D0037B082B4ED14669002E95
:103990004BD0DBF8B4309E4247D8DBF8F0303344EC
:1039A00013F8013C002B40D0C6EB4618029B059A49
:1039B00049F803604FEAC808A8F1F8084B4404939B
:1039C00052F8083042440A92002B7DD0002307931E
:1039D00035493846FDF788F9804618B1037B402BFE
:1039E00000F0ED80314B2393079B2BB1304B4FF40C
:1039F00080529A6207F04EFD0020029B3F685C33C4
:103A00000293BFB1039B01331A460393DBF8B8302E
:103A10009A420DD83B7BDAF80090402BADD0254A76
:103A200025490020FEF726F9E6E7154B2393E3E747
:103A3000224C2AE7DDE9086800283FF425AFD8F8D2
:103A40000080B8F1000F00F0408401360B2E0AF11F
:103A5000040A85D11A4C18E7548D0108F889010829
:103A6000C8890108B88D010800000020788D010880
:103A7000000080BF848D0108C08D0108AC9E010844
:103A80006C400108988D0108B087010890870108F3
:103A900098870108A0870108A8870108AC400108A1
:103AA000488E01084C040020748E0108E84001088B
:103AB00000040048AC8D0108248801081440010866
:103AC000683F010890030020BA4B4FF480529A617E
:103AD00007F0E0FC029BB84A59F80330B7490220CE
:103AE000FEF7C8F8B6493722142005F0CFFF81460B
:103AF000002800F04D81B349782240F25E2005F0A5
:103B0000C5FF002800F03D810123A0F8C43180F8F2
:103B1000C6310024AC4BC9F81000C9F80030C9E91F
:103B2000014689F80D402146304605F035FE012357
:103B30000790002800F01C8443F21C0230463392A8
:103B400033A90322ADF8D04005F0D8FABDF8D06013
:103B500016F4006640F08481D9F8080005F090FE64
:103B6000D9F80840032240F249130092314620461A
:103B700005F056FE40F24913042202212046009629
:103B800005F04EFE40F24913102204212046009613
:103B900005F046FE40F249132022052120460096FA
:103BA00005F03EFE40F24913009620464FF47F5246
:103BB000062105F035FE059B43F8089008E7834988
:103BC000FFF79EFD0646002800F06B8380495022D7
:103BD0006C2005F05BFF8146002800F0E0807D4B03
:103BE00040F8043B68227C490BF0DCFE7B494046F0
:103BF000FDF77AF833AB0093064623AB0022494623
:103C00004046FDF785F80346002800F0A883002E03
:103C100000F06F819DF8CC30002B40F01C84B2681E
:103C20001646002A00F059816D4CCDF82C801E46B6
:103C3000B8461D46174621463846FFF761FD002865
:103C400000F06184731C32460095DEB2494623AB16
:103C50003846FDF75DF8002800F07F833F68002FAD
:103C600000F03881042EE6D15A4BD9F800205D4986
:103C700023919A42474600F01E83DBF8A0305A4A4F
:103C8000534900209847049B5D60ADE6A3F1020311
:103C9000B3FA83F35B09239C8BF8F430F5E5D0F895
:103CA0001480B8F1000F7FF7E1ADDBF8B430434585
:103CB000FFF4DCAD31462046FDF716F810B1037B6A
:103CC000102B01D0494CD2E5D0F81090484608F0AE
:103CD000A7FAB0F5F07F0DD0DBF8A030444A454993
:103CE000002044469847444A344923460220FDF7C1
:103CF000C1FFE7E7059AC8EB481302EBC303A3F142
:103D0000F500A3F1F80C09F10201864609F5F179F5
:103D1000CDF808C01AE0A3F16102052A20D8573B6C
:103D20001B01DAB211F801CCACF13003DBB2092B84
:103D300006D9ACF16103052B1AD8ACF15703DBB2FD
:103D40000231134349450EF8013F5DD011F8023CA2
:103D5000A3F13002D2B2092ADDD81201D2B2E1E7D2
:103D6000A3F14102052AB7D8373B1B01DAB2D9E7E4
:103D7000ACF14103052BAFD8ACF1370C5FFA8CF3F3
:103D8000DEE70023C9F810304846DBF89830984742
:103D90001A4B059A2393002342F8083026E6184B65
:103DA000184A06492393FDF765FF049BC3F8049066
:103DB0001AE600BF00040048508E0108248801085C
:103DC000C8860108088C01080EB03713FC400108B2
:103DD000748E01080FB03713B84101087C8E0108BA
:103DE000A84201088C4201087C860108884001082D
:103DF000CC8D0108E88D0108048E0108C840010837
:103E000020420108888E0108DDF808C0DFF8C0E014
:103E10000CF1EF094FF0FF3210F8013F08215A4032
:103E200042F3000303EA0E03013983EA5202F7D199
:103E30004845F1D1DCF8F030D243934240F0F987A5
:103E400024688CF8F470002C7FF403AD17498BF8CC
:103E5000F4405046FCF748FF00287FF466AD6EE55D
:103E6000DBF8A030124A134920469847D9F80030B1
:103E7000114A934200F03A83DBF8A0300F4A0D4913
:103E80000020984784E701230D498BF80431504600
:103E9000FCF72AFF00287FF4C9AC3FE5094A0A492C
:103EA0000A4C0220FDF7E6FEE1E400BF988D010810
:103EB00024910108C88601080EB0371394890108BF
:103EC000848D01082C8E01082488010834400108E3
:103ED0002083B8ED4746DDF82C80A34BD9F80020AD
:103EE0009A4200F03787DBF8A030A04AA0490020B2
:103EF0009847A0494046FCF7F7FE80B1037B082BAA
:103F00000DD1994AD9F800309342D0E9060100F06A
:103F1000C385DBF8A030954A95490020984796491B
:103F20004046FCF7E1FE78B1037B082B0CD18E4AAA
:103F3000D9F800104369914200F09E86DBF8A0306A
:103F40008A4A8B49002098478C494046FCF7CCFEB2
:103F500080B1037B082B0DD1834AD9F800309342FE
:103F6000D0E9060100F08C86DBF8A0307F4A80495A
:103F70000020984782494046FCF7B6FE70B1C368FE
:103F800099070BD0784AD9F80010914200F07E864C
:103F9000DBF8A030754A76490020984779494046B9
:103FA000FCF7A2FE70B1C3689A070BD06E4AD9F82D
:103FB0000010914200F07386DBF8A0306B4A6C4928
:103FC0000020984770494046FCF78EFE70B1C368E8
:103FD0009E070BD0644AD9F80010914200F0378652
:103FE000DBF8A030614A62490020984767494046A3
:103FF000FCF77AFE20B3037B102B21D106696449BC
:10400000304608F0AFF80346002800F016866149F4
:10401000304608F0A7F8002800F0A0865E49304638
:1040200008F0A0F8002840F0E1864F4BD9F80020B6
:104030009A4200F0FD85DBF8A0304C4A4C49984785
:1040400056494046FCF750FE20B3037B102B21D18C
:1040500006694F49304608F085F80346002800F00D
:10406000A7864C49304608F07DF8002800F0958678
:104070004949304608F076F8002840F0A3863A4BCC
:10408000D9F800209A4200F08386DBF8A030374A46
:1040900037499847049A4249C2F804900023936034
:1040A0003846FCF721FE804600283AD03D49FFF70C
:1040B00027FB002800F0A581012134200DF0E0FD50
:1040C0008146002800F07681374E06F130053468CD
:1040D00040462146FCF708FEB0B1027B082A234681
:1040E00012D1D9F800204169706809EBC202516011
:1040F000906000912D4A2E490220FDF7BBFDD9F8B2
:1041000000300133C9F800300836B542DFD1D9F8A4
:104110000030284A26490220FDF7ACFD049BC3F875
:10412000089025493846FCF7DFFD002800F0B380F1
:104130000499C2684B689507184600F0AE80022AC1
:104140000CBF012200220A733AD018B1064B026854
:104150009A4274D0DBF8A030044A05490020984701
:10416000164B239340E400BF0FB037137C86010841
:10417000748E010850970108A08E0108F09601087E
:10418000B48E0108CC8E0108D8980108E097010888
:10419000E08E0108EC8E0108F48E010800980108F9
:1041A000FC8E01085843010890430108208F010844
:1041B00024880108408F01085C8F0108C043010872
:1041C00000220A6100228A7501228A8223B1AD4948
:1041D0001868884200F0F385DBF8A030AA4AAB49A2
:1041E00000209847049B5B68002B40F0E683DBF8D7
:1041F000A030A54AA54900209847A5493846FCF7B4
:1042000073FD40B1027B082A05D1D0E9060108F010
:10421000C3FC049B18619F493846FCF765FD0028E4
:1042200000F00A81C3689C0700F00681A3F1020335
:10423000049AB3FA83F35B095068937585E70430F9
:1042400033A905F089F900288AD0049CBDF8CC0078
:1042500060650DF06DFA2065002800F093850A9BDB
:1042600093F8F410002900F0B083049B5A680A9276
:1042700022B1844B12689A4200F01A85DBF8A03014
:10428000814A824900209847834B049A2393002354
:104290009361FFF7A9BB049B5868049A002313732A
:1042A00053E77E4B7E4A7F492393FDF7E3FC049B53
:1042B0005E60FFF799BBDBF89830C9F800504846BC
:1042C0009847049B5D60FFF78FBBDDE90C4A9FEDCB
:1042D000768A764B6B4F8BED3B8A03EB8608029612
:1042E000A146DBF8B8307BB30025674C2E460EE0C4
:1042F000DBF8A03065492246002098478BED3B8AC9
:10430000DBF8B83001369E4205F15C051CD2D9F8C5
:1043100000302B445B68002BF2D01A68BA42E7D118
:10432000D3ED167AF5EE407AF1EE10FACBED3B7A4A
:10433000E6D05F49029E5046FCF7D6FC002800F00C
:1043400094805C4CFFF7A1BAC14541D009F1040942
:10435000C7E78BF80401FFF763BA474603464846B0
:104360000A93FCF745FC049A0A9B5360FFF73CBB99
:10437000D9F80030504A934250D0DBF8A0304F4A71
:104380004F49984743F21C033046339300260123DC
:10439000032233A9ADF8D06004F0B0FEBDF8D030F0
:1043A00018057FF5F5ACDBF8A030464A44493046A5
:1043B000984761E5444A3B49FDF75CFC374B049A5A
:1043C000239300239360FFF70FBB0023CBF8EC305F
:1043D00037495046FCF788FC0346002800F0C684A5
:1043E0001A7B082A00F09B8038495046FCF77CFC79
:1043F000034618B1027B082A00F09180344CFFF785
:1044000044BA344A2749FDF735FCD7E7324A2549F3
:10441000324C0020FDF72EFCFFF729BAD9F8100026
:10442000079BC9F8003010B1DBF898309847DBF8EB
:10443000983048469847A5E7049B586885E60223CC
:1044400027498BF804315046FCF74EFC00287FF4D6
:10445000EDA9FFF763BA234B48462393FCF7C8FB4B
:10446000049A00235360FFF7BFBA18495046FCF77F
:104470003BFC00287FF465AF012E00F07E841A4CCF
:10448000FFF703BA0FB037137C860108748E01085A
:10449000688F0108788F010838440108A441010899
:1044A0006C8E0108248801080000000048040020E8
:1044B00050900108803F01080EB03713948901081D
:1044C000C886010824910108448D01085490010810
:1044D000BC3F01080C8F0108AC8D01085840010851
:1044E000848D010830420108D83F0108D9F8100036
:1044F000C9F8004010B1DBF898309847DBF89830E5
:104500004846984744E4B44A0A9048462392FCF748
:104510006FFB049A0A9B53604746FFF765BAD3E9DD
:10452000060108F039FBAD4B07EE900AC3F898017D
:104530009FEDAB7A069BF4EEC77AF1EE10FA1F6896
:104540004EDD5B69029307EE103AF8EE476A4FF0D2
:10455000010A86EEA77AFDEEC77A17EE904ACBEDF8
:104560005E7A9E4B28205B689847064628B1282231
:1045700000210BF043F84023F3609A4A9A493046F1
:10458000FCF7C0FF8046002836D1984A98490020A1
:10459000FDF770FB16B13046FCF7B0F90699954A65
:1045A0000C68DBF8A0509449944B0020A847934A2C
:1045B00093492046FDF71CFD80B943B0BDEC028B4A
:1045C000BDE8F08FCA4638463146FDF7EFFA04469B
:1045D00016B13046FCF792F9002CDFD05046ECE7DC
:1045E000F5EEC07AF1EE10FA00F3D5810024CBF895
:1045F00078414FF0010AB4E7204607F05BFF41EC39
:10460000100B80493046FCF7E9FE0028BDD09FED35
:10461000700B7D493046FCF7E1FE0028B5D0DBF891
:10462000B430002B40F03E8278493046FCF728FF3A
:104630000D900028A9D0764BD1461C46DBF8B81067
:10464000002900F0F180206801EB4103C1EBC301B8
:104650000430002302E0994200F0E68050F8232065
:104660001733002AF7D05D4B28205B6898470890E5
:10467000002800F0FC80282200210AF0BFFF089AE1
:1046800064490D982023D36006F0AEFFDBF8B83004
:10469000002B00F0C980CDE90A680023216803934C
:1046A000CDF824909A4625460C9701EB0A09D9F8D3
:1046B000043083B9039B01331A460393DBF8B83007
:1046C0009A4280F057810AF15C0A01EB0A09D9F895
:1046D0000430002BEED0414B28205B6898470646FB
:1046E000002800F0A780282200210AF087FF40233D
:1046F00049490898F360324606F076FF002800F03A
:10470000A180D9F80030DBF8E400C3EB431300EBE1
:10471000C300F43833A9FCF7ABFADBF87C7100284E
:1047200040F0A7800024A04604940026CDF814A0F1
:104730000795029602E0029B01330293D9F80430F8
:10474000364A37499DF8085000201BB11F68354E86
:10475000B74223D0DBF8A03098470122AA4209EBE8
:10476000450A21D904B3BAF8200007F0B3FE41ECA2
:10477000100B29494046FCF731FE04460028DAD0E8
:10478000BAF8280007F0A6FE41EC100B2249049865
:10479000FCF724FE041E18BF0124CCE793F8622026
:1047A000AA4209EB450ADDD8039BDDF814A0079D5A
:1047B00001331A460393DBF8B8309A4246D20AF125
:1047C0005C0A002C00F0D38029686EE7AFF300800C
:1047D0000000000000000000A441010800000020CB
:1047E000C61C42372C8A0108CC870108448D010879
:1047F00024880108F8890108C88901085C44010877
:10480000B88D010860900108B88701086C90010814
:104810004C04002074920108789001087C860108FD
:10482000748E01080FB03713AD4BA3423FF4CAAEEC
:10483000043403E70246AB49089806F0D5FE002889
:104840007FF470AF3046FCF759F86BE7A44BDDF806
:104850002490DDF82C800A9E0C9FAB42A2462C4689
:1048600000F04C830434BAF1000F7FF4E7AECA467F
:104870008BE6BDF9CC0007F02DFE41EC100B9A49F8
:104880003046FCF7ABFD00283FF44CAFB9F81C00F4
:1048900007F020FE41EC100B94493046FCF79EFDDA
:1048A00000283FF43FAFB9F81E0007F013FE41ECBB
:1048B000100B8F493046FCF791FD00283FF432AFD2
:1048C000D9F8300007F018FE41EC100B894930464A
:1048D000FCF784FD00283FF425AF99F83420864981
:1048E0003046FCF7EDFD044600283FF41BAF07EE11
:1048F000907A9FED820AB8EE678A80EE080A0EF081
:10490000A9FA68EE007AB3EE087A67EE877AF7EED6
:10491000006A86EEA77A9FED7A6A67EE067AF6EE6F
:10492000006A67EEA67A17EE900A07F0E5FD41EC03
:10493000100B74493046FCF751FD00283FF4F2AEED
:10494000FCF724FC804600283FF4ECAE02466E499A
:10495000304606F049FEFCF719FC02460490002898
:1049600000F07E826949304606F03EFEDDE6DDE974
:1049700009A60AE65A4BDDF824900C9FAB42DDE90C
:104980000A682C467FF454AFCA46C146B9F1000FFD
:104990007FF419AEF9E55E4BDBF8A0405D4A5E4955
:1049A0000020A04738465A4A5C49FDF721FB069B88
:1049B000DBF878411F688246D3E5594A196891426D
:1049C0007FF415AC0022DA7317E403F10409F02236
:1049D00048460AF013FE9BF8F430002B40F00A82A0
:1049E000DFF85481049E0A9D2C68D6E9141214B194
:1049F0002368434517D0DBF8A0304A4A4A490020D3
:104A000098474A4E4A4B23934FF48058C6F8288063
:104A10000023CBE9433306F03DFDC6F8188006F0CD
:104A200039FDFEF7E1BF0029EBD0A068CDF800907A
:104A300004F10D0305F0F2F90028E2D0637B0A2BA4
:104A40000CBF0123002385F8F4300FD1374E4FF40B
:104A50008058C6F828800023CBE9433306F01AFDBE
:104A6000C6F8188006F016FDFFF7FFBB304607F0CA
:104A700059F90028C5D095F8F430002BB4D0E5E7FB
:104A800003232C498BF804315046FCF72DF90028FC
:104A90007EF4CCAEFEF742BF08F07EF8C9F85800AD
:104AA000FFF73DBA23493046FCF7EAFC02900028A4
:104AB0003FF46BAD40F2E1100CF03AFE00283FF4F9
:104AC00064ADDBF8B420002A00F0C18100F5F1727A
:104AD000CDE9032A45464FF00009824634E000BF85
:104AE00070040020789001088090010898900108D7
:104AF000AC900108C0900108D0900108F902154F50
:104B0000C2F38E4DE0900108F49001080C91010869
:104B1000BC3F0108F8890108C8890108B88D01085F
:104B20000FB0371394890108C886010800040048B3
:104B300020440108848D01080EB037130025DBF8EE
:104B4000B4304B4540F27881DBF8E400C9EB4914FE
:104B500000EBC40009F1010990F8F430E400002BE7
:104B6000EDD0043029A9FCF783F80028E6D0DBF863
:104B7000E420C54DE31C02EB030E0FCD33AC0FC494
:104B80002B6823700AF1020C1EF8013F42A903F0C2
:104B90000F0202F5847201EB13130CF1020C6A444C
:104BA00013F83C3C0CF8043C12F83C3C0CF8033C79
:104BB000039B9C45E8D1B54B00255B688AF8E05122
:104BC0002820984704460028B8D0294628220AF011
:104BD00015FD4023E360484607F06CFC41EC100BE8
:104BE000AB492046FCF7FAFB0028A7D0BDF9A4008A
:104BF00007F070FC41EC100BA6492046FCF7EEFBD9
:104C000000289BD0A44952462046FCF77BFC054671
:104C1000002893D0029BA34290D09B68002B00F009
:104C20001A815A68002A8AD0146062605C6086E744
:104C3000022389F86330FFF703BA984AD9F80010C5
:104C400091427FF4F8A989F86330FFF7F9B9A3F12D
:104C50000203B3FA83F35B0989F86030FFF7C6B942
:104C600004238F498BF804315046FCF73DF80028A7
:104C70007EF4DCADFEF752BEA9F85C30FFF764B9F4
:104C800007F08AFFC9F85400FFF774B9A3F10203D3
:104C9000B3FA83F35B0989F85E30FFF77FB9A3F1BC
:104CA0000203B3FA83F35B0989F85F30FFF78AB92F
:104CB0007C496722102004F0E9FE054600283FF4F5
:104CC000E3AA794B0A9C036094F862307749382252
:104CD0001020002B7AD0B4F85C6004F0D7FE734942
:104CE00004463922FC2004F0D1FE8146002E76D005
:104CF0006E493E22602004F0C9FE0646002C00F0FA
:104D0000F880B9F1000F00F0AE80002800F0AB8011
:104D10000A9BC9F8986033A9C4F80090181D04F0E4
:104D20001BFC002840F0FA80DBF8A030604A5F49A5
:104D30009847204601F0A8FB5B4B2A6800209A4266
:104D4000686000F0E480DBF8A0305A4A5549984783
:104D5000FFF79ABA89F86260FFF7CBB84F4BD9F8E2
:104D600000209A427FF467A901236CE7524950461C
:104D7000FBF7BAFF00287FF437AB444BD3ED667ADC
:104D8000FFF7D6BB4D4A4E49FCF774FFFEF72CBE29
:104D9000022389F86430FFF77DB9404BD9F8002031
:104DA0009A427FF472A9012389F86430FFF772B93F
:104DB0003A4AD9F8001091427FF467A9E9E783F8ED
:104DC0006A20FFE53F4B4846FFF747BB04F05EFE15
:104DD000364904463922FC2004F058FE8146002C56
:104DE0007ED0B9F1000F3DD0002691E7364B484602
:104DF000FFF733BB9BF80431344E354ACBF80C61D6
:104E0000012BCBF810217FF6EBADDBF8A030314A57
:104E10003149022098479BF80431012B7FF6E0AD21
:104E2000A6F224532D4ADBF8A0602B490220B0479C
:104E3000D6E54446FEF757BF53461846DDF810A0A6
:104E40000CF07EFC002D3FF4A0ABFFF7EDBB0CF0A7
:104E500077FCFFF7E9BB029A9460C4E900346EE680
:104E6000049C62E44E462046DBF89830984734466E
:104E7000B9F1000F38D1002C3FF45EAFDBF8983069
:104E80002046984758E700BF4091010800000020E5
:104E9000C08D01088C900108AC9E01080FB037133B
:104EA000848D0108888901080DB03713B48F01087B
:104EB000C48F01086C89010854900108448D0108D1
:104EC000248801083043010808430108F043010821
:104ED000A4040020848F01089C8F0108A08F010882
:104EE000B9F1000F3FF428AFDBF8983048469847F7
:104EF000C1E70446B9F1000FF6D1BCE75346CA46F4
:104F00009946B9F1000F7FF45EABFFF73EBB286016
:104F1000DBF8983028469847FFF7B6B9BDF8E0307F
:104F2000BDF8EC20D9F898801A4491B2BDF8E2207F
:104F30001691A9F89E1009F1F8015200C9F88410E1
:104F400009F1F401C9F8E820C9F88810002209F134
:104F5000F601C9F89420A9F89C20C9F88C1009F131
:104F6000F00209F1F701A9F83830C9F82420C9F88E
:104F70009010B8F1000F09D009F1EC01C8F8181031
:104F800009F1F501C8F82420C8F85C10C9F8D82048
:104F9000169AA9F8E4200A9AC9F8DC5092F862201F
:104FA0000F9262B10F9924AA0DF1F60002EB4106AF
:104FB00030F8021F490822F8021BB242F8D1BDF8AE
:104FC000E8209DF804111B911A4492B21C920A9A8F
:104FD000BDF8EA10B2F85C209DED408A0B921D915D
:104FE00022B1BDF8EE200B99B2FBF1F2BDF8E6104C
:104FF0000E92BDF8E420BDF8D2001A440B44DDF84F
:10500000CE10A9F87E309D4BC9F840309C4BC9F8B2
:1050100044309C4BC9F84830032389F874300F237F
:10502000A9F8803009F13C03A9F87A00C9F8761094
:10503000A9F87C201E93B8F1000F00F09D81359BEC
:105040002093369B1A93BDF8DC301F930F9B0026EC
:10505000CDE92C66CDE92E66CDE93066002B00F057
:1050600077815A003CA90DF1B60010920AF09AFC23
:10507000109A3EA90DF1BE000AF094FC0B9BA8F813
:1050800038300E9BA8F83A307F4BC8F804307F4B7D
:10509000C8F808307E4BC8F80C307E4B12937E4B1C
:1050A00011937E4B10932DAB189308F13A0319938B
:1050B00008F148031793C8E913660A9B1396C8E9D9
:1050C0001566CDE914451D46189B199A33F8024F11
:1050D00022F8024F18931B89714919921381EC2011
:1050E0002F22219304F0D2FC6E490646002800F0DE
:1050F000A0806D4B03646D4B43648164297D219BCB
:1051000001393C30042900F25681DFE811F04201F8
:105110003F0105003C0105006FF00C02169995F85F
:1051200011C095F810E086F874E021441F9CA6F8A1
:105130007A400B9CA6F87E405B000E9C2193A6F85B
:1051400080401A9B209C86F875C089B2BCF1000F84
:1051500018BF1C466B68A6F87C10C6F87640C6E9F6
:105160002132AB68C6F88C30219BC6F8E030129B28
:10517000C6F89C30119BC6F8A030A6F89610109B7C
:10518000A6F8DC1006F1E401C6F8A430C6F8D48015
:105190007162C6F8D010002134463187A6F8941009
:1051A0004349C6F8D81006F1E801C6F8901044F853
:1051B000980BF46301F05CFF002800F0F080306889
:1051C000C1688847179B43F8046F1793139B0133FB
:1051D000DAB213930F9B9A4205F11405FFF474AFF2
:1051E000DDE91445D9F89880129BC9F8A430119BC9
:1051F000C9F8A830109BC9F8AC301E9BC9F8003024
:105200002C4BC9F8E03009F1A003B8F1000F00F011
:10521000C380C9F83C80C8F80030D9F80000836822
:105220009847002850D1DBF8A030234A23499847FB
:105230007FE5DDE91445139A214902F1120308EBD9
:105240008303D6B200225A600020DBF8A0301D4A4A
:1052500098477EB11336F6B208EB860608F14C0883
:1052600056F8040D10B1DBF89830984700234645F6
:105270003360F5D1D9F89880B6E700BFD96E000841
:10528000816F0008796F0008FD6D0008796E0008D5
:10529000716E0008896F0008956F0008519300082F
:1052A000E88F010869700008798E000871700008A5
:1052B000458E0008A5080008FC8F0108B48F01087E
:1052C000409001081C900108D9F80000C368984775
:1052D0003A4A62603A4AE260049A0A990023A3605B
:1052E0006C60D38391F862C024A802F126019E4627
:1052F0001A46DCB2644527D2048821F8062C049EA5
:10530000224492B2F2830133042B21F8024F00F1C0
:105310000200EED10A9B0499B3F85C3081ED0C8A4F
:1053200013FB02F31B9A81F834201C9A8B83AA8109
:105330001D9AEA8100208D6123A9FDF7BFF900289D
:105340007EF45BABFEF750BB21F806EC0024DAE7F5
:105350000B9BA8F838300E9BA8F83A300F9BC8E991
:105360001333C8E91533174BC8F80430164BC8F887
:105370000830164BC8F80C30154B1293154B11938F
:10538000154B109330E76FF00F02C7E66FF006027F
:10539000C4E66FF00B02C1E6C9F83C303DE7DBF82C
:1053A000A0300E4A0E49DDE914459847DBF89830E5
:1053B000304698473FE70022B0E600BF7964000816
:1053C00089640008FD6D0008796E0008716E0008A0
:1053D000896F0008956F000851930008FC8F010841
:1053E000E88F0108BFF34F8F0549064BCA6802F4E6
:1053F000E0621343CB60BFF34F8F00BFFDE700BFF8
:1054000000ED00E00400FA052DE9F041C16F0568E8
:105410009EB00446002947D02423E3672A68636AC4
:1054200022F001022A60002B40F0AD80D4E9041282
:10543000A36828680B431343E169A64A0B43024063
:1054400013432B606B68E26823F440531343A24A72
:105450006B609542A369AA6800F0DB80206A22F4A1
:105460003062034313439D4AAB60954200F046818E
:105470009B4B9D4240F00A8103F5E633D3F8883018
:1054800003F00C030C2B00F25481DFE813F0C7018A
:105490005201520152010E015201520152016201A8
:1054A0005201520152015B0180F878105C2207A87A
:1054B0000AF0A4F8894B9D4200F0D081884B9D42B0
:1054C000AAD1022707A80797FBF70EF8064600287F
:1054D00040F0F081834B844D9A6D42F400329A651E
:1054E0009A6D02F400320492049ADA6C42F00102DE
:1054F000DA64DB6C03F00103039307220323CDE995
:105500000032039903463A464FF090400F214FF086
:10551000800806F0CFFCC5E96176C5E96368C5E996
:105520006566C5E9676605F5C076704BC5F88031DC
:10553000304606F0AFF9002840F0BC8166671023C2
:1055400005F5E476C5E97508C5E97700C5E9790090
:10555000C5F8D0313046664BC5F8CC71C5F8A841C6
:10556000C5F8C83106F096F90146002840F0A2813E
:1055700026672620C5F8F04106F02CFA5D4B402244
:105580005A60256848E71E0705D56A68616B22F4F2
:1055900000420A436A60D80705D56A68A16A22F406
:1055A00000320A436A60990705D56A68E16A22F405
:1055B00080320A436A605A0705D56A68216B22F473
:1055C00080220A436A60DF0605D5AA68A16B22F42F
:1055D00080520A43AA609E0605D5AA68E16B22F4B0
:1055E00000520A43AA60580609D56A68216C22F461
:1055F00080120A43B1F5801F6A6000F0F580190639
:105600007FF514AF6B68A26C23F4002313436B6027
:105610000CE722F4306213433249AB60D1F8883092
:1056200003F44063B3F5006F7AD000F2D780002B0B
:1056300000F03A81FAF736FE002872D16A682A49EA
:10564000002322F49042C4E91A336A60AA6822F067
:105650002A02AA602A6842F001022A60C4F8843053
:10566000D1F88C602B681A0779D42B685B0700F19E
:105670009180002320221846E26784F87830C4F82D
:105680008020236663661EB0BDE8F0811A4B9D4200
:105690004FD103F5E433D3F8883003F03003202BE7
:1056A00057D04DD8002B00F0B980B1F5004F00F075
:1056B0000881FAF7F7FD0028C0D0636800EB5300BB
:1056C000B0FBF3F04FF6EF73A0F110029A4230D81E
:1056D000E860B3E7F369FFEF008000400038014065
:1056E0000044004000100240900300206C00024083
:1056F0008000024000E100E000480040744BD3F815
:10570000883003F00303022B23D0032B1AD0012B84
:10571000CBD0B1F5004F00F08780FAF739FECAE729
:105720006C48626802EB4203834202D8B0EB023F4E
:1057300061D90023C4E91A3301201EB0BDE8F0810D
:10574000302BF6D1B1F5004F00F0B8804FF4004097
:10575000B3E7B1F5004F00F0AF805E48ADE76FF002
:105760007E4332464FF40011204606F0F5F800283B
:105770003FF47BAF236853E8002F22F0800243E818
:1057800000210029F7D12023E367002384F8783033
:105790000320D2E76FF07E4332464FF4800120466B
:1057A00006F0DAF800283FF464AF236853E8002FCE
:1057B00022F4907243E800210029F7D103F1080296
:1057C00052E8002F22F0010203F1080040E8002116
:1057D0000029F3D12023C4F88030D6E7B3F5406F19
:1057E000A7D14FF400409CE76A68616C22F4C002C4
:1057F0000A436A6003E7510800230F464FF480769E
:105800001946E0FB0671384607F016FA324BA0F550
:1058100040729A428DD8314BD8600FE7B1F5004FF6
:1058200052D0FAF795FD46E7FAF7B2FD00283FF4AB
:1058300005AF4300626803EB5203B3FBF2F34FF68C
:10584000EF72A3F1100191423FF673AF23F00F0204
:1058500092B2C3F342031343EB60EFE6012307A8C0
:105860000793FAF741FE034620BB194A116E41F433
:1058700080411166116E01F4804106910699D16C48
:1058800041F00101D164D26C02F0010205920721BE
:105890000322CDE90021059802224FF4C0614FF0A8
:1058A000904006F007FBB7E5FAF752FD00283FF4F9
:1058B000C5AE36E7FFF796FD094BBBE74FF48033E3
:1058C000B8E7FAF7EFFCB1E7FAF742FDAEE700BF41
:1058D000001002400024F400FFFC0F000080004094
:1058E0000048E80138B5054672B62D4C94F888306A
:1058F000DBB262B63BB130BF72B694F88830DBB22F
:1059000062B6002BF7D106F015F92368254900226D
:1059100024208B42E0671A605A609A601BD0224AAA
:10592000934225D000231E48C4F8843084F8783090
:10593000E3676560C4F8803023666366FFF764FD43
:1059400038B9B4F8AC10D4F8A800BDE8384006F077
:105950006BB8FFF747FD02F1804202F504324FF4C5
:10596000C060136E23F48043136604F09FF9D9E7F7
:1059700002F5E6320F20936D23F40033936504F0B3
:1059800095F9606F06F092FB206F06F08FFB074BD6
:105990004022C3F88420BFF34F8FBFF36F8FC1E75E
:1059A00090030020003801400044004000E100E086
:1059B00008B5054A836A934200D008BDD3F8843005
:1059C0005B07FAD5FFF70EFD90030020FEE700BF4E
:1059D000FEE700BFFEE700BFFEE700BFFEE700BF37
:1059E000704700BF704700BF704700BF034AD2F83E
:1059F0008C300133C2F88C30704700BF9003002018
:105A00000C4B0D49D3F8E0234FF480104861D16866
:105A1000490503D4012283F801247047D168C9B233
:105A200061F49061D1600120012283F8100483F8B1
:105A3000012470479003002000040140034B5A6981
:105A4000120744BF08225A61704700BF000401409A
:105A50000148FAF7CFBB00BF040600200148FAF75F
:105A6000C9BB00BF4C0600200148FAF7C3BB00BF0A
:105A7000100500200148FAF7BDBB00BF5805002003
:105A8000084810B4D0F80433D0F8384399691A683C
:105A90002CB1234600F541705DF8044B18475DF8C2
:105AA000044B704790030020034B5A69120544BF12
:105AB0004FF400625A6170470004014010B5194C60
:105AC000194AD4F8E0334FF4802151619A68D20426
:105AD00002D5DA68D00509D49A68910402D5DA684B
